:100000000C94334F0C94524F0C94524F0C94524F0B
:100010000C94524F0C94A0530C9404540C946854B8
:100020000C947B540C94524F0C94D2520C94524F1B
:100030000C94524F0C94524F0C94524F0C94524FBC
:100040000C94524F0C94524F0C94524F0C94524FAC
:100050000C94524F0C94524F0C94524F0C94524F9C
:100060000C94524F0C94524F0C94524F0C94524F8C
:100070000C94524F0C94524F0C94524F0C94524F7C
:100080000C94524F0C94524F0C94524F7F7F7F7FB1
:100090007F7F7F7F7F7F7F7F7F7F7F7F7F7F7F7F70
:1000A0007F7F7F7F7F7F070007047F7F7F7F7F7F4A
:1000B000077F7F7F7F7F057F047F7F7F7F7F7F7FBD
:1000C0000F7F0E7F067F0D7F0C7F7F7F7F7F1F7FDF
:1000D000177F167F157F1C7F147F7F7F7F7F007FB8
:1000E000277F1E7F257F1D7F247F7F7F7F7F187F57
:1000F000207F217F267F227F237F7F7F7F7F7F7FDF
:10010000107F197F1A7F1B7F137F7F7F7F7F0818E7
:10011000117F127F0A7F037F0B7F7F7F7F7F081015
:10012000081F097F080F027F08197F7F7F7F7F7F6D
:1001300008027F7F081308117F7F7F7F070C087FED
:10014000017F080B7F7F08077F7F7F7F7F7F080706
:100150007F7F7F7F7F7F7F7F07037F7F7F7F047F1E
:100160007F7F1C7F1B7F7F7F7F7F7F7F037F0810C8
:100170000C7F247F237F137F7A7F7F7F7F7F08110F
:10018000147F081908200B7F7F7F7F7F7F7F7F7F11
:100190007F7F7F7F7F7F7F7F7F7F7F7F7F7F7F7F6F
:1001A0007F7F7F7F7F7F7F7F7F7F7F7F7F7F7F7F5F
:1001B0007F7F7F7F7F7F7F7F7F7F7F7F7F7F7F7F4F
:1001C0007F7F7F7F7F7F7F7F7F7F7F7F7F7F7F7F3F
:1001D0007F7F7F7F7F7F7F7F7F7F7F7F7F7F7F7F2F
:1001E0007F7F7F7F7F7F7F7F7F7F7F7F7F7F7F7F1F
:1001F0007F7F7F7F7F7F7F7F7F7F7F7F7F7F7F7F0F
:100200007F7F7F7F7F7F7F7F7F7F7F7F7F7F7F7FFE
:100210007F7F7F7F7F7F7F7F7F7F7F7F7F7F7F7FEE
:1002200008277F7F7F7F7F7F7F7F7F7F7F7F7F7FAD
:100230007F7F7F7F7F7F7F7F7F7F7F7F7F7F7F7FCE
:10024000017F7F7F7F7F7F7F7F7F7F7F7F7F7F7F3C
:100250007F7F7F7F7F7F7F7F7F7F7F7F7F7F08158F
:100260007F7F072408057F7F7F7F7F7F080D070B37
:1002700007237F7F0713071B7A7F7F7F7F7F7F7F27
:10028000071C7F7F7F7F07147F7F7F7FFF1F627F39
:10029000C23C006088FFFFA0089001324006C8C63B
:1002A000001985030AF84414012341338AF320F925
:1002B0000365C00C98EC66BFFF0C9481325006F3C6
:1002C000CA541928E0A039F32933C6E7880098D327
:1002D00064809F0CB978FF0014E1C00258FE0B60E7
:1002E000012C800418100AF30270F3404CF305A0AF
:1002F00086E60339B31233E050DBC002281B45E029
:1003000050C9D334D381B01638B998FC4C59FF107A
:10031000030240199EEA8140080301201B04806803
:10032000E0B20898E4D8F90C1212FF9819042007DB
:100330002D9888917A80D0FC918B364D36259ECFB2
:10034000A6A82302D2370A500170166A1414ED567B
:1003500051860473B9E0F8BCC024F1E3B7F0474E0E
:10036000010091F33B912C92216C953DF62002A067
:10037000E2DB7D3411DDC612F4EECEFC24C08070C9
:10038000FD20B9ACF10205C95DA0E20133A55A0810
:10039000FF412CE1F2697DE00180241482EDF4211B
:1003A00008B7C0A69868A4A0C7FC50F865B7D3806A
:1003B00041907A6BB1E422FFFD212088AFE961779B
:1003C000FA2060FBFE01E0E5F31834D38108EB303E
:1003D000F684A0605903FEE76AE0B4C25EB00CFA8E
:1003E000E6C020182512E4F308C048FAA445EDD071
:1003F000DAFD057ED004E446908D461436C6297891
:10040000B39DDAE01680A7F7A2280292B31A083942
:10041000B304380618F8FB17119726E43D60E22D67
:1004200004300FE0E3012342F6044C008820660309
:100430003141DE4081BA6CE2BB24F43522C71F1182
:1004400020DDFFE0F358BD0639A27810B0CF813C23
:10045000FBF0201EE0D003386C0FE2F119E0FB0145
:100460003C800370451907E9ACF0C6AFD0E0DF0F60
:10047000604E3C2DFC803BFEC3E3D6C8866678E325
:10048000080320F60C25F17FD189AFADDA048B5338
:10049000F72F20BB6F78FA80FFD302DC1004B30380
:1004A00009307BB301033D7C0C80498876B311761B
:1004B000E026C48BB20CC5B2D3ECC10C08AE79DE19
:1004C000B1A0CD3AA24503F63624043B83E59CF067
:1004D0006A129664837FBD989134A212AAF44DD714
:1004E000B93E42407D032CA8FB4494089CFE27C8DB
:1004F000FF8E2BCDF80C0C9EB63B740D860130940C
:100500006AEC46F8E410DF9E2017F88081FF4298DD
:100510001E77252F80D3FE98A488B302B6F337BC8C
:1005200051A88433BAB308DC196FD30EFFCCFC8812
:10053000097FA5981AB6DFB2E985300A46989C4033
:10054000E02001D9B306FF7FF611201016ABF48C22
:1005500057ED401008E764140D60320ACB83FCC4E9
:100560005E1E59ED018C046B6D06D49840A677B6DB
:1005700098301273B24410ED0120024FBA2DFAE701
:10058000D91108EC8088CF49104AFBE0011DFE9884
:10059000AFC057980F97B8BFC5801ED08378405E14
:1005A00098B33CFC98072C90056AF4A30F1961C618
:1005B0008393E0D34BF8DB84007A9862DBA991FC4B
:1005C00003A220F333D6D2FF11C3DFED88D7F702A1
:1005D00070FDE0E681FA500966D71B809301C029BF
:1005E000B0BB08DF980403400A0CD98041E3B3C7CD
:1005F00028DA4146FE0148D1F8425AECCE6010B3E9
:100600000530303DFCA045DED279E8CA1080F87292
:100610008596723020BF142267799868C3B4E05A77
:10062000EA8D0FCB86408068FF1101200834002836
:10063000FF65F998FBDEB5C058A708931930102C58
:10064000E0CF1484CB2C44185496FE33DED225D947
:10065000231CBE1980D05746AC983CF3B4BB64C190
:100660000D96B3811C81DF6020FF9F10FF84116C09
:10067000B346B89DBE9444465AF6018005357BB317
:100680000830E12026C0B4F3985F6BDD420889434F
:10069000F3B18F10FC8E040251B342EA3AED8405A7
:1006A000304612244F5C118C01885F6A6767B30182
:1006B0000A2F681BB3871056530810437C30B98249
:1006C000AB08CD98369613BC9866F33DDDB032F496
:1006D000983814F3B10C1F77988007F08B19E0520B
:1006E000ECF79879200F5EF55B49B780D2C42EF005
:1006F000B464F38B15E330FF6741667A9818B4AFA2
:10070000FF87E130AEFF33C050B3A0375804F1305B
:1007100079CB9FEF9888400680B484F39851B2D388
:100720002BC6B88409023A68FA3F0B4F02628A204E
:10073000054F210C045B08FD106A8020A00119EB15
:10074000FE98F6861402444E4F69C61A4081E52889
:10075000024C6466C8FEEDB788F398D48CC0EF7F76
:1007600018308E92154602CDE368DCC60C0441F6C3
:100770007608FE609EA5BF06DB98804195F3409702
:10078000C87898B1E01D1B61B33140F50D72C89D6A
:10079000FB71100E17A49F98F3B6DB1ABD089611D3
:1007A000B9048D18AF409BF96809107BB40520226D
:1007B000167FBD75B3048D80028C68B8307F715B85
:1007C000FB801130017E8F6FC0128C04BB44C9982E
:1007D000A923EB02812CCC124D65C2686CB44C1875
:1007E000EFB308E24F12FB90B010EE71FAE0C8D5FB
:1007F0000EDD4978FA025E98F2801EC803F3C4F356
:10080000C880FB0CA001F0404F23983BB803BD9873
:10081000580203ECD7C8485E177FB418F0E50FF50F
:100820009808F9C87F18FD876CAF06CEB717F9C1D5
:10083000C6DEC1FCB34B19054F5298313604B3C81C
:10084000400CD8F38582B54476C704C253B3C028A0
:10085000AF40CC9414FD91EBB9C8FBF6DF21FC301E
:10086000373C80697C65C866C424CF3FB5FDDD4256
:10087000D028EB720DC970C641C00369FE0D20047B
:100880003402A0FC88BCE6DFC5791CBF988BB2FFA0
:10089000C1D7CDA5D7A0036B084030E11020FCB82C
:1008A00023D78B30D76B08E4C807798B89FECC300F
:1008B000BF322071D3B670C820066B8335C8809CC8
:1008C000AE48F8B64C5D700895C8F55D9BC842D639
:1008D000F38124B35CDABD02D34C6FAF8213602185
:1008E0004DFF0204300ABAFF8009F7B10826C2FCA6
:1008F00008ACBDCAD502E0751D0B600CC630241BC8
:10090000AF21D0EB01D346B9C85F52455AB8CA905F
:100910005A68F8D60F80078E1EF09848F377F5F0E6
:100920002065C87130889719F7EC05F1ABD3402FDB
:10093000C8F6981CC82C18AED37D1608A0F98401FF
:100940001A46796EE73997460B7DC914FF7C20065D
:100950004078D3B5DC5DF018CBD5049DFB69FBA0D6
:10096000CBB3C056B38089F2B3F398BD8B11627FCD
:1009700033E9468248FA686B9EC8C008184809FEE9
:100980004B8241E1E0FFEF8880E36AFE7A334F8FCC
:10099000EC40CD0368EDA488F3300414DA0A46363F
:1009A0006C222DBDEEBB02B8340D21130481F90178
:1009B000FBE52C7392CD68380362F8C47FCC819B31
:1009C0002039045D0015D019D7A9F1EBE8A2FDA8E4
:1009D000F39882B3B5F5983010F6195623C530FD5B
:1009E000E79007E9C118C0BC02B4E1D3F9BD0E0D10
:1009F000FB699BD524C866B3FF629818206C6124FC
:100A00005166A0CB8006E027897DF3029890FC2DEB
:100A10006BFBB74BFAB93006A2C204F3C523D398D7
:100A2000219D2CD8800881666FB140C4439AD320A1
:100A30002F8F607288402F9326C1AE22D761FF2B83
:100A40003088D7980665C87D2FAFAB9882DBB8E2B7
:100A50008110E230DECD01F0FF3598CCC8F0AFC692
:100A6000DFDC109AC8B0E33012F298FBF412E430E5
:100A7000800C1120B2E0BC98F5F36116F3F068B178
:100A8000F9D95E980684F7B35880A2CD400AB32105
:100A90008968FCDE9ED0D36B95C8FFEC20086044CB
:100AA000F1881005B07448FEDE4FFD10024008AF1B
:100AB0000443984173AE5A40CE1368F3A411C43D69
:100AC00001803AE01008CBC8B6FA03C1C5734240B2
:100AD00061F6258B22940B30FC7E6DC840B684DF16
:100AE000965D6129C62D7806B6DBCA895D00FFF0E8
:100AF000C66EB0F59B19CCED3108A1EA89B38A1016
:100B00008C894118301B01207A1910D3D098E2C982
:100B10002EF378E6EDC7F8040DA17C98570697C52B
:100B200074480860D5B1491D974AB396766FA828D6
:100B3000F499D0A7C42B442C083EE609B8FE8426BD
:100B4000B20892A598FCB83092FF06527000099145
:100B500030818CAC90F1B4C3F5010246C49560AA13
:100B6000A5482691A72040906402C60D79ACDC30E0
:100B70004E19401EC4FE01303C69EAC502F5B86258
:100B80009CB67E76F29007BE9801FDCE9A32D3C411
:100B9000F4980BFBE63D20C8FEF5154009662E6271
:100BA000E1E3992F66DDAF20DD44623F7E9620961B
:100BB000A60EE252192F0C044037F9C8F99866D5F1
:100BC0009803F930517F4DB1AE1264C8B1D11F9670
:100BD000CCC7BE6BBF4192CAA619FD57088C466AA6
:100BE00013F9A0EE100121E53040A7373034027B25
:100BF00098442181040DECA04934FF0198B4F70812
:100C0000100444F23040DF9330033229A624C64456
:100C1000FFD5D918233FBFB7B108F88F46F9E86769
:100C20009BB1ADFF08F803FEF4A43010B8B3B70DC4
:100C300023B0FFBCB8BE61ED4B8E80F33CB4BD78F1
:100C40000179EA6D53B9A3734D04809C41E9E0F842
:100C50002B05638C4566090C0C06429E896645305F
:100C600011DBED9CDB73208233BCF3101440541570
:100C70008C0C11C6CDCBF8F0321FE9CB3012BE9FE1
:100C80001E16C27AF5090164658C9080819BDFB9DC
:100C900084100646BFC1FB7F012C4FC260429411F5
:100CA0005313C38490CE19F8EA3C085D70FA0F7AAA
:100CB00056DD8077BBF02079986BAC003C2D104D51
:100CC0006646ABED2C96E04099C86F951EED9803F3
:100CD0006266C898FE3F30CFF2F6E58110D380708F
:100CE0003FA591FEABB350026C19B711E5500C93C0
:100CF000EED1200C089E8E81F88049E4B320BF37E6
:100D0000DE4B11201206E2A6F32EBA77D8665BD12D
:100D100073303009663AB3C04258679D0488B521E4
:100D200001C2C0FE6366FF51B38FB4FFF8FBCF77FB
:100D30001DF795B5D6D469F39CD178E00702E0623F
:100D40002DD330FE18205AFF2CBE5360C77650FAC0
:100D500028159866DBD390FF62BB69B140F55F0848
:100D6000B1597585AF6CF4FF44C2DBACD65FA566A4
:100D70007393F6BFE0B57BB0FB0460514851C8FAED
:100D80009D3386CCB1D3BE7EB7956C59FA203EF820
:100D9000CC4DCBD396CAA07982EB1A2818E57E50A9
:100DA000A7A07D05B35B0BA8FA0B7CE8F35215CE28
:100DB000B0D8FAC48DD53254BA9DC516B2809A699E
:100DC00067B0B360F82822C3CDF8B4AD0C2FFD3660
:100DD000AE37D93F9BF7CC049C14B32066B3BECE8C
:100DE000C2D308725EFB7F65C0088469B002D8BCBC
:100DF0001050D8CEB4198D5F1BAE88FF7F94F54E8E
:100E0000EE152DDE42D6B02027EB9702240FE3D655
:100E1000C49DAF5E0470FDF0C6E5B4E99624F89178
:100E200010E9DA18D98FE38040A5B3809239A20483
:100E3000C322D87C6F8809FEFAB9D9D3F1E3182A06
:100E400028E6800CEB327FB20201090A40A1462D50
:100E500079696F68121472950AB41D05907B5B0660
:100E6000430721409F03CC0918E8FB293579800B03
:100E70001802D740889E37495B0E4FF78C48941272
:100E80006767C4A011C7210ECF40182E8120021021
:100E90009EDB6FE450800569E90831F1B5A8D99669
:100EA0007467F052B3A5CF663B1EA6BC9142D3CC6B
:100EB000C0BE52E048B3018DC308DC6AD8B58C5E71
:100EC00047CB11E5CDB8B79FF3D16F1CF8719930BE
:100ED000CB18FEDAFD479CC9B1C07F37E1CB803F1C
:100EE000961EF979D69ED861179E2B3CDBC8FD2C47
:100EF000DE4026EDF8088A13E9C050F96E7B7FD1F9
:100F0000C49DA0F6563E1A6EBA7A84019BC78CF92E
:100F100009B60DC21D60E398FF30461DFF9AD8FB4D
:100F2000E6487B8701086167DF7FED22D0F989FD04
:100F300065854B05027F6CA8F8F9DF59F004C67E81
:100F400013FE2A108D66CCBFB5AA448FA56F01FE93
:100F50009CCAD8CCFECAD203C4D6E8802FED1CA010
:100F6000FC9BF66D2596341377DB98F8614FD89487
:100F7000F397B8FB6319E32C302D4BFF50B30FCD23
:100F8000FFFF2718B3FFC8EC0BC6160A0134ACDA12
:100F900058FEFEF714C1055F8881F8046141D28EC6
:100FA000FEB65CC2DE9D178608018BF74F90F86491
:100FB000AD9610CC5BFDB2CF45DBEA8B7BDE08F84B
:100FC0006286022E65B1189FEC6680FE67D16101D2
:100FD000D849C67CCB2FA814E17D36632B7F08301F
:100FE0008DC8680978FE96C48C015FB69B4031CDF0
:100FF00075B0FFD94736A840E785AE9B101BF6ECCD
:10100000053FCDE8FA96D970046FE3D2CCC890FBC7
:10101000CBB80402808B345712AABC80B82408BC19
:10102000EAA93B1AF197DB4C2A8480A3A9CFDA7195
:10103000F4F87EA3B0A030D40A13054A7F8F801144
:1010400023F01FDD18602210F60340800C7E72181A
:1010500005A08A2225AF98043DB3900217806EB791
:10106000413A41CB09F918FD800130C70F0450E225
:101070000260081E4C2110A221594C8E88B7A3D4BF
:1010800019336836BD6F3980171FD2ABE9A0DFD3A3
:101090005124120984FD4128205268FB1B278BD55F
:1010A0001571F3F7629EF547E980B32CE9FD74C52D
:1010B00008FF40F742E097BEF4F106E2098C652C88
:1010C0001A200BE75D659608A2A54022E07D0C2B57
:1010D000ED64028C744BED9C8CF8FF650C6CF72C66
:1010E000E928E3C9DB30084046E898FEC5CCD65F66
:1010F000D64E8226519D017A60FC98EA7FD8BFD2F5
:101100006A40C67B0D20D9FD887D88B620D57E300B
:10111000CBC610115AB310FCF901DE81B840C73AB2
:101120000FE64044B3C566AD37800C5CFEB12DFCC4
:10113000E6AEF0FDC120C4D6D4102C176EDAB3028F
:101140003E98BF78F96CC647EDFDB98DFAFC40C5F5
:101150008BA0864B9DD94066B70132C18C8A265937
:10116000FF400D39D8FF99F6ED10ACBB055DE69850
:10117000B3F8F682C6FCE405249FBB8402B82B2397
:101180009933F8FC0D79ED9DEB4C2815EDCA80B82C
:1011900093B3CD78FF2ED0F966E082DF5077204000
:1011A0009326EC30B046BD71409A0BF58D588E06F3
:1011B0009F6D16021FB4A005818022ACD183EF6819
:1011C0005C645C46DB90F9FEC103D5D106728D8369
:1011D0006CFD0C53F6C010BA914AC20142F3C06FC5
:1011E000F3DC19F9AF604C6507E71C272EB3605E8E
:1011F000B332A632B34458C4B59601B620F5B381D4
:101200007AB8C41392C94087B9D770BBFCFFF826DF
:10121000C8021A01B553F4E726068A664CDD3F0A78
:10122000897ECB10F2AB4DB3097146CEF743600215
:10123000E132085B49C93102E1F2C1042149E049C8
:10124000FCCB22C0839E5D848109A2CF1FB45301D1
:1012500006C0087073ADB7FB0F42104024F7E58C51
:101260003FA63008E8F9E0FF013C8807B4001EC043
:1012700070199CF3DD07F1B9F8F30F25F3049EB361
:101280004BD3F4F38F103FD3813C8005B14FD38211
:1012900078200F9EE8F30018FC88A0F0DBA904FC7E
:1012A00002BFC2C6C22F841ADB3F3C66016601A79B
:1012B000D0A22CAFF3BFE6E852B96E0EFD7DFA2640
:1012C000C18898041E1AB3B904D30A5FEA41E698AC
:1012D00082B380DDB3404DC646A43BC9236044DFE2
:1012E000B370FA2004817F318C43094970D41F8682
:1012F00012A204675D6585E6986716BDB689B4805D
:10130000DC3BE025A281C041DCD044E90DEB3D1877
:101310007F1698DD4F68AA08882327F6CF0CDE7C5D
:10132000EF803020D3345F2F98B2DF5FCA30FE8069
:10133000410832DC02AA8474B0E0433C1080BE0055
:1013400081F0A34663B063F8BD8507474EBA7F8836
:10135000010D5CB3400C2FCBDFE3F808057F60592B
:1013600010DA22F69114F138C11B8451B1201DF41A
:10137000979026143B49E02C936FC6E69C39C259DE
:10138000FBE905301054504366E08890056C4CA38F
:10139000983C0B6098DFD0A2ACEEF1661110098C7E
:1013A000731890E8E0B20288C65DB8C3EEF54C73DE
:1013B000D6E1FBEEE0403C779D0EC4027BA5410CDC
:1013C00027B0F81ED0CA0379B0F39834B4BCA57224
:1013D0007007F4E0BC9857E0CDECF8B0CEE93810D7
:1013E0000FF648FA840D317CC1D149101BFF1F0153
:1013F000DFBFDC0360EB67F898A5E020C009E0667A
:10140000D336E030CB0240FF5E587F9298CC988F65
:10141000BC57B322E8A21AB3BD984567FB98860172
:1014200081A806B4C141B38CBF8934F001F311EF38
:10143000B378FDB001BB80DA984A40F598813BA7AC
:10144000C04211F901209B4DD79465BB22B3F784AC
:10145000349E923D429A08B32805FDA20901C14677
:10146000080E7C8801203C10EFAB50FBE26AFA3298
:10147000EBFE334B189B302008377053121A7DF95E
:10148000B00CB859888F83F798F0F980DD810CE9AA
:10149000981CA244C0235F9A4CDD0310D7F340D9B7
:1014A000A7FA75F430100621B37FAB9881D65E227F
:1014B0008E83028041BBFEF8DA0C046AF101BBB9ED
:1014C0008CA7229E86D0029803B30A124CF3CB3528
:1014D00052D8A11A14103F28CB98963026AB910110
:1014E000B54B5AE8FE0430461A2F097A9880844595
:1014F000B0D6110899307F6004808809B61036B3E1
:10150000EF5C8311101B24C10348045E0BD780825B
:10151000F79E40C4B0B2448C96F7F6A8FF71303401
:101520001E16D0C7A70BF39005F03E0CC003791030
:10153000B9302DB3203A17FF7B9803F02016FC98A2
:1015400057F32823F0EA9B090FE2B37BFB2F7EF2CF
:10155000D2EA2915ADA9C0501FF705F130B1BBB2D1
:101560005E89BD9802A3C036BC98B830B803D78E48
:10157000F6F5DDD97D326921748DA3E8B49CF3467C
:10158000C022CFB3A3D328A001B320BD988124EDFE
:10159000E0DCC01493D12C50D3FC035C9E2BB3FA37
:1015A000CC68FCCFC890C0D0D622025CD564C134D0
:1015B000885CC8A20957EB067CDA1C12B5F8B005A6
:1015C000EF6BD0021A095E9803A081DD3491C1EB64
:1015D000C359C8CEA050F5BCF8F3DB96A083DCE875
:1015E0002C97832737E4CC667765D5B78B9866F858
:1015F000238F596B88D0FACBA5B5DE409BC80195E7
:10160000BE30DE84201880BE526CD341EF2F98CAC2
:10161000AC09D34BB308A15D2EFC01230380622BE0
:10162000D429FBAB4E06081A01F319DD8E021844CB
:101630003E934C90053402CDDEE30410BDA501DCE1
:101640000840EE7E442E192D18237789CB85FB05A3
:101650003C53244148ACECD2C88C2F0966812497B6
:101660000B68C820821B37FC32810430F5874002AA
:1016700008F732279D921BC202AE986E070C2CF61B
:101680001FB1FFEF6DD203B033C80FBB0270C07043
:101690002B16DA98200BCBF565BA04AFFF29704101
:1016A0003C8007B07FAE9810FA2FF5982026C67AB6
:1016B000C6629ADE40FAF9B9CDBF442FC8D7C81028
:1016C00006409280C3A6050CDA7B6C216FDB633089
:1016D0004FBC5B660B6E3F238643FB49D33EC8C0BD
:1016E0008218055E7BB30786C0D704900330FB8C5D
:1016F0008011300A7DB51B39F8D3A4AF02B9F4B319
:101700008998A83CC20EF46B24CFB345F048FDA0E5
:101710003C77902251BF0E953008CF3010502402F4
:10172000950958E5FBFB570233D8E5A8891EC1226D
:10173000D144904D687F0DA0013492121342401F96
:101740006068F90820A4018095BCFB3AE3467EDE80
:101750002B82F9701CD9DF049BE3B581CD0E08DD27
:10176000B15D846D969B9F25C930FCF8799907F48B
:101770001EC64B1962BD8BE034468474DB0C42F10B
:10178000301A21EC979A44D3C02D0B3B627B1C107E
:1017900002B3BB8337A6036FE9E8FACF880533208D
:1017A000C802C51A2100B90BE524EF180259C9C8AF
:1017B000F3DA34021B66F027A0F9D3AD1A3B8C8410
:1017C000602614123B2D4439A22A98F8CBB0174258
:1017D00017DA3E3028825130206B8708D99861048F
:1017E000F3B7093605E575907E324272671801EE4F
:1017F0007FB60844100A02C8139800DD8A60EF988B
:101800003008E0FCAF607D9805B4401EC02BC707D0
:101810008B30C2B8AF69987810F33DB690D31DCE27
:10182000FAD37999D3801E63F558100F60E56BCF1A
:10183000031EC801785C305E6BE538FF8406716A70
:10184000DAEE22913FB24441F3BCE5E1F34A6C6524
:101850006FC474D31E20FF2DA5AD11BB6ACB989722
:10186000680C3DE691FB804176B1C08846C8FFF820
:101870005F16800450C9B30C98A8F302ACC066345C
:1018800021D329F3B350DC140802B9A6B323AF4126
:101890004F9891E6A8FBA03F03900251280AAE455D
:1018A000507D0DA1D0E210631E68020D76F79508F9
:1018B000774C63F0C1F3FB428020E024BB45D58B1D
:1018C00046F8BD480B9E30A409801035FCB18C71E0
:1018D000BA1B5371DA727D0CDFEF88F3BA345DB84E
:1018E00046FCDBC8028E96F270FF52195040D4B30A
:1018F0008B23C89880B85DECDBC8807184B9BD7952
:101900009879C002F60E80EC82C857FD1A307B9899
:1019100090FF2BA03ED5C0101802B7E340BB21AE0C
:10192000FECFC8136011C84024CB6CFC9DC8BD26F7
:1019300014EE75010881B2C853F3762060BD4244AD
:101940006A85F931B4302E591030A1D7FD7F0410CB
:1019500098087C605F80091082B3040B22B10401F7
:1019600016D776B5984204E0F8F522C0CF30216052
:101970000C8CD7800537EAF8E07BC5B140DD16C492
:10198000C73066C807BCC5B8306BF3E42CC8DFEFBE
:1019900032E041CBD5BC98FC9DC8BDF1207A5E7A7F
:1019A000D3D99870FB7259D501DED244C7932BFB73
:1019B000C4B8C248400ECDC80899F732FA78C1FEC3
:1019C0006F3D1004CBC880F35D6199C83024BFFE21
:1019D0003ED581841804EF3C98D361961AFB0340EE
:1019E000010C2B2DC88E5EF378F6F077944C416590
:1019F0004ECAF312E0302BD89818FF5D0436A07958
:101A0000C5DAE906054EA190161201B33A6E448D6F
:101A1000FB9237480E45DBC09879822DA481F3BB39
:101A2000028830D2FE5730301D30B676B9C8462A0B
:101A3000E728F25403DCF1CF23FF397F346BDFBE9C
:101A400088FF4045B3E5C594C8F0B268B830BC988B
:101A5000CE5BBF40FA9810E2B3CD2724DE9822294E
:101A6000BBD951C8FEF23911261826D1014393CFB4
:101A7000D816D20219A441CB4CEDE63411BABACF34
:101A8000F2986BE08401CB98AB84E6DF5C80BD8B81
:101A9000B8FFF88405100140C0081035EA9820F519
:101AA000D20966E9001AE230D30B63BB77018911D2
:101AB00030A504D3180826AA204031C020C2A69819
:101AC00050010C81C6F120FEE03D2D8807F1716ABE
:101AD0003A190BE281E530F0712373300FE4D941FC
:101AE0003CCB19E0B3C8F2D6201E5DC8C530E598DE
:101AF0009EC8C403181BBD9810CA50F8805188C1F5
:101B000036D9C8BB828B232F34E1303964FD6F9DF9
:101B1000E498E02D497DE5806BECAB38FCEFFA28CA
:101B20000204EDB629E4ED14E8F35808B323CCC65B
:101B3000F3B3CFC0E90D0B5E8BA1C8F32C69CF3096
:101B400068FEA02180340E5010FCEEC82D04F798DA
:101B5000502800C5408BFD440DA05114099CB2C70C
:101B60008480E1420102C860C05805A8A6F312B300
:101B70008F48F2002811205A7760F8FFF898B2F7E2
:101B800073C8015F07B503E33B37EF7FF2ECFA8FD1
:101B900051732046E6F343E660FC5D640A0781EE7C
:101BA000BB28C843BA579BFD8318FC6BCFF398F64C
:101BB00013EE5D1018A4DCF3B532F398BD7E88E611
:101BC000F880057D260C10CC6422654CAFC166C53B
:101BD000C142F623BFBF9096410BA6BBD973A5287F
:101BE000FC1664D5ACB3EBA88101CE6B6F9E23606D
:101BF000F07E73EB6631236C5140E46AAE8C7FE07B
:101C0000301140040298C70060062C5BBDAD04187B
:101C10005C5B8C4530C0C4C09998C761C38410E236
:101C2000F3F59820172C3F160A81F9E0012CFBA050
:101C300007B18006B3C80F7FBFB8B0201CD00378AF
:101C400069CB30075CB583ED5CE87103FC3D5E98C1
:101C5000940B90F3BBF4DB985910F830B4FC3A5D68
:101C60001241F47E1C7E5FBB95F5A8FC841531F70C
:101C7000FCB6FFD802A6664F8BE5627F5A98607B60
:101C80009829FD30C8A0AB2634C802D07FB9A5047E
:101C9000C228E0BB0A58A50930CD3ECBDF2E735ACF
:101CA0009316FB4B8C104CB326C2ADF35ECF10B332
:101CB000C5E0F86305FFF6D75658C8FBFFE8FA778A
:101CC00017F7EB9502E524C2A9F3FC9579B59FF2CD
:101CD00032EDDCD3CE02C625FC892C9D1069800430
:101CE00062EEE698FA288CA06093CECBC81A2CD36B
:101CF000A37BDD3FADCAF20FC2C5FFA0B9191BA07F
:101D0000E5DD8F97B551817319D36E7BA0FD04DF9C
:101D1000E08AB63CDE44F32A3CBADCD3F3E060D37D
:101D20002F1617F629F6321A7ECCB8BFCC885FDCA6
:101D3000B61040550470B52635FB2902552401BA6A
:101D40001E01D7B6D8FB3FF7099BAE19C8FB8565C6
:101D5000FE40FAD7EDAFF710206AC405AFD8CFBA6E
:101D6000A12259D5AD81D0FE859F02B84019D099E6
:101D7000B8FCCDFE5BA8FCC57C19FDB1371FECD4C7
:101D8000408095BF4098DCCBD0FF1F2FF7EF209904
:101D9000F36BDC0213FACBCB3B3F97FEFDADE910B2
:101DA000D43C046B68F30208C57ED12D80B7EDA149
:101DB00004D55A08E1E03528FAE7949EA1AEB9842B
:101DC000821123B23631332F124AD7548D93BDBDC1
:101DD000020D09D5C99E0FC0FB002375B4B922D8E6
:101DE0000A3CD828400CF0D134805057C69AB12410
:101DF00024B309F9DBB0C20610B7A241816FF30129
:101E0000402DA671620D30F8F80821501AA0C44A7E
:101E10006142A1686915A0A781D4CE48B09032C4B0
:101E20007DA70CE4044032E5DC46A544ED8C84C17A
:101E30003FC5881C0F540448FF46C5A22EF8F52460
:101E400002BF987C9FA659089710E32355F384B1ED
:101E50009B300D58FB9CB7A411E3015840ADC6CF91
:101E6000F210C57FCAA046C7CE8F1004822B7E9D7C
:101E7000C5D231F91BFA79779FCB834013EBCB178F
:101E8000DA84EBFE531E1F33FFD45701EE6517E6CD
:101E90001BCAACF20480DCACBEB2BE8C67C35D353D
:101EA000E6B0B4FB0ECFC21567028F6BA5B8F9631D
:101EB00085BFE6DBA57AE62325E63C57365A38F996
:101EC0007889B7E6C87EEC43EC8E440CDD2A90B3EB
:101ED000FC0C4F5836CCDD8408BF91667C9072DADA
:101EE00060FE7A4B81C63EE2CF596940A669EB108D
:101EF000F8C81998DCEDDCF6CD3308D6B9047FF6C6
:101F0000FD48FD39FB83023BD6561033FDBF61F817
:101F100075E48B18B450FFBD012438B7FD1444ABF1
:101F20001162FE0AB1108FB75A0348FD61417DBFAF
:101F3000D97F4B2141C8B69796B950769862FF6E0B
:101F4000F548117D50AE80335119D2E0FBAB65AD41
:101F5000BC80BEFB30ACD39E730C185912F8C2077C
:101F6000A3C63C90DBCC5457FB58F0FE1931D4FE8D
:101F70005976088BE98016F3981DEBA0136C8BC87B
:101F8000FE7FEC41FF31627EECF090FBDED9C310A6
:101F9000ABC6083C6F58D3B38E40FF67ACE4026B0E
:101FA000AFF05EE320AD678D4EDCFC99E6EF79BDC6
:101FB0009EEC634D95FF201FB5C067969E12A84BFF
:101FC000F6405F3128AFDB7A011AB702D33BC1D8A4
:101FD000FD3BED0FD45908D8639F308E02F3F376A2
:101FE0002AD0FBDF2F2E2DB835753FB82C64612C1D
:101FF000084476D8ED0184100E9EFCB32CCAB34180
:10200000F625BE1812EB6B0885D1D50DD8F2048ADF
:10201000AE66020029FD0C15D40F2266C638FA7E82
:102020000979FD3014089E9C0AD86080C45B011BAE
:102030000610C0601A9B41F70DCC33CF23EEDE862D
:10204000EDDE03868ED53219A972DB0C9B2150F987
:102050008994A154F302452018D6118F0102F04053
:102060002010044ACE593890FEAEA041B67C102212
:102070000487DB38BB20B0BEC00CC168E4F80C019B
:10208000A14DB8F891F2BE96F14BD85B8344B30FE3
:10209000B310FB69407856A3E7192777CB200E04CD
:1020A0000960FFE266513D08611997BD3F67F5BEC3
:1020B000E5B9F4D6DDBD04B6442FFCFB8E9806A02E
:1020C000FEACFF840ACEE5EC2084BAEAC95CF8C411
:1020D00091625E94718E845E047ADB0153517D6857
:1020E000FE62FADDB3020D9FC5F3CA9C575DCF7F38
:1020F000F61330FD5F17AFDFC4F6087ECBF2E83889
:1021000019BECBCE6B45A8FC4DE3CFB25A8A88B03E
:102110001A04449889648B9337DAB0FA36FC282481
:10212000E3628BEC40BDCDA06FE5E6E48BF3642C5D
:10213000B2FA48C5BC4EF3EB334C5F7DFF98B1F863
:10214000A3351ACA3AEB358C91A396F87DF1493E36
:1021500067ED947DCB9EB2660B50C62B9D4B59FD0F
:1021600060BF1A82ADBA0151BE02D889BFBEEECBA4
:10217000101131F3995FFDDB28FC18C0FE58E8FE12
:1021800081B0D9B0FBC6D6FEB2B130AEB7B2CB4F3C
:102190002BFEF9E8FA8051EF6DAA481A58B5348839
:1021A00010D0170D7ADB0D89FFCF14819D22E01826
:1021B00048BA11D067C2081124059F22C604C8FD81
:1021C000807849B0E09B262D74C1CA5FF1C0F4A1AC
:1021D000A94E56C8F9E04BB3B05FCFBD0FFD3C80B0
:1021E000074CA68482E5FB0C02F39EB539039007E9
:1021F000C0811C837A0C0CE4FB1ECFF058C684010E
:10220000300770FEBDA0668479D638262489061A68
:1022100022803C0FC6C413B3B06501F6440211130B
:102220004E67F5116B21403D6FB00898FCCACDC6D2
:10223000C07603AAE20195AF1892BCDE8CB3475872
:10224000610242DA8440D3FD856AC03CCD18028B1E
:10225000501F0A800592F220C8FE60E66F2670F1DA
:102260009DAF4E19880134BE7F32580C0893192C4B
:10227000909F055006C8037928F5D39390801903E1
:10228000814809EDE0013C7BB1066DFA7F04D31A69
:102290008E6451660CD6896EA40286D3E860DFF2A4
:1022A000F9187C846619DAECF8AFB3225AB32077B8
:1022B0001C281872AF4C21D32CFDFE7CFC0524C4D5
:1022C000145A0D136AB3B34818EB0403205F1F2997
:1022D0003042B0FC6BE770A9194564826BE798F94E
:1022E000409E66D610168C2C7308BB66FA4DB488D7
:1022F000EEDA0A09BD98019EA2CF11ECFACBE34DAC
:10230000F79AC0667539BF9EFC3D6EEC6C66B58071
:10231000DC1E41129FD352FCF093D8CCDFC998DE6B
:102320003C67765B44BEB993D31CF6707BB3200642
:1023300047F37B980B849D81C3E8FDEBD8C04EE446
:10234000958810B44482B8401C2B11F98302D23214
:1023500002AD8201A1BD2266063A8C4308F598447D
:10236000CDD15BF8A76FEB425266243C22DBD698B6
:102370000C25BB2F04F4905A93E5277B5E20142E86
:1023800069FF32040201DA79F8AD19027BB10CB2AF
:10239000807D98246720B4606E2D101B70E5189C1A
:1023A000363C9007F7C612C083FB980C10EFA8FAD2
:1023B000045966409B5B628666EAE21822A9B3FE76
:1023C000BF06C10D14A79398F379FC6819A304E024
:1023D000FDA520C31240779E98B367FBE6A0851940
:1023E00033BB081AFB68B802B31C26C0C6096BE0F1
:1023F000983488F9E346BE8A198C2E633723F39804
:102400003DB280AD11D7331217309698880A6B13FE
:1024100050B549AF93409822883559B3B9E42CA000
:1024200074FFDF6D2BFA91E377DB0C58FAF930F08B
:102430005E2B77DF7FEB9820FC98588E8FF8CCC00E
:10244000013D0B9E471C08837068E06047BDAB16DA
:102450002EF6F29861E960FA5205A7D0FF14A9930D
:10246000A7D1C006DDFE98623FCC4F02C110C84420
:10247000FA02010B082052D3B059483E08A2EF617E
:102480009890307528F904D8BC168FF97FB67BFD7B
:10249000C0187F8B98D311FE3208306BBAC48130DC
:1024A000C702F10C810930BC004004144B61BE32FC
:1024B000771A02B0A51907AAA7273004BD9001B565
:1024C000F4F0982C47DA98803CFBECB93018FA20ED
:1024D0000FE0412CDEE08012FE573060B29870FEB3
:1024E000A4EE8640D3EFACED17C18C7B988081A31E
:1024F0003046BB376239E08401572DC7FD9801E1B2
:102500001090F95009B3DAEA18F8E5A36AD318F77E
:10251000980530A2F11602141A7F23682140A00109
:1025200077D6ECF5B22324EAAE053BD1AFB1F3D2B6
:10253000F3C8283DEAA206508C7A98A0BB64067FB7
:10254000A49828E197B3BD73034940773E304434E3
:10255000049CF9CBC81E1401592CB663D59A41E7E7
:1025600098F21040B89FCBE2A8F53C88A6CAE3C019
:10257000DB298E26F400E0DD8688C63023F7CC6B9D
:10258000C9070477AE98787DF3308007C04091ED9D
:1025900098B8FD9666B810BC1C42B1995F2F98CED2
:1025A00090A2EB140251C0E47ECC08BF92485CA21A
:1025B0005E98FB0901128BFE46DC0219FE1930E51C
:1025C00080F480A0FF58982C97FA32903002FAFBE2
:1025D000C8C857446FE40A0630D41437215172300A
:1025E000123E29FCD72F58F7980B6480C00C90B589
:1025F00091F0984C47D598019DA832407A9859EEB1
:102600004D233C19F2723002FE1D308338FAA94284
:1026100091CD3006A08CF998DBE67F2D3022759E97
:10262000C25E98D10152667794F1F969DB3F244E7E
:1026300072300208A1893318F1982EEB3091A69ED2
:10264000301023404256C3BDAF26C08808AF0F30BC
:10265000B1E8FAA045C8E7D2A1198534E7308A4429
:10266000226FE6987E75C806D2C29D4BBF7F409F01
:10267000B0F8508802490D7B988289F7301140FFED
:10268000FAD2C0CBD62E20108CB658FF5BE4FEE702
:1026900001DB8F031E76F3D8FF60F3F77C8BC82035
:1026A0005FCCD80E80AFA9984026071680B3C878B3
:1026B0005E70D14138EDAF2B30E4DD7E88FF04A899
:1026C000D9A16AC3F39F80685142921062FC30C462
:1026D0003281C60208B421E50034D968EB480810FD
:1026E000DF988005310A72DAFD041B54E6C80280C7
:1026F00066BBFB324C04103B6657E020E4C82A441A
:10270000F08B2B8BDB953011F73236E680FE80198B
:102710001BE6C88801DCD806C0B70030F72D900151
:102720003264C88426B83DE3C64F2E98701610D880
:10273000F9EE4132DAB2C88C666B39C80602394606
:1027400066FD7C5E98771730F572B9FAC630E519E8
:102750009EC8300406FCB1036CF0C820C146354465
:102760001ABA5142F38B95ED48C93022793D6C304D
:1027700042487517BF9198947130F9C87EB6AC88FD
:10278000207F253040E47B988A04AC10BBC8379B7F
:10279000C2723083FC8BC811DAF4FF75FEB69BD091
:1027A000E5E58AF5FE650DAF1BA3F57FB8F40B5088
:1027B0004EB617CDC80430D706A4371EC06E876248
:1027C000C47930415C309330E03D702ED35D840697
:1027D0009BC883F8307683A8FD526680E799104045
:1027E00042811A0346F32466AE102F304FF345B8EA
:1027F0001240012B68BF178848080228764DC8E3AD
:102800009BB119BEAEAF01E1CAB39102B3EC814BEB
:102810009A300920716E111302D3B53021BB229773
:1028200030097D327B5021FB68196BE098965DC8BA
:10283000EA98D00B66E25C5D621C30AE806B3016AD
:10284000C025C8DDB73730034A67C83D08B4F8363D
:10285000B3CDC808C737AE6601D3A216E230E58A09
:102860006013CEF302016D91C8CEF3B1F8D0DADC7B
:1028700019573B8D983E132BC7824C8FFE7830B092
:10288000A04608FE90100368693B01B326DAC048F1
:10289000E6C80946F3BDFACF50DB080266C886FFDA
:1028A00024983C0D1D8804887F7F02825E6B954AC8
:1028B00036EE988081043A2CD3FEC8482409A20140
:1028C000046C84FF83197F089C8F19310C23FFFC53
:1028D00098D49A0375EC04CDF2B0FCFBE3B740E06A
:1028E000302EE5301EE5B3A6CF71B6CEED06F080F2
:1028F000BD987836DDC09BBE6D98C8111870FA4F30
:102900006FED8240079A285B4AB441F5984C7D05EB
:102910009E68F904022206C04D5A18174021AE28BD
:102920003F7DAE63E63009203F60FB047932E36609
:10293000DF10B508F198F93BDE821111F54A3165D7
:102940009CA7A9984CC62146C7BCCAFC050212E840
:10295000FC601764C83699C82DF37C98E7F3E081D2
:102960000C6205199BC8305F2298D3F3E2B3C85AB2
:1029700045D3ED6B40F9A79AC0F130EB5AA0512E28
:10298000C9679168C3DF7F778D98FA84A6917566D1
:10299000D92E4DF340FAA71ADCFC7FEB060110C3D9
:1029A000985D04E48BE0B320F930B05AF8BB14DF33
:1029B00098844CA089008C42FF1098CEFF8029207B
:1029C0002278FA5ED27737308210FDD7BF0D30DD26
:1029D0000D19F3FDFEF1111681120B785F4C98343E
:1029E000B1502590C8A722F38994DA1088E52EBF4C
:1029F000C0956BE6B52FE598E49CFC67711AEECAAA
:102A000048FBC0B85DEF3FFC8F30DD1CA0DC30AF71
:102A100060338BFC987E8B81308007F1FE7C3040E8
:102A20000FC40131DDB9C0E99878D3E7E00110ECBB
:102A3000FDA0BF09D7B2909D73FD751042FE98D9D5
:102A4000410C1E986E48F128083040C9C07C308483
:102A5000012620F39183F58320FF02440C8001219D
:102A60002292B6F936D100B3FF7198230124EE0209
:102A7000EB7563377DEE280242F198935D1706806F
:102A8000360642ECF2C8620C8CD53F12B0FC5ED226
:102A9000241243B95319086FC330460B46A3BF7DB8
:102AA0006EABFB68802C9005FD981A5E9826F30C9F
:102AB000B0ECCCC878C66405E898F86FF3D24EA3A2
:102AC000B2267E5730408B8BF555B350A9B378852D
:102AD000B42CF0980B951010C7507B986210B90C6D
:102AE000F36985F9050462B3DC195341E08004C041
:102AF0001360B78CD3827D197FA38196B424F1989B
:102B0000E6FDA185A02006C0767E13B32481F55191
:102B1000301220B6E330FF679FB3E4764269C64CBB
:102B2000777ADEB8FB20DBDA6F595801C6F371A45F
:102B300098B56730D390FF18243BFF98FF240A8C88
:102B4000667139D888FBC3357B02892DEBF8BC4B05
:102B5000F3A0278CDA5F57FF809AB519D3FF7F68FF
:102B6000516ABE6E3779D1886915B824262417C4F6
:102B7000D8FE608FF5CCF77F19467F046599F2EB9C
:102B80006680559EC088FB9860FA6187CD8378186F
:102B90008A36E780FE179FB4D7FBE5479AE75FCCFC
:102BA0006157DB048C25B8815621EBACE00B56193C
:102BB000222A077EE8EE2866CBCA952EF41603E299
:102BC0007FD8A0C79B7EB409E8F9F566991FFEA1DE
:102BD00067F9DF94A85BF622EF21CAF31BFA804D58
:102BE000F4044116E8C0871E400480B5E847CF4092
:102BF0006226B8C43A49B880B2B4F656CD5C976E36
:102C0000AED07B7D08E00214FD0D404CA205803A59
:102C10000660BB0A4885210188A71705D680419028
:102C200050B78F2F20050814E77EE006A01260D26F
:102C3000014CA7A8BFCC449314E46A02B906AF09BB
:102C4000718B2EBB086C85B902EFD34E404EDC145D
:102C5000DE01621E5E408D84C1F230100386303981
:102C6000D19D6073FC028A7D028F9AFFF6C7111313
:102C70007F1BB8AEFDFE73810696BC6F68A72085EA
:102C8000CF3BBEEC959FDE2602C61210250236E62B
:102C9000C1FE86C86F9B56F1BA9E7266AC3F09AC06
:102CA000ED8928FFBEF2DCACC7BCE8C63FF2C8B372
:102CB000FACC8E7F4C52F357FE4BE561FE9AE261EF
:102CC000D6F64430FF698899DBA2101531194D6C96
:102CD000C7A8FA63D6EB0624CFB1109FECB5E8FD88
:102CE000D3D61CD253EBC73BEFF6F3985D5B6EF97E
:102CF000181E51FBD611166CE688F8E3423FAC2251
:102D000027E177C5B3FB05F1DB8480BA997F4AB52B
:102D1000115811FAF75875F90AB8A6DA21FC99EF9B
:102D20008B128018D50C8092E9B3903DFEDCBDFD7E
:102D3000B54046FB080DFFA9F8B905849C76B24062
:102D4000FC1BCC6CC598FA32317D5FED5918FF8CB5
:102D50008F7FCC927C586C66FF64D6C6F87ECE2DF1
:102D600082652CE8FACC9DE6C13EFF67EDD9AFEC59
:102D7000427063F6CC1030B7B21256DC20434D8857
:102D8000FE4655EBC5041F58B340D7FBA5D8FB4002
:102D90000BBE37CE6D9701049BF090FA438F7FDE18
:102DA000A8A08961A6F69078FB7FD85555A6ABFF01
:102DB000787B0558F962DF811D8F96ADACBA04BFF0
:102DC000765C98FE08204E36B844E68F37A490C44F
:102DD000A482CB010A10C8388169E0FEA720469F73
:102DE0006E502EF35C80207B103C73D91A21446A0C
:102DF0008AD60144512EEFE07860FF7A0301A6A045
:102E00005CF35366DA20283B48C86001BD2D05B34A
:102E10002854B4608A348E82F6E70A40811A0C8006
:102E2000C5A036FE069000182002080161C3B8F95B
:102E3000009FCB7E4011060A060C48BEC2790441B1
:102E4000CFF82D7230A4093D0720579C6681348746
:102E5000FFC29118021020C544E1110103266C1431
:102E60001070B760187081503D0AC0FC809BC3F79A
:102E70004B11460C33E80004EC43C88451BFCCC866
:102E8000B5FA63B9020421BFEC2EF2140297EE47A3
:102E9000F419C8FADBDA41207EC882F3C6FECC5CA6
:102EA000C6CADA98F9AD7D05FCBDC2CEA20EC13D01
:102EB0007EB404D83CFCD7D800FFA94A08B9104614
:102EC000508DF418FA8B287701D8C6BBBC0962066E
:102ED0005B9BE36DE1D7184E256E61BC4036D16334
:102EE00068D8F90A55DB2B606CD8D980977636D034
:102EF000FF35BB6B1012E231D8A829B0216FB6297B
:102F0000EB65102DB301B014801D3B338889BB31B4
:102F1000C84379EC08DB38FE2FE61030B2C74768AB
:102F20005A48204462BFD928FC998E018FEE87044D
:102F3000DC5ECFDAB9EBFE097E3DDC8B43BD2CB500
:102F40004D8CC880F8C365FF029FED1538FD8D6676
:102F50000A80C44C1A67BB893CF98DCC96980C8BBF
:102F6000F382FFA10CC7A80567F7B91014818890F8
:102F7000CE441AF6481004A054A683D05AFE4091BD
:102F800060200180118CA6BCD87B0C41A266CC9637
:102F900096184247C04DF3A96023F40197F6FE321C
:102FA000068EF7F5E50FEAF33153FB83F38281B325
:102FB00030C40835D1E0C1B313C0FF302049B31C81
:102FC000F89D7A79C2011EE266B526F6C80D01E3C6
:102FD000B394A903EE31933099FF329D06E080420D
:102FE00033606044C405A731E0821A21CE2360B368
:102FF000A00185CEB3E25493D84896F2029FE0CB6D
:103000008084CB3966488028BD15585F819241FD88
:10301000E090BE2434212059AD04EEABE8FA5ADD2D
:1030200007FF7F030872F3F4924303F02F64013C1F
:1030300067F71701203DE030400679F90CF3E01006
:1030400081161EE0C08270DC0F09D9D0FB7F7F683B
:1030500066785CC0F382623AF64C664440BF78E41E
:103060008C63AE89E80B0403F3F534FDB7DF7FD73B
:103070008F346016C2FBB90BA681B3B0D3B485A15F
:1030800046ADC038E298151109E0F3F79B8BB34CBD
:10309000BDF8F069E9E5121965755EFCF7C44DA04D
:1030A00067F374A801CD040832227F0548027F4FE0
:1030B000A6B31042405FEC3C6A85140A2BFD19ED63
:1030C0002D809A0032FF86BED7D29820FADBFBEC27
:1030D00008035FED44C8FC5B6E18048DCCFDA8832B
:1030E0004DF380019FDE98C401289AC0401CFB82EA
:1030F000BD1E3033F8E0C68079B337A370FF7D3F43
:10310000B72D608CD4C222B3D98105FE9937061041
:103110007EA61A94FB24F1D7B02079B1104523196B
:103120005E8B13215AB5FEE5161898CAAF0A2FBF59
:1031300031980DB997664476B4651420A877A54BED
:10314000900DC32AFC06BB98E6CC3034D3F67F0F33
:10315000DCA9D7C081EC2F68F1672394407423B8B1
:1031600006838F23F7980EC8037AE60C68CAFAAA7A
:1031700059E3FC5C5ACA7FD880979F98C181036D40
:10318000CA720822606F6F8179FDEB645F5B980CF7
:10319000A9CC13C910B2814D0ACF183FC1A8F45C65
:1031A0008BB097DD52F0B1E6A070FA9F018C7DBF25
:1031B0002E984F308AFA2D840167B818A38804C668
:1031C000328094D348FC7F8198E78B4410F40D80C3
:1031D000DD1104A615112DFF208D687CA5CBF2987A
:1031E0003DFF1920EDD8FC607BB1046E19BC305B4B
:1031F00076F3E04178ABCDCC28D3E10AD3193FB3C5
:10320000CF98E250FC7A01EE0260FE5ABB16B6D5AA
:103210008C04CA81232EA6B3C6F9310538E326D023
:103220001598EBB20495B305EE985808A28FE7EE17
:1032300084FA8403238D304E46EA89F39863F0279D
:10324000FB119020B9300447E0F115FE9871EF2191
:10325000F6084506EEFAE081E3302BD498F0B0D7BB
:1032600001029898864A1FEDE230E53D10E783F8A9
:1032700098D129C4D971307A98FEFED97E045E981F
:10328000BFC0EBF9D698417F4D642228AAF0203BBD
:103290006FDB6718AF8C085AB306AD192CFF5FA31C
:1032A0005E98D99001F9D2017664866EF958F39848
:1032B0005FAF55D77243C3674CA108F918212FE3BC
:1032C000148D83DD5B401201042F0D9A6659C85F8F
:1032D0006A11133FEE0582E9013512F35A772E3059
:1032E0000DEEEFD8FF59CDF9656EA96EFFB614EB60
:1032F000F62BE5B9C6A36610036A96EF40F8E02303
:1033000019D1F27BDBA9AEE002A3C0E63F2EC8E5EF
:10331000CA20DE98266DC63CE6F31C80EF689888CC
:1033200041245E19B32E8CF5A24CB9CA0619D920D6
:1033300090FF7FE9040512C008CF1801B3022CB03A
:10334000346608F3E61A480BF121B8301EB2FD02CC
:1033500051CDC66BAB5430106A7D7ED9D6DCB2DA63
:1033600081047D32A6BA820411422CF8BBC8C998E8
:10337000DBE8BBFE494C66166BEB983C7FE52F0FF4
:1033800062DE9DFE32604120BD78805E98F278401A
:103390000B60D3F6F3C00387D30C0D20D928FA7A3B
:1033A000CD960266BF7F1DFAFC6DABF9C473AB719D
:1033B00066E02FD3683A0804D3FDED52E9F8B9F07E
:1033C000057FDBCC2EB30BD5AF499FF37F2D104B80
:1033D0004922BF7F0AAF2CD24011F35000A92384A9
:1033E0009B119698B87DDF90300D8DF4200AA79937
:1033F000EF448DB00928F2E9F382565EA410EE077F
:1034000030189502EEEEA5043412BA37FF71980118
:1034100080218BF4CD66CC46D178DD6F966BFEE4CF
:103420004666FCEABB314F08F198E75C7DDA28FD7F
:1034300071EBBEC54964723084237F5AEC12FE7E64
:1034400009D38E30CFC8100C88D741380E30F39096
:103450000391D3C012C6F8E5D9A07591CBF82C53CF
:10346000CCF9304CCB8085FB5F5ACF94AB190A98CE
:103470003016D0141AB34C5209B4A194F3195EB8A3
:10348000A6A2DE42FCDB4862EEF46901D146046E7E
:103490008A66C880D79730093D05084510427130CB
:1034A000A78598FB08321198F85FDBF71E7A982001
:1034B00006F040D7893093056ABB6DE798F1301765
:1034C00083B2980FE0D3EFB4ECF298F18B0DB3FD1B
:1034D0007D683064F13099D607FC30B402F7B40C43
:1034E00084806DE698ADC669F895FD7F4801B1B35B
:1034F000759165C8B9BBB9A8723046D15C01EB2C97
:103500008011C398AECE7122DA8C089BC6F8FE5E9D
:1035100016309FDA2CD62608EB2943F8BF8801F62F
:10352000215ED77DD756BD9806C040923DB3242179
:1035300030517A98507EE5400B642001BA1726542A
:10354000FA132B8D97BE72FFB2714CF883DBF581B5
:10355000089610B38726FB1B03607E7BC888A0FFFC
:10356000F9300471BDAAEA078FDDE75DC00108628A
:103570005C30DC07E43A937046F23C5FBB1E18688F
:10358000D3789EBD98315AFC6E384689A7667BC5B4
:103590008122CB5004E937F97F041275BBD0337B0D
:1035A00068A988DD0930DF8F184013625FFF4CDEA9
:1035B00012F9A399C054D180AF06DD59C2F5C4A455
:1035C000FC3967E52C7030876241A6089488026454
:1035D00012426E836520A264C1F098DBF860FA7E27
:1035E0006EB0106319E8019D56F020A78DE2DD3D15
:1035F0009BF532C630DE989A1811E000E099F3C0CE
:10360000030C157898B6F4E2300046EE353DDBE663
:1036100045F3309997AFFDCCEBD308955B84E7D8A1
:10362000F88E0B604ED12D79B3EB1998F3C88264F4
:103630008EB3F34130C8DB5D7E2230F404C1EEDD91
:103640004421E1980C4252E9B38C04B34872B39020
:10365000CBF7981604825E4B59F5C8B0119B2CCF5E
:103660009FCDE124880690DD020AEF4B8588213446
:103670009504A8ED988168A668C8D0B3C67C98CE9A
:1036800023192C4C9075B3DD96C8DFB56BEA2DFE7F
:10369000F9E3C046CADE9801B7A1980CEC8130DF8F
:1036A0002F972FB22E9819D0D270F3EDE40138770E
:1036B000D672030E845F011FFF047FDBEDF898B61E
:1036C000B8F7988C8811B3B07415BDB2108180C45E
:1036D000AF0899CC262CF3DD3442916E352368EA8D
:1036E000EE452EE11630D547AE9809F59802DE98E2
:1036F0007F2D30118D235AF88211F298FB52BC981D
:10370000BD9001BF429428882F5A36E910F8FB304B
:10371000A066FA9840D395C76896016BFFE041FB1D
:103720002880077040FD980BBF6427C836C002BFD1
:103730007021C8EB78FECCDF4BCC98DE0030DF8CFC
:10374000308F5A7808804FB503FD7FC8CBB31097F0
:10375000960128E08252D8D3B9303071399DEEE31A
:1037600040C224F301B3C8215A083A1E0B62CFC8E5
:1037700049B020DA88FDF23002DF9FE724024240A0
:1037800008B523E33034B5B83044295DFE5EE58DDD
:1037900005099D04E0904072300C73AF2085BDB8E0
:1037A000B3F9F830F5A90399EB52087E3DC3D2185E
:1037B0007FB6A50440B9AE7E53C8DB20FC7F1E3027
:1037C000E079EA2BB332AE44E630C241CFE530882F
:1037D0007F9F07C2D7201C1D30F5ABE878C00B8255
:1037E00030AFCE924061E8FDBC928B8EEC7FEE2D27
:1037F000300E3EDFCD08DF5E328010C00259C85E59
:1038000098E98009206E029119D317693711DAFB04
:10381000D10430C0B954C8B7C11B58104E4030B0A5
:103820007912DF616BFB3E4845DB09789890AA2846
:103830001137DC308014BB1711ECF8FB609CD1C849
:103840000328DE98B71EE53007A2BB90D7BF5468A7
:10385000010C88075EA57FA098E026113020EE2C91
:1038600030E6C8403CC5FCCAFD840CE519F7F99761
:103870007A2D7D80737BD86A5EBC8CFADF9710103E
:1038800069FC7DE2FAAF3B1E78FD5FDED958D47348
:10389000CC44C42FB36DF38011F7E308B502578E03
:1038A00085E33CC234E7108485B03CB2C002806C32
:1038B0002261D3F310D360FE019FB61924F32CB319
:1038C0002175FFFCFF20F71DF01DAF812385C22469
:1038D000F3CFFD322896D3678BF3660487FF89FE0A
:1038E0002063469371D18E36D3BAFD35FBCC2011BF
:1038F000598101E6EEFFADDBEAFC7DEC19A07D729B
:1039000062C434D546D3DBB265B78AB8FF9A5E9EEF
:10391000DC5101E444F362267BC7249EB1D36536B3
:103920001769FC093FCC9B98666060770FE3AACFCC
:103930005A59F202FD1A2C784FE5B959AF6C93FB36
:10394000127CE58C66F4FFC0BC7C6FC796C4107215
:10395000F6D8CFF34B1FFB2F7F16E12267BBE108A0
:1039600098F81D3284FD8B806619E3DF5FB15055F6
:10397000B380B87FB2BB56ACA03656EC10FF80C502
:103980002604184297DB4EB7270804092E9D9E4156
:1039900066DB7901FEF1DEB0FCF1B5105BFA041FC5
:1039A0006AA60279386EF510F01F4D104C081B0303
:1039B000C3E6208008E2FC35051AC60DB3880C0D5D
:1039C000A09F56A895D9E628AFB3602805109CA300
:1039D000D00418D3CE20A50D3072D61C98A1432157
:1039E000130DA3FE5A7A5E544B7646D25004D5FD91
:1039F0009771CBF93B88FEB3022E301827A0400800
:103A0000C60114F730040C41793735C70161EBACBE
:103A1000F916E1E1ED62FF65A3208E5F969D864F6A
:103A2000FAB1D8F98022E5A636A4ED28449BB69ECB
:103A30007FEB7A1051ED20DDFDE20402BE5361837D
:103A4000A0FA46E337C6543FEB311023D6E5FB77A7
:103A500019EAEB71403C088CC44BA0FD6CF8FA21CC
:103A60005880C098E1B317B54DB0B0F9A796EA18E1
:103A7000FF7D792B9E61B298CC66D59501961A622E
:103A8000DD8BB720583D808F5F64E69135F574B6C5
:103A9000A580A35B9F93BD40A0FE9FF7D7846F4690
:103AA000AC29E34AED4271E9B6ED2C5054C98109C5
:103AB000B09087367B0462AB80CF23138945A7F98A
:103AC00089E5E4C9E109826FE6B623E7C075F69A95
:103AD000E3B1A8DFED321110118308DB036C627EC5
:103AE0001DBD01E5FF615697CE582DD6F62B38FD4A
:103AF0006FD95745D9A60821F6FE33BD1F90FABEEF
:103B0000D8F65EFF67F83D4BFC13F599408FF999A5
:103B10002D3F808E045DCBA0AB15FA18F3EE09455E
:103B20006CAAB21598C60BB38C0674B26F410C5BCD
:103B30008A402CCEFB6C8BF33A63873771DE025ED2
:103B4000E2667D328747FFF45FDA9A029966A6B390
:103B50007F2D09095755048B07F81A6C0498FE3B12
:103B60005D6610A6529E840D2819FE8F58F7FFEC53
:103B70004440226CEB18FABEDB7601F9938C7A0D87
:103B800002D7F6DC207FF669B8FC7FADAD02CD3CF4
:103B9000CCF621534A02BBF8FC4DF5801089FAE5BA
:103BA000C08CD863D63008C563F6C88584AB620A7A
:103BB0003834599CCBA4203819D0B4E179D428F2F8
:103BC00009D12460A3FCAD4076888EDD750241D119
:103BD000E220B55E8620EDD10140F0653AA0D40424
:103BE000D28B08022DD7DD6284BCFA20BD065A12A2
:103BF00038BF410145D805153154A9435019EF0884
:103C00003505177C1088B3C72E676CA0A1F2504011
:103C10003CC14C8049FCEDA0C12440509CDF99423E
:103C200021F0E62520FF0572942894A2A01100F34C
:103C3000FD121AA0A90972C024D12F022FDD2EF87F
:103C4000A0BD911A92C049D4405ACAF85330069484
:103C5000C09C5002623F46688001F4042808FE8D33
:103C60006BF1E91B281E20AAF31E406E0E356E1460
:103C7000326D796CD8A340C6CF9719079260194668
:103C80004D47ECA38043ED87FA86DBF74882F6992F
:103C9000409FF32008011410305D821A77F978FDF7
:103CA000B1105E31A14E3DC8A60346717F93619865
:103CB0005CFD635C80B101AEB76A5B9640369048AC
:103CC000FF4F9907F9E1639B802C95D6C4B8F8C6DD
:103CD0000CD1F11971639D15EC98F80C601AF38200
:103CE00073EC173F3DEF6E5919FA4BE30824BEC73A
:103CF00075010867ACE280BD3115B55D4089FE6A8B
:103D000004CB765150F8202FE6EBBD89631AFF678C
:103D10006E3D288C66C0198CF572048B9C0A776DF9
:103D2000BA590258B3FBE72C07025BD78E40EDF07F
:103D300096DCEC8044F930D3BB2BECEFB63518FEA3
:103D4000C6CCC8C362355E0867BBD1FCA00123D3D3
:103D50005A0DFD14CD8904DB8ACEF3052108C41564
:103D6000A188FA8BD0E2074FB685FC348040DF1182
:103D700048F5A5D40CB3ECF88001EEB6BBD91BD640
:103D8000628D50C080A7FD5604403020BF0A99AD17
:103D900076EEFC8081427F0F608C306D06011B2027
:103DA0000702105EB360B3D22006F61042B49A3810
:103DB0008A015CB203E649D350B3B2091719212630
:103DC0005116FB58E4F349B1964F63F4C002A0C307
:103DD0007848245B3420D6EF53BFBE9DC0194530D0
:103DE000B1B2EE02022601F0AA762423D50DB00866
:103DF0003E46C24498083C015C2004683056C2FF2D
:103E0000619F50FDA8FDE001B73C27D48D0CA007B1
:103E100037F8163BF30B62803CB34ED3B007F00685
:103E20001EC00C789FE00C2C9001309B806F038E9D
:103E3000562E485930307E5CA510AE188BF551399E
:103E40004A06C040E0AF83955BF3A6E3534240FCD3
:103E5000ED801131D6F28C8362B30977BBFA02048C
:103E6000011307B3023FB32360100A819321D3B437
:103E7000480D12A6FF29BFCCFA5EF420C5DD24D779
:103E80005826C334FD900502FE5C8CA0CFF10ADDFC
:103E900077DEE2720E0D0C084E9220D0948313D080
:103EA00073D30CF846D66F632780B6377936B3DE06
:103EB000BE0641DF9964200CD04BADC2BCE5D5D025
:103EC000C8BFFFD6C5F099C8479EFAB818F684C295
:103ED00001CFEEC684013A3FE0A0782F4C9830E83D
:103EE000C1DCF680B30E816EFCE1EC170A0DD00444
:103EF000B0754910D3EE0818012358463CFFBEB3F5
:103F000088E0E7215298308102C7A6194047B3AB39
:103F1000208AC3982088AE6F66812CFC2FC056BEC5
:103F20005F198A6D83EBD36093E0A0BD41AC40BCC8
:103F300028EB7ECAD2FAE0010CD41969460F901022
:103F400048F31E6ECD9562882867E03305B0CDAD8D
:103F500078203DE01C8801F079D5DCB429B9ECFF6C
:103F60004724192C1F987FDCA8F3637AE9AD6066BB
:103F70006B01117CC18F6C2FE6E7B211FDFAA0082E
:103F8000472328BB42C0B8D5060899F3E1277659E4
:103F90000ACBF78481E7BCB3081D0930017CEC47EC
:103FA0008A72F35B66F8E5472E9E016DEA14043BC6
:103FB000FF25623F7FCEA340E00610E44368C7D3ED
:103FC00008C034909DD1B341A1FF9E666AFC60CCCD
:103FD000D6C00884DCB358D59E732D40302EC071F6
:103FE000CFBE657B809EB9B3ED270621A3F1078282
:103FF000B1013FC0CC067FE96210D038AF20A58266
:10400000B402DF7F490DFF806EA6BD10C2266A8113
:10401000D8498088B3747072E90B661A80C834B9C5
:1040200070825DB16BEFD098FD0480B63068CB84B0
:104030008CEE6DE00116B2244ABB06CA09914445D4
:10404000F7DCFF02207F0116C148ED980488793023
:10405000D89BFC533C5418681B0F958307C66D9C76
:10406000302CC9EEEF1768412EE0623D79109DC6F5
:104070000C90FC23B502FE8F18FC5B4971301FE3E6
:10408000CB2CC419CD7441FC3071D3FEA5812041E5
:104090000A18FE9717B9ADB304F6E3D4B3BA84FD9A
:1040A0003C2ABECCFB1EB95B16A7C2E7A36080EE1C
:1040B000089011EA84EDC743AFF7CCA0FDE6C8D065
:1040C000FE5E5381BB3BF3480A9DC38521309FCCE4
:1040D000CAA050FD7016D14218416AAF0D74C614C3
:1040E00088C62D63BDC3E8BFF9F64CC023DBCC08FE
:1040F000273641144F69F60473083DB3200C88FB42
:1041000089B2403D9878BFFDD698204F8A98A63F47
:10411000F22CC853B86402C2101E30037A11B37E69
:1041200067C19AB4030139C348FB968019BF52AFE7
:1041300040B407CAE83F8636C801731904814F5A54
:10414000C0801840C00B68958CC6CC2EC048DA8C55
:104150000BA71972191130A309DA85B3E0AAB3418C
:10416000E5C324197BDF3247B4F89D40D2E00280DA
:10417000BF76C18818FCCAAC90D6C83D9112E86AD7
:10418000980FF5CBF0B658C887F4326241CAFFB237
:104190004006C00319200F59C82B16C598F3FDB16E
:1041A0004A7AF935B6085AD78F3DFB9FCD08F5AC52
:1041B000C86AB39682ED47A8B88419ED16FCDABB3D
:1041C0000DCBD1F8BC96B308E7B3EAAF01FF58981E
:1041D0001087A94B099D22AF882698E08081B5AF52
:1041E000C0AC82B5BB6FB3A8FEE43010C0A011DD37
:1041F000280C97C8FA790582E15B248B209455B28C
:1042000024CCF0D042A6AF5E8C303D3470238D526A
:10421000136A25DA10F9AD8C184CF8DF3357FCE43B
:10422000DBC8E01902FD95062BBD08CDE516C4F8E4
:10423000BC30861EBD78024AEF10ED8F06FE98B2A4
:10424000423745526AD1BC89F8FCA688B00139FFD3
:104250002C11BFC8E77FA9FC04782C3B1AB8573A49
:1042600051B3810CE9BD49AB6F9653DB8BDA828980
:10427000EAE30A87B544341073B351036BCD7D383C
:10428000FB713021F52200BF434C48D620C7B2183D
:104290000977F6E0801123B74925AA28FD33E52CDC
:1042A000908601343802EB6AB3DFC0FBC930302698
:1042B0006BEA983CF1280C7FB598E241F64166AE76
:1042C0001D603FF0933001D3609340B0D3805B46D4
:1042D0006BDCB170FAB86FE3C9F69806C2D7E57225
:1042E000A993E6ECDABC6A58BF81945020E7B74046
:1042F0001BE619FEF8305BA333B38010968878B3C1
:1043000025A6AF7166FFA02FCEFEB48C485146445F
:104310007DE7AFD7031A7D7A98249D7D28200D0D67
:10432000EBB490A7FA3C45A40133C83D4AA04DC464
:1043300042D13BF7136902FF0A2687121AED452383
:10434000041B9D24FE13F2B43C99FC8D7E8D0ED689
:104350003304893910EB7885B77777DB78F940EE4D
:104360008F209DA360400CFBEDDEC020B8AF07B1ED
:104370007F5E2F30D37F61BD0131D7800783116A03
:10438000B30BC1FABC28198E38F0E546F38044D649
:10439000DF40209AC81131790E4A7C447353CF20F4
:1043A0005304B09FC017484050936AE3FA22F88044
:1043B00081B0008EBDA5407F8E71B2C028DF2CC8B1
:1043C000F5FF5134D4C0883F83600C1A50E67A88D8
:1043D000085E0D95EB3006928B30D19870AF1EF3CE
:1043E00098BA8EB85DBA41D72CC8FF1D98F505F074
:1043F000171967CE0EE03CA02616D3D0F119F30BA7
:10440000E0FA7F256A8006FECABB02D64140FC4B1B
:104410006796199AC126F5036C0C0343D86D9D224B
:10442000C6C9FF790EDDDE7AB34CEED61726EF2A29
:1044300008E0304333FD4B0947D972188B873CF3B2
:1044400030117EF7D00A018FB348F8A04447CEFE62
:104450007F28025DEBA4C730ABBD85CC98F5FF8803
:104460007A2A127E9549A360412D08188420EBDD3D
:104470009848236CE0E6F6A8FA4F2F4640F3C0CDEB
:104480004632C83B3819F3F5FFF06001E719703088
:10449000DA0C60EEECFCF1C69EB604E63008018C46
:1044A000D45BCB988B4AEB19F90E0378B3BB408BE6
:1044B000BB54FC84F37B77F0F8C704055B76BF0838
:1044C000CD98B8305A3579989EB394A0DED3F824AD
:1044D00002402269118C0DF1C0DD2AEF41A368F979
:1044E00042C49AFE9AB0D0E95558C230934DADF30C
:1044F00080C78FF23031DDBB0A6FF423E6AF80C096
:1045000052113AD31020757FC08848FB6D084FD7F1
:1045100008FE1D3096C8DE987F37300608F13088D7
:104520007E7F60EEC059629B1E2618F3C8A0C307A9
:10453000F1CA16C4F357E680ED3EFC73C8186BC988
:104540007D10B6D9C440BD2267F55F17D3E26484FD
:104550003FA817F4E2EBEE9790FA0550FA6F6EB3AE
:104560005C30EF025020E6300902CF5DB750E947DA
:1045700042D34F454E800922FD1146C18200056994
:10458000EF75E73ABCF820447412C0241A5A5EF55D
:104590007B94184077EBFF0D2C624BDF981652206E
:1045A00002403AD62441D0AF5D26D2807E720841C7
:1045B000D3AF895E98FD5B46BFBE9864E501793C48
:1045C0009D97BCAE9280D359BF724097303E11F395
:1045D0007B752DD97B09C923E0DD42198EFF2D554E
:1045E000BD84BF62620B676893B3E28604D001109A
:1045F000B40B38FC9845FB34BCC0B3DF70FBEBDE7A
:10460000D0C5D5DDDC7E6D9EC82C2008DD65106A26
:10461000F8773A63469048FDCC0ADF47F934912099
:10462000C040F3A38339BD7E7A9DFF57300A2B79B2
:10463000188569C0C6AED9C85C236FDB171855A9A9
:104640008CDD2673E909609F04CC20300146D7C079
:1046500022F03A6014DDCDD1D8FABF91984B66C8EC
:104660000CDF2FC8ED8E07E2BCD1D77966E8419CFC
:10467000CC0720D3C02D781016E066C8F109C80514
:1046800078AF6861FEB6F58404FEE52BF3DB988015
:10469000184EAD2EBF8549258C026A66779FA5FA14
:1046A000E761665D0121F3C1BEFCDBB51729EB4B69
:1046B000312BDF98B01016C00479B31B11EEE3085C
:1046C000D4B3EF63582402F998041060E02296CC2A
:1046D000401944EDD812647F61F9625E1C629B96BA
:1046E00063EEFFF8FB20D7F73F4079EA9CF367FDC4
:1046F000328DB0D380FE18243BFF98FF241A3393E9
:104700008CD17139FAB2F9D6CF0111AE7E1016AA4A
:104710002B21DBE0FA6CA3EAA04DB7D000F3CF3F2A
:1047200066CD2CFF6E0879A7B87AC8D328B30F36A8
:104730009AD2B8365136F333588C45C324CDF31B87
:10474000E6F1FC28060308BECCF369136CD398FA93
:10475000E4D040B5DF3311BDE80867AC0D88C1E790
:1047600019649889EFD878FFB643A8FF5ED8234C28
:10477000FFB580334E3F5AC896FE2817FA6320587B
:104780004690300DD8F88F1BC68309672C1601D2CE
:1047900007EBFE113687363E37C2F5B44089FE7509
:1047A00008D9A738B3F8814F3CC096C80431F293BA
:1047B000A1D5A80431F6205A8F97ECB8FC806BF78E
:1047C000B9FA9802DFF4AC12FA623DFD27DAC3842D
:1047D0001068738F8004E8100241EC977E0832B0B5
:1047E00090FE76DB70A9D83080093A6015C0DCBC39
:1047F0000A091AEEA30CC610FCC1A07914BBFF1C59
:1048000050100A41210005F2B0013458D99EB01B66
:1048100080F0190E58FE2E6160D7F41440A1D69096
:1048200012B0FA1908885D81A5A0269CB47E49C8FB
:1048300070FF8720C0C38101F1049941429A30730F
:1048400001813A88F90A33A7BF161068E0B1807F6A
:10485000219DD8C970C7B2157F7A18CBFA809C65A4
:10486000B808A80FD2AF445804C4BABEF5E010F996
:104870002F4CFB1004B6093FC3ACFE6FCCA06BB449
:10488000B122F45A402DFCD6B35856EC49604DAED7
:10489000406C84625A9065ABEAF82C2EEE23E2F667
:1048A0003169C066ED979859B70168F028FBA1CA35
:1048B000588010CA0A18CEF8786CCED915984619C7
:1048C0003A1A66EE3705CFFDA8E88A657B7D3A8403
:1048D0009AA565AFAF9032667979445B76467A3EA9
:1048E000FFB541ED91209251ECE0FC0ABF37F5D2C3
:1048F000B1586220DA71400D249FF6EE59198502F5
:104900002335CA377CDB966F31CE4FEF84111063AD
:10491000C98008B0850568B2FDFA68C333FF755ACF
:10492000D8E6B31508AF5B1702E485367F769F841F
:10493000FA1AF9EB1970FAE9D8A0FAD75818F2AFB9
:1049400050CC6CF1D8FEA31E0F5BFFB8FD1FCD4FFE
:1049500010897EFF80E347CB826D91F37BF9B340F2
:104960007CE5C7D656042EF3D898FDBF4B655A1880
:10497000D31514FE5790FFC22CA33329201FDFF458
:104980003808F36E017AF6FBC716B408E63110ACAE
:10499000FFD0796620623BCBBC2099E5EE3097FDD5
:1049A0004928FC845E0163BF0EB5806CED90FD303C
:1049B000F4B180BF8B21AC333EFD6CF978A5B30117
:1049C000865E415F6F6C4EDEC0FFBDA380F431BDDB
:1049D0000270E85626C25D1C6DFE661002812B77C0
:1049E000060460F85BCD6CBA79AB05E37E74010117
:1049F00002CB679279CC8488F870040122F8CB66E8
:104A0000E254FC5B0546B331E90AEF100A2089D570
:104A1000BA09E04003086C1405DFBD2EE3363CE123
:104A2000405112E2930805F7900322281B413D01F3
:104A3000E1D790F925C60ADEFB0CDE1018747891D8
:104A40009EB21B218053CE4D6521DE05CF46CA4064
:104A50004C849E032820B251461699639C0DEB3B73
:104A6000AFA8FC23C566B3853F8837C50201C9BB23
:104A700011E4CDB307FA85FF8C42DCBC65AC9B49E1
:104A8000422010FA83E5DB02DF41C3810825BCD652
:104A900004CD46F3AEC6A0FB30C4779B01629DFAFD
:104AA000B190D7526CF802618E8B176424F3DDF25B
:104AB00080EC60FD045760F4B1E59A0898CF4DB8DA
:104AC00091FC8BF20001CE371958C840AF7652984E
:104AD000FF79B79E58B504597902CBC1203854CF1D
:104AE00016B3C035BA420159A480A616EDE628FADD
:104AF000C64B6902947B2DC6CC257DFFF0B2FC8CA1
:104B00006C7F2FD2D36B2F2D819761A06ED5F8C407
:104B100073542263D93362BC55B1DC8D5AFC0498BE
:104B200086BA5108CE60F7A8F931A3D91E335D1BB0
:104B3000F158FF18F839168025A6AC3283EBB8FC83
:104B400020E6149E84769A2008AE2310188AF2E09C
:104B500031E62D39B0A4414107DE97D7D1443E3725
:104B600008010DA04976F378FCFE7B2DE2DB4310B3
:104B700004176F733010F39475E5C0DE879120CD74
:104B8000290166FE33FA3CF9B0A520AF61FA04763C
:104B9000ED6C18396841622B273C90CA062603DD6C
:104BA0000C527EBDE064F3C0817D0E8833E9F0F8DD
:104BB000F0303AEC50085BC1603B74024008F304EB
:104BC00009D8102287EF1C094DF903FD4CFFAADF1D
:104BD000D044F97921D3AF01937FC14640B9A019E0
:104BE0006072231899192848ADD360082D204162BE
:104BF0002A1926F84979A3607273D126C00B980848
:104C0000FD9320124080102565FCEA2E46915C033E
:104C1000796ABB24350C16F3B3FDE0D8012C881952
:104C20000907BBE61CC003E00F87F2F3B440D31EB4
:104C3000800C0F644CB448FDD777305BF379FCBF30
:104C4000ACF860573D723008061E41E07266066996
:104C50006D180C10820CBF683838B308B0DA2448DD
:104C600068012202A3FFC68728B802D30591FED3AC
:104C70000E30D3460F3015E5B301C5B3B7AAFCCC4F
:104C800094B3D5B387404CD2821102FE7D6BB180C4
:104C90002002DE98B76AECBB42B4F2F08B2EEC8EA9
:104CA000471DFC31CFF27715FEB89901B940C2F02B
:104CB0000A6103285DE478B5121AEF6B6B0DA0FB57
:104CC0006734FF8D4636A6D026F5731093EF99DE34
:104CD000208501BB0CFE1C77D5EE06DBB65B036FAF
:104CE00057AD8EB8FDF8FEBEAC76D8B220DD2CBD37
:104CF00028BBC064F7B75A89B8948907C7775DE9BC
:104D0000FE8440D8C439E9C003BB49C030F37FCD2D
:104D1000C4F30FDE81CCD1F9F536BBCBC198BC8B87
:104D2000D06C8DC3D0655A3766193CF4C376B57E16
:104D30000A054CC7C00250A6B30F093075F39104A1
:104D4000E5C19A0382F798AAFE04AE08DD91A1EDB1
:104D5000880108A79798F71C0463AE57107BA01A28
:104D600060D1E09EEBEE777C76677A01C00244CAA0
:104D70008010B35606884A7DD4235363BD9882C100
:104D8000FF60C00C88AF903498ED0424FF5C343988
:104D9000186B2ECF77FBBC07D0FAADEA04F4642B76
:104DA0003730F09DE0EF780C8005B232F3107E745E
:104DB0009F6201E5B7F9D88B1661FFD93D96036074
:104DC00040B2191C0551A7F66A8034FC65DE080361
:104DD000F831D202D711E905FC51CA39FAEF52F481
:104DE00042F522DFA064409436B301E2A6C503C4B5
:104DF000EAD3D3F628DEC40277EB3241E4CCBE938B
:104E00000EF3D660EB048C849F8BF0FEA05104C59A
:104E100080165E98B6034B1950DF5F5C9814AEF7AE
:104E2000FAA908AA7FBF4E20E939EE21C6C04B6D12
:104E3000047DE9735020E468F30C0DA045CC18BF45
:104E4000F8ECDCDDC7910864EFBD1A21DD88ABFF0B
:104E5000B65E66B9FF6F92CD73CEDD6A01DBE3AE5D
:104E6000E06E3006B23F2FE9D93830322AC0F3DD88
:104E7000A51AEE220CFB7A5EDD66BDFFEB8EF830E4
:104E8000CBD92459AE20AF647FF448FB20450422DF
:104E900046782A06C2C1F7BA64DF5E6BB225ACAFB2
:104EA000E7F4416EF1B2FF7B06146BBA9608277DDA
:104EB000FD8209050370FA733542A277E0926235EC
:104EC000F0989F88041361026DAFAE36710DAB761A
:104ED000FEDB137EADFF9193C926CF584B8D125246
:104EE000AB22B397E430316F48FEE041EC3CA005C3
:104EF0008F50982C19AE393F50D798203D66328D8F
:104F00000A0CDD7BEE97290F57500791D28FE7B639
:104F10006D0F7998723062BFD2D0DDFD80DB91A435
:104F2000612C196BE6984665EC16ACAEAD8B293852
:104F30003DE3B62B4FAF5389827CA0FD0311B0CB6C
:104F40000846C66D52FC2023146FE10335A5DD49E8
:104F50006A79D4A707DEB7915AB301B4B32818F61B
:104F60003D458091306CE3E5C29080C07998E719A7
:104F700093637B20097E9D2EEF338AFAEA3A777E8F
:104F800007547780FF224DD83608DA37B468FF35EA
:104F9000061184F31A400908D3A0C41016D2E4FF06
:104FA000C3088CB6F3FF7EFBA42651EBD198B3D493
:104FB0006676EE2BE7988C5A1A0881193DDD2001A0
:104FC00095C8D671BB193439C4F959E8B910B26E15
:104FD000EE74FB3C7DD26D7698FE0574CBAF686DA8
:104FE0002B03107320C09420F2C67680FCD749F9B9
:104FF000E2AB812E2F30B7D95C1958A9B54C7DF1A1
:105000009653EF1213DE4BED7686FEBEF65AD3AE04
:10501000F684525493BC01BD630A99FEA72936BB9E
:10502000A1EDA29F46C04440106301792CA3180E45
:1050300070DCFB3166FD1F761ADE8044A6848DB5D8
:105040008BF79810842226872641B8BF73FD6AFF2C
:10505000BD240707B046BDFF7F81F01EBBC028F509
:1050600016EFF1398612CAB4540193F405820D612A
:10507000B72F7CE3305ECD6E70F3D0DA5FFD640154
:105080000C08F8FD7471B4F0CBC86366F830D40E28
:1050900080665ECAF49606389A510DB9E5C730129B
:1050A000F69582986409FB7A2110D30296E262EAAF
:1050B000B398FF72124C0447DDF26BC2D4E76B8ADF
:1050C0000934E244BE46C0BF3ECDC082F51264D86A
:1050D0002811B002A0FDE3908085D04BDF0323C5EB
:1050E00098CBE50CE49819FA6EEEC3BA477AF8C487
:1050F00053A8BB3960470AB421F5F19465BB6E949F
:10510000817CD725A810063769152FC7C4CBF514A5
:105110007AFF3EC9C38801725C9B59B31137D57CB5
:1051200010A7B600C641840C70FAF2F32D2001924C
:105130008DEBFC988581F3E1D4D36EAEC9DDE789B0
:10514000AF594519BABBBF4068FAE7FFA2CDBC6BA7
:10515000581804CB8BB36420F6FC9304ED59C80DAA
:1051600097DBFB0255B380CF512AF9ABE9A784BE88
:10517000471186D7BB229FEAE40D327BF8408218A4
:10518000CCC792F3289EB4E6C0F884ED0CDBB94F8F
:10519000436FEE980498086DB30C9FA62AD8A3CE4F
:1051A000214FF8D7119AFB899002E812160487D094
:1051B000E0B519804FA18960218407049002A8B34B
:1051C000C824349F31BDB703F698801EB63087F7E8
:1051D00043A0044FB3CA233E404F544614CA1F593C
:1051E000D55C3046BC89E02C0CD774208F8BF30B38
:1051F0006481990CBDFFA64B66042BEB7FECF9AFE5
:10520000DC7F0E497FADA18AF4FF5B8866E844BF6E
:105210007F819060E35664B350B34B104F6C7913A9
:1052200062B3B3FBD1097ABB4A8FFB260FB33012AE
:10523000D34DB2390308AD4057FC10BC1E88041191
:1052400020DD52F8E29849ECDBC8098C73BB20677B
:105250007AF234EF78B2C6ABCABB2EE630FFEA3240
:10526000F964F05F672DD30751715004FA020910F9
:105270002801E730B600DCBFF8E866548CD9FE5C44
:105280003530E881724BDD11419D917FAA11B31930
:10529000FB2946FBFDB0978363B5CDD8FEF0B9A5D9
:1052A00007D31BEDF010D7D4C05BDF677A46C0E9A7
:1052B000CB50011975EE4EAA9BF398BF7FC06DCC01
:1052C000300621CEDD90C610025689A4A8F8F42D30
:1052D0008116C877237624FE98B6402757FA560DD4
:1052E000EBBB14BF765D3CB6F920796693DF84266C
:1052F00010088123D3670401B4A108AD23D7E329A3
:1053000053EAE80B626E66F418010324C169DF17E3
:1053100062A05F907346577BF7BAFF80097DFF64F8
:10532000C87961E06DA2802C16088C61B982651184
:10533000FD237B98304064F898FBFF1ED00318F4DF
:105340003FE7FB900ACA7FBED5578FB00FE0895D5B
:105350000D1C85C0784743200C327E068803580018
:105360000FB830BC986DE5297D9802641D66D7445E
:105370009CD3E75C3077A04B0557B09AE59BE0E9FA
:10538000AFDA2A2B664BFCFA54A9FBF185535B8CF0
:10539000368E6052B340F5B991DE4BD1404ACE36DD
:1053A00093201320B3E6260108E40B2A4F691192DB
:1053B00018F8A09C01AB1214EDC54202383D8CD503
:1053C0008E3930F18CF477CB320166FD63BF53BB6D
:1053D000A005FE981244FCCFC890A34218042742AF
:1053E0009B028DCDA2418E50FC302CEBEF3697E224
:1053F00073407648DC4BC0E1F6073713FBDE986557
:105400008019AE8339744CB8BBFFDC980641405319
:105410003962713325EA20D095CF73CE18DB0D7336
:10542000AB6937F51BFF8040F68C58B035BC0C03D8
:10543000190F0F8401093E56FD0804110516B96ABB
:105440000B289920F2EE77855EB3EAF7C549F79B02
:1054500037861153B67668924267FC132581809C8B
:1054600009C63AF8AE341827FE189B09624726266B
:105470000210DC5808AA6A069B0A4C80B37B7FF7AF
:10548000CF4BCE047962799866C80C6E5C817A87BE
:10549000489808A0E73080103137BBF866C8056D22
:1054A000F71E73C83CCAA007B0E33023DE988E1AFB
:1054B000823AE7E6532F0BA33D26FC98FCEBC8E0AD
:1054C00001F222B4D36719788E6201F73C2040FBC9
:1054D000F89896E9E3FAFFD9C0405EB85C305DF811
:1054E0007F2D100B8D01B27EFFA3E9F3B26499C644
:1054F00031FEF1328144F476ED5060CBB3088FB3C6
:10550000ED5711EB15214DEB10C40A2DC59BB301CE
:1055100041D0B340F702190186EB820931E57F1CC7
:10552000740F14E9F6A0284401BF7F3BE20809BDCF
:10553000253073B9B27D81A2017377DD4B9AFFD01C
:1055400030E4FB104961AA9F22B020B410409A11A8
:10555000CF417F8F0DA810360180F8459BFB73204B
:10556000FE93DF45BBECFE8109CFEBD6C42150A7EB
:1055700015F184DD0AA5FF461019EA7F307880A76F
:10558000D4FB70F9E0EB412CA02FC8F5F80FEAB07E
:10559000206EE10262E6783C889FE9F877A2BEC1FE
:1055A00077FC77DD5BFF700A38F17899765C8C5D6B
:1055B00077577CA75E18C988803EAFC8FDA805B3A1
:1055C0009EC0BF48AF5D3F95D29808DB91CB341C9D
:1055D000B3EE444811FF2A86DD46CAFF28ED34E0C9
:1055E0002044E0D292088BF29790882F7CC8F798DD
:1055F00016C418472AFB06300A097F7F0189F86024
:10560000040C8009CE7A19FCA4FAA3279019DBDFD9
:10561000889E81D926C082606CA07F120C84818014
:1056200020267782988461B25A77F340FF7B9807EF
:10563000F076AB6C3AA5202667C8401E81D078FD75
:10564000100FE4810C087FF0B04FCA480B2C63B3F5
:105650000D425DE899C8F48B26E0820FFCAFBB3B9E
:10566000989A230F60CEC8D0F965AC28E3FC165F8A
:10567000F44666F9C8AD0C522888B312B51558A285
:105680000228F4968CF4ED1006C016A303E04CB586
:10569000BBF49882983AACFE7A49102FB357C0A257
:1056A000DB87A5B3A250C9B302EE49EB449A44B3D9
:1056B000FD483230CE03B38313410C9FA0B30506DF
:1056C00080149518A5E75E733040F9018D93FFB300
:1056D0009403DDC410CF30E2AB40FF638DD3BCFB3D
:1056E0001770974A9DF7E6A871F3FF23E5804422DF
:1056F000ED21B3EAECEE28A0E02CE6D3F0F8031E8F
:1057000079FF980A5562C75D28ECEF28EEC5E601DF
:105710009AD6EC58FE28796618EE57AC377BF8E439
:10572000EE946E1C5E395B66B180136FCF376FB33A
:10573000A04CE7C9EACFB8BF76A9C0D20271E0E7B2
:10574000F39AFBB65AB9FA50C20B201175AB942BE1
:10575000C8E580FECC0FD807D7ED6BFE61DCF3F710
:10576000C668FB046E5179B1B944B0DE081416481E
:10577000BAF18058D031D4E0CCFA7D6ED399FB31A8
:10578000E27FB3F98D5A40D33732E0807B69D0FC99
:10579000F5886719CD6BF74072F333CBD2A104E0E3
:1057A000DDCE30B2F94CE950FF588646FF5AE4DEB0
:1057B000B8F8AA65117E45B1E19DF61AFF47799FB9
:1057C000713092DC4DF848FC9DEB82101D3580D67F
:1057D000B14010BECCCC76441068FB30C978D336CB
:1057E000CBA308195A9E2034E2B8FDF66111FF19C7
:1057F000D2790B67FE968296EAFAFFF5D68010DD25
:1058000024B601E6A227FDCD20011BD87D9EBE81D6
:10581000A227E8EB48FB7899B4DFF0D5EF209C4A4B
:105820008D7E5FC414B3889C7F99725FCE872008F9
:105830004DC190FE7A1D08B64690701974030C8B0A
:105840000F3480DE8852DD5A7766ABB3607B3A1541
:1058500030B34812A240DDFC744281845A3E9B1B47
:1058600008800C2F44FD00F31301222C1D4076E428
:10587000B334A190C1F5C637D425253F44669CB208
:105880005B6AF84B0130034118A0043FD0020506C3
:105890008A24A56AFFC3181503445329F8B30236B6
:1058A000A8FE31E98FA243183873168893F31B279B
:1058B000EBA7B7B18036091020BE930208CBE508EC
:1058C000108A78FB45F759A8859038EC858F0477C6
:1058D000FB9B75FD2088CC93094761079849E777C2
:1058E00084F0FC90E896B3504F32F3D2087A6DC939
:1058F000EDC3F988F5B9DA74158EFA0A08C47D3F4C
:10590000D880FEC2B5FF80A6D9EDFC517B5FA0FA1E
:10591000BC409959FAFDD163E62A7FE563501987A7
:105920008BFF4027BB8A58FF0A457FCAFE091595A1
:10593000C087B61009FFBAD2D8FFDF808C2851C0CB
:105940002464ED4A8BEE8340D98378BCFD8DCFEB88
:105950002F1B582510AB4490FF62062414F844B660
:105960005C53DAC018A0FA626B210873240A9DFF09
:1059700090FC40843A6FB580339D96A324E4E78879
:105980008104182C1910CFFF5821989756FEDBB7C9
:10599000FE7701CB586440DFF65AD0FE3DE66B142B
:1059A000FFC2F8FB61792EFBFF6425F310F3B77695
:1059B0007B48F8E6E9624918C2F29B5B19FA7AADB6
:1059C00040CCF59F08862DB318FA84CBD6101BFB6C
:1059D000ACFFAAE8B2FC7E21CF58E008965F77C101
:1059E0002F1BADF320F94D80DEF0F8EEB2107E53A0
:1059F000C6F79A0162E5EEAD9510FD843D7AB220BE
:105A000056180833ED4918FD896A8F08CE320F7A8F
:105A1000B1C65BB3A0FE3DBE02766CE801A52F8047
:105A20008B19BFAF5468FB12402D905BD210040855
:105A3000BC4F969908A0BA1E03B98029400920EFEF
:105A4000FC4E81BC028044406E3C7E524E65820515
:105A500009897DC42ED604F41D0144B30E12F3E768
:105A60004FE732E4F86905B00212BAE96DE5207B30
:105A7000DA1401DDDCC31928B505374E47B34038C9
:105A8000ECA2062321AEB381240C8188B4D321502B
:105A9000AB4042A7C16648FC201469049B0B280355
:105AA000F42105102C504F9E181006423FCAC00129
:105AB00004080C66FEE2802A67DE2A49495310E199
:105AC00008809610B2C89E89CD03E9E182318DFA33
:105AD0007FD14DDA3674100177C0AB629BDA68CCA7
