:100000000C94C0460C94DF460C94DF460C94DF46FB
:100010000C94DF460C94EA4A0C944A4B0C94AA4B7D
:100020000C94BD4B0C94DF460C941B4A0C94DF4699
:100030000C94DF460C94DF460C94DF460C94DF46AC
:100040000C94DF460C94DF460C94DF460C94DF469C
:100050000C94DF460C94DF460C94DF460C94DF468C
:100060000C94DF460C94DF460C94DF460C94DF467C
:100070000C94DF460C94DF460C94DF460C94DF466C
:100080000C94DF460C94DF460C94DF461B52395229
:100090004352465249524C524F5256529F54565513
:1000A000AD545655BB545655C954F254C954ED5429
:1000B0007F7F7F7F7F7F7F7F7F7F7F7F7F7F7F7F50
:1000C0007F7F7F7F7F7F7F7F7F7F7F7F7F7F7F7F40
:1000D0007F7F7F7F7F7F7F7F7F7F7F7F7F7F7F7F30
:1000E0007F7F7F7F7F7F7F7F7F7F7F7F7F7F7F7F20
:1000F0007F7F7F7F7F7F7F7F7F7F7F7F7F7F7F7F10
:100100007F7F7F7F7F7F7F7F7F7F7F7F7F7F7F7FFF
:100110007F7F7F7F7F7F7F7F7F7F7F7F7F7F7F7FEF
:100120007F7F7F7F7F7F7F7F7F7F7F7F7F7F7F7FDF
:100130007F7F7F7F7F7F7F7F7F7F7F7F7F7F7F7FCF
:100140007F7F7F7F08277F7F7F7F7F7F7F7F7F7F8E
:100150007F7F7F7F7F7F7F7F7F7F7F7F7F7F7F7FAF
:100160007F7F7F7F017F7F7F7F7F7F7F7F7F7F7F1D
:100170007F7F7F7F7F7F7F7F7F7F7F7F7F7F7F7F8F
:100180007F7F08157F7F072408057F7F7F7F7F7F24
:10019000080D070B07237F7F0713071B7A7F7F7FDD
:1001A0007F7F7F7F071C7F7F7F7F07147F7F7F7F1D
:1001B0007F7F7F7F7F7F7F7F7F7F7F7F7F7F7F7F4F
:1001C0007F7F7F7F7F7F7F7F7F7F070007047F7F29
:1001D0007F7F7F7F077F7F7F7F7F057F047F7F7F9C
:1001E0007F7F7F7F0F7F0E7F067F0D7F0C7F7F7F5E
:1001F0007F7F1F7F177F167F157F1C7F147F7F7F78
:100200007F7F007F277F1E7F257F1D7F247F7F7F4D
:100210007F7F187F207F217F267F227F237F7F7F24
:100220007F7F7F7F107F197F1A7F1B7F137F7F7FE8
:100230007F7F0818117F127F0A7F037F0B7F7F7FEC
:100240007F7F0810081F097F080F027F08197F7F32
:100250007F7F7F7F08027F7F081308117F7F7F7F6A
:10026000070C087F017F080B7F7F08077F7F7F7F58
:100270007F7F08077F7F7F7F7F7F7F7F07037F7F71
:100280007F7F047F7F7F1C7F1B7F7F7F7F7F7F7FC0
:10029000037F08100C7F247F237F137F7A7F7F7F6B
:1002A0007F7F0811147F081908200B7F7F7F7F7FD5
:1002B000FF1F627FC23C006088FFFF800890013210
:1002C0004006C8C60019FF03040A4414012341CFA5
:1002D000068AF320034431E610AC00D7FF0C10016E
:1002E000F122400408BB112002D3E022C688CF00CF
:1002F00098D364800C3FB988FB0014C0C30258FC3B
:100300000B60012C800430210AE60270F34098F360
:1003100005B01D16C0039CB3BD12D3E06EE0B95802
:10032000D33478F3E1E6D8FA30486CFF98FF1350E5
:10033000B320300480A0105A02B4ED8084FBC002C8
:1003400050830801D92004A6D1C8D302F64082E028
:10035000F394EC40F373E478FFB802F71C1096DBDB
:10036000E4C2D1A7033DBA4063E3687AF080F99014
:10037000B922DC68E9282101F3414CB518211E603F
:100380008185C456AD2083F968089C68FAA001FCF9
:10039000E012144202112A68255BE970FFCC254A5D
:1003A000C0B9CFB3100C08634B790229F96168F327
:1003B000E938FE6060074973107327C0FD3C804C2C
:1003C000121E08E8004004B0C40F3574FA1E04037E
:1003D000C033D630C6C00208EF0BBF80A48148FCF2
:1003E0006647EEE9845EC305CD38DD010CCC4019CB
:1003F000BEB1FF9249E1F699CF3041FBF68410116E
:1004000003ACE618FC9BA0CB45D34F407682C0518D
:1004100030DE460180012CB3B041160168228321F1
:1004200042017C28D7C644C22847CE032FC2F8C059
:1004300043EA7D1A30FA48270FF33CA0A207F06088
:1004400087200B160C71B57DECEE19C0027A7FFA8D
:10045000E0813C9004B0E42016D0583D032232E9FC
:10046000C8F8AD8F25FC7F20FD6688013008061195
:1004700050C9CB013016FE811001BECCF5C642E753
:100480009CFC52CB25FFED6F996CC18CF329C0B356
:10049000585F72AF04BD7EB336DE53F7E1E6CEF3AC
:1004A0004FC005F419583E1360427FF3093104220E
:1004B000C0089391C2A64C73B9C0FB2FBCF4294A63
:1004C000EE1B28446ED74120F798236081EF8D9072
:1004D00011FF7F440C48D30128F8F39F85FC342E8C
:1004E000D77C93424808280C1DA030235D04A576D4
:1004F000080FBD860268F869FBAF80243CF4BD019B
:10050000974685BA662ED39B26F4AB7F8E57B78469
:1005100062BC04CEDFCED3FB38C0B065B0FF103B69
:1005200043F040184FAFA24F9807D31ED0039D79D8
:10053000BFE001FE98EF9A0DA670F78B1CD1BD8627
:10054000813020DE6B16030805C9E0C69EC6950201
:1005500019FD52FA08EE990410090640420B7F1D5E
:1005600098EA84407538CFE3B0514E02A70AF8AE3E
:10057000B2B732E308E49D19402010C9D411C8195C
:1005800010D3DB93D4D0F113E7FA8051F445C0AF18
:1005900044BF8DAB34E832CF98190284AD1D04CA34
:1005A00008B3EEB387137F0785081222D72F5DBBF0
:1005B00009DA309041C6C4D28804668C1401EF1960
:1005C000B1FEF598F46CBDB5DD2519F0C8DE986B69
:1005D000FE0F284E0FFFF03DD6FCC756DD70EE49EA
:1005E00016C482F1238AF704F020167ECF0E0AFE8D
:1005F000A8A8FC537F25C4203BF00321C0666E06EB
:1006000001FDEC62FEB873B38AF580F9F6E6F38675
:10061000DFE592AEE4A0C697C2C6F1EACCC671F996
:10062000AFCDD715C0EEE223F259EDBE267AB8045D
:100630007D6912488485EF187C29D40973F8348FBA
:10064000FDFE08804530913EF518021340118B1CC9
:100650009443C0F377974BB65E05B0BE98C1028A4B
:100660002130B6E3E9F830BBE914738A7874BDEA47
:1006700083A5C02EBB3E6C04801202268248FE80F9
:100680005BEF0D9802DF1103E598CB7DFC5E37121E
:10069000DBB2CF383534DFF4BEEDB0B90199A6EB4B
:1006A0003FDD08E86CECDCD3F31443F89B90E8FCE6
:1006B000FC985BDE7998EA7B1E2D70B40077A7F07A
:1006C00031C8BAF7DBB1B6FA5CFCAC311D1C90FC4A
:1006D0007E79C6770A03600A02EE688358FBCCB4C1
:1006E000FDBE426DE324BC01B686657B48F5FFA3E1
:1006F000EF36E9B8707E62E1E0692ABD4630FC82DF
:10070000DB0A48C6F08BE5D0EFDEB8FF8441778B7B
:1007100098075542301AF772302CBE72FD6F8CB2BA
:10072000F5DF1EF60CBC39E78510F4C7C088233A04
:10073000AE153C02EE98848808BB172C77B6EBA860
:10074000F9DE9809AF8B98FD5E4D3003660CCF2122
:10075000BA7838037350E2AFFFEE02C2012C88056D
:10076000E1CC0016077095A0C6EA98E0CB35FC985E
:10077000EFADEFBB96CDD2854966FF32B508EBF001
:100780009D1956FA22E0F8B5FFD1D4EAA140D39DD5
:10079000E678EDC60302A6ADD2E87C98CC57B358F4
:1007A000CA72DF3987F3ECEBBD4D01A7B12EBBFB5D
:1007B0000BA501F0300424D07B1A4013F415D3DBD1
:1007C000982103FC98BECCD3C698900A79F32804EC
:1007D0000DF670C005C330FA85DF8011FF083A7945
:1007E000BE0773F85D8F95E7E1CC2E2610908365E8
:1007F0006F02018314C1241A5E98BB41FB431CFBAA
:100800005D3F01EE1400538D403930087867EF5C8E
:1008100024FAEFFE7502FDD20811E80603FE24CC8F
:10082000F398DBFF50FAFC98FFBFD929C811E00309
:100830001EC8A003601781BDDDAEFC3402DF7FF36C
:100840006E27CF0B33380207B903C0DF031AF2CC8F
:10085000C69419D019D30F88D3D8F96C679A016759
:10086000412466C9D0E6F00150F92CD75D183668EE
:1008700033F9E7EB4FFDDFBEFE04C106C06D4D103E
:10088000BADF68C684F5162440E5C7BBFAAF9645C3
:10089000A19E2EE88249B0DE8920468C6BBF346C65
:1008A00071D202BB1278F53BFF198448BE5F34CA8F
:1008B0008804A1D996F359C8A442C961D3AD82B9BD
:1008C00041FB8AC09671349E98AC03AFC8D72F40C5
:1008D0000D30FF0BAE7DDB24EAB607DFB3E12770F6
:1008E000EF5060E05AF0F5A583DD8177A098B0560F
:1008F000064BC8D3FA17BCE5EE0430D04AED00151C
:10090000FDDC1C01F37BB3E478DCE905F8FB4CEB80
:10091000FC0382FCC5EE3F03B7D801E5C811F31B09
:10092000CD44FD80FED2B2049EB3109808239BF9FB
:100930008109DD1792FF1AFE3EFF95BC2D308085A0
:10094000B4C09F00D318420B0915FF483FC640981A
:10095000020364020CEEEDB1A0F873C80A3ABD2C94
:100960000C12F607F7D725C8F8EF8E72ECA403AF88
:1009700022FE5DB47F9B11B1014F9DB308824815E3
:10098000CB8388F9301A09B7363050FDD9C82CEF1F
:10099000B2FFF3988936BBAEF471C3055488FB8768
:1009A000F3F10312D6CA40FBFE66733028F86D954A
:1009B000C8E2D2E02BFA17EE4B5D78B35CF7984CA7
:1009C0008DBEFBE5B482E3A101C05D08E9980C731C
:1009D0008061BA17FE4E301CD36240FE6D30E8FBDA
:1009E00073C850245BEEB589CCC810DBA8823D8C5F
:1009F00062FCF405002FFF746BBF0B24480480F1E8
:100A000006100212568E0FD30402B83041D7A3202D
:100A1000D8BFEF5AEEFD8045E2304AE223BFE550F1
:100A2000B02FA318CDC824AFBC31AAF1BA0D173925
:100A300037FDED0BF9A2322060FD2124A58D017058
:100A40003022F9EE5D3090DB17FD7CD7C8839A7CAD
:100A50007998AE6DC8083B5AFCDE5BEF0FF9B23BEC
:100A6000F403E0E08B8831FB4016D002585F2E98EB
:100A7000B2843830B2C8D7560283DEE5BBC0DB98FB
:100A800060107D7AAAB2B5034076DB8CFCAF8BE0B8
:100A9000C48B47259B6CC7C600D369CD3099FB79C1
:100AA000982B6902CD3B13B30AB344D718052D0325
:100AB0000879F4ECFAC7ED234004EED3CFF71FA07A
:100AC0000536FF8020D00412082360A324F3F930F8
:100AD00058DA2043F0301BFC4F6798884AC32881BE
:100AE000A18C1EF3AF187798106481E5E73DFB6A8F
:100AF000B1FC26CFABCBCCE32047566AF01A02E319
:100B000030F210040477F998FADAB724E23000EFF3
:100B1000C4DDFF605855FF74E59FBA3F301ACAE93B
:100B20003FB7113014B3C6A0FA6D90C8D6F7090FBD
:100B3000649D16EA987AF2982743C75EB9EDD3030D
:100B4000409265F8CEAB12BE38209EC6188803725C
:100B5000070FC48177855EBB1C22C8B9197880FA5B
:100B6000D730C851364001DE2A01DF88B88C199D84
:100B700074D6EBD7FE4BEE22C2FF3F69956841CC9D
:100B80003C4C2047852D8005E254F78B93FC80BBBD
:100B900089D39882B1132EB574FE064601CF941303
:100BA000DC9A8630EE7730B2B00539BE4ECDAC80DF
:100BB000C011B0BB16B4B0232F5FAA5E982BD3250B
:100BC000C885CB66D97F1998534ABFA764260730DA
:100BD00020F204C80312396E903CEFE1A29B6BB97E
:100BE0000A7255FF3A0E09E0413C8807AE01793D93
:100BF0008378100FF35E98DFF020ED980322DC92EB
:100C0000BFFE8F305DF020C9B730D6F7C040180462
:100C100065E82E66807536E3B90CE3E5ABC393EF68
:100C200066E010A106E7D34566D771795EA79C9868
:100C300089DF89FAEB98C447B32C800584B2B71CCE
:100C4000184A390AFC7F30AED3E517CA81353F1008
:100C500085F60803A001D33480B31848FD2369400A
:100C60008CA409FBF6F258201362DBE6B9A8FF5FFB
:100C700011FC118A107A2C48F020E1A7741821F693
:100C80000B64818CBF0FF7A6988202FBDDDC812B01
:100C90007DEE94F52440B6574BAF9802E530212500
:100CA000F378B3C7EAEDADE6E2FC557F5FDE9E0B5D
:100CB000E0BF23EF74B6EB9120DF7F97359B4CA804
:100CC000FF40F3D58980AEFB5A3D90F0308AD4FFC7
:100CD000341DF5980EAEFDE3CCC37521CEA1E9FE1F
:100CE000CF7E2B813C080702B2A8BE7F12FB7FFC9F
:100CF0005E88C6729DAF68FC2417922B30908F30AF
:100D0000DD4080DDD53D0C08210DAA85883DA1FD83
:100D1000B1EB5FF32A5AB5B0802F6148C560CC575C
:100D200009FA5E40B827BA381B9F668431300845FF
:100D3000CDC004EB0BDC30C08130C046C278AF368A
:100D4000BB96EFDCE1A9EFBF908A54A613C004164E
:100D50003173B501FACBF798024804771D30CD8383
:100D6000F8FC713D7A9820EF3F989F301007F08093
:100D700004FB880011200357666AC9537BF50EF8FF
:100D8000A7FD263C80075B29ADC49729F3F33040CB
:100D9000166FCD3070FDDEC55C6A6FC530E5989783
:100DA000207DBFABFF68D3BDAC5C20E4FE6601E0F4
:100DB000BBD7C1E5A344F4A7F5C6036982FFEF7171
:100DC000B378D263ED136481B3ED1361029EB30A6D
:100DD000217D05FF6258B0C7FDA0213082A6717D3C
:100DE000661101D727C8D302036BCC30A0FD998EC2
:100DF0000C24AB820A072A088501DC307F56484D57
:100E0000C8FB34CFAE4EEB320B73B3120EDFEE03E2
:100E1000F65FBF5B7EED7914B8301F113002DF281A
:100E2000F9E6A6CB79047E2F5D1998F330CC4D2CD2
:100E3000B2CBEEF0C4BC98D4DA8DB4B8305EC7F84B
:100E400044ECEBDB08F97230887B6D40024897E692
:100E5000F02FE0783FB3DB4BD1B3FB716CD7F02FB1
:100E6000D77F3AF7E1401CE130CDDEC081C6BB1E22
:100E7000C598FD7F45D0F86DCA3040516821F3C751
:100E800039F926CB60059A0FBCEEF2C7FFA1F50B2E
:100E900023113D7C0610048278E6BF6C8830E6B5ED
:100EA000D20A7B32E3F90A8174E145C047D10321BC
:100EB000BF07F3B4C2CACE22FA327ABB41A50110F1
:100EC0007DBBCC04202208DD3784C27A10936012E7
:100ED000F34BFC9893DC61C6C24FD2B9F8C0019DB8
:100EE0000C7FF4807A983874B0C80139A3F0B54CFF
:100EF000C5C82CAE0778F4B13E0390CBDE6D0ED1A1
:100F000001E86BE0A0CF78F3984E86B12BF83067FC
:100F10001981B9B8F87F9E98F0471CF350C0207132
:100F200023A753B51830A1E95104D05ED8FABCB557
:100F3000130840FDB9C1713D797819D339C881884A
:100F400031E61081FFEDB00584A8B36A8817F3B3CA
:100F5000F28F11BB90A002049EB3C9B302083260A5
:100F600077CC7A7F8405342116D008F45A480B6C6C
:100F7000E2AD893B2233C853864C070930E002F8C2
:100F8000FA31B2FF7BB308B163079FB340FEF403AD
:100F9000047E9BADF9E69AD3DB78FD9DE2C68271B3
:100FA000F3CFDDB0C3870A29F2B3F3EC6B020491EF
:100FB000C5B56730D338F918F3FFD8ACBF09BEFE0A
:100FC0002CBCC401C718D628FCCC7D66F1BF73B811
:100FD00064B4CEF6033839C0A8FCBB902D8B7BD807
:100FE000046AF3F609200124CE9098A1DFD358FCBF
:100FF000C4BD0F3FD3A0D857849CC1E8B4485DC698
:1010000010DBD4FF43CEFA48C51D43A8DB8FFDB1EA
:10101000F6F8F42723244609BBC640F96BF75F991D
:10102000B1E744FB9423327B666C7F829FCD32E034
:10103000B8BF9BE658FDBE01D8E203274F8531C8F3
:101040003F00D4DBCFE7357B21C6D344BFFEADC420
:101050004156D101F4EEF00640018CD957E842E93F
:10106000CF1998D342662CB33059FF02ABF0845CA1
:10107000EF8D90FB5E4402686149B0E1C2192BF02C
:1010800090BE08CAEAB1331ECFF235CB0896D8EF2E
:101090008316BB8D33CDF01B08D8F92C48FD518B3E
:1010A00004CA7DA4891B7064B41686C06FF668609C
:1010B000FF402104FD6E6A6159FFA88718FFCDBB70
:1010C0004B02BB20C0DFBCA958E8A7EEBF40F30924
:1010D000CD96BACCEDE41A4010BF9DC61090FDE548
:1010E000B4B230EF85B4DD66A120D4164BE0F53FF5
:1010F000C5EAD5F9816FF5E6926AF28E9EF8DF11A6
:10110000FA9C5A23F44098D61820C64BA085EA22B0
:10111000E30A1D4D28DAA19CB38060B5F13030CFD1
:10112000422F1270AB0514262B523C4040032483FF
:10113000C6D08BFE21857044E8841C1058216FA412
:1011400011868443D95A89C199C10929B12C1FDF5D
:10115000E098F97E606EBB05DF234130C002A13309
:101160002884C1800F30FC647D6B19B3BEE667F93B
:10117000859EE1D00281F745D7B477AB78FE8480B5
:10118000EF9588A4E6F4BF6947E91FE096E229B726
:1011900035F4475B08C8D0D7D4A56CD2FF4BAD84DB
:1011A0004CAB73ADFDD6F6C0DE29D970F82248ED00
:1011B000C788FF7968399036B51F01B6603BEA45AC
:1011C00091EC2CBDFD53B742401B64716D95B0C3CB
:1011D000DB99417D177BFFD0F846D5E6647916B9D7
:1011E000BBFEB06E04B310CF0F6CD1FCFD4F96A3C5
:1011F0000812727704CCFFE7D0F920688FB6483C1C
:101200009B82C325FF5069D994246137572A5874AB
:101210008F0C52E6FE66CB220127AB00AF6ADB27BC
:101220001BDB972DE0047E6D7B20C0BE5118D9904A
:10123000D763FE9CB68036A36D64A0FD4DEFB377F7
:10124000845F826FC608BCDE6DB697722540D4BA43
:10125000035529F06D96EB304039880862BC307E2A
:101260005BFD99B46B18202BABB1AC487FB61E80E8
:1012700086D6E2E0CDC8FEE4B0FECFFD3601A9611E
:10128000860DFF88FC889A34FE1542C58C65FFB533
:10129000214758F8619FAC5F484DEA18B7FB5B9156
:1012A0000271E8B984B69B9518DF97192749E818A9
:1012B00066622BDD022C33CE58A480B30AF8FA659F
:1012C00018E74D9BDF0829F3406E5BD010FFF782D3
:1012D000E4FF5A978036EA1120CB5D4010F963D3C2
:1012E0005E97EB02848020E5BCE15BF3FB62E0FAF1
:1012F000677EFD40DCF3C5BC4A21FE6AE266B6D5D6
:1013000098FF57999B4575A698C7EE2E56303339EE
:10131000BECFD9C40468DC12FBDFAD95C8AC38CDB4
:101320005BD38084F6B1026FBF6888CAB8CF3C4FE8
:10133000E1C7FAFBCFDEFDD8F8F3ED2BD6F20111B1
:10134000ED47EB960233FBE4C8FCB6F7DD15826D82
:10135000E5799D5704229BBBF30120B7D733612069
:10136000DA4242D7E701F04AAD90DA96FDDD816AB4
:1013700004820B639AB212F563018BFD2DE4A3C7BF
:10138000BF02554A21A2A5AF26F8FB1780A1309EC7
:1013900014FF82520A39EF9A44DE05FF900CD00AFE
:1013A0009911D84CF3650A66C8FEA305A099E1C25D
:1013B000507E4FF428050C90032640C302883CC69B
:1013C000012480E1B0C8FB8930F8009201189879B7
:1013D00016608DD70923E00310F0911177384CFC8B
:1013E0000917207E6E1425A0BF3A0F8005844CB3E8
:1013F00002BF60C7888829E01D1200FF280510245D
:10140000C223800ACAC8FD9B595304DAC17FCB6D41
:10141000FA3C1FCFCA0A1419B31D731040FE7F8A0D
:101420006202D24244D6827FE4D602F797F8E0ED1A
:10143000AF2D2F80CD667EAD8F412396D4657D8004
:1014400032E548FEABFF83EF90B180557E01BAF2E2
:1014500020C734070684F8F3A921D6507AFA0AC7C0
:10146000F79F02678EE56BE8F9C85BEB609786D95A
:10147000BD7E1C11A0CE465950B922BBFF70FB6E39
:10148000C07E9B0118F2BF2CC508F56720BF7627E8
:1014900028FE52DA10C53A89C74DEAD68D589C30DD
:1014A0005C16668B81591331FFBE6D1338FC7A6967
:1014B000DF40E231CEF521024012E7FC05916FA436
:1014C0007CF57B74D0FE6679F58F8019667E871077
:1014D000BA25DDD5D8B1FF25B84019DAE6C1FF310C
:1014E000B8443FD890CA6D7428F9FAC2CCFB51B405
:1014F000988FEA08ABC6B7E61071D5A3C768FB6240
:10150000A6D835BAEA4231FB272F98FA40656564C0
:10151000A8F36B80BA4FC48B008D8475DE60420ADD
:101520008DB510081DB32F90F827EDFE12C8B50237
:10153000D8C55B340145E569CBAB941357AE50DF9A
:1015400041F2C6A88CFC8EF74D0618FFB6F8C040D5
:10155000CB212155E560FA1C1D8CE429B393BB4BCC
:10156000B07B1906242DFDB4F888C019953A029B6A
:10157000D30813521420D31804030780BFB51E4D9F
:10158000DB0C6DF9C9C316536D911BDB7EC441C5DD
:10159000F51380B20873A2402DA98BE88FCAFCBA5C
:1015A0000882EDD167319421FBF3C51320A52C6689
:1015B0002189B9B2481805463AE082815BF4A0BFA0
:1015C00018300A98FAE0813FF10530401E0469FAAC
:1015D0005D3C1FFA46C4035920CB0F02F31321B41C
:1015E00026FBF678400FE09913B5061D19D308FFC6
:1015F000C7661B731AA02BF303E8FCF3C57D5118D3
:101600004289E0F2C6D39376C6B0FBE4EDA4B521DF
:1016100076B30831418DB35008C7B3E7584936B99E
:10162000B6C9D5ED0D2AF27AC9DCB3FFDBCC053F94
:10163000B378FFA00501900602BC989BFE4DA098D0
:10164000E0D2827F482369442D6A41FA6413DFA8FF
:10165000247DF8F1AC0EDB12AF50BF4706FE98A315
:1016600060F2D4F1D8196FD355938872F3C0022376
:10167000D2865741C04D3ED3B20DF8DD8DDA2272CD
:1016800079BF9DEB98035F66F5F0F8B308686724AF
:10169000E6BD580CBB8494B0C0F3ED0361209EB34B
:1016A000B24688FDE7B37F9D08BD62B3207F9B6B88
:1016B000FB981C0879B33C8368FE0810DD0C24E518
:1016C00098F81280F79132968802CFBC47D519C49A
:1016D000F7913A6E0B7FCC012ADAFE0519197E9834
:1016E000B71AE79779FC80CF5030E9C0085877BA2D
:1016F00054448051F63E40427DF309200484AB43BC
:101700006EDBDDD560AF05A63959CEBD050802A256
:101710001838FD7F21AF8B987E465CE9F97E703CDE
:101720008805F480BD9878F3200BE201E407AFB19F
:1017300065988258F3B7FBCC953E6AFF3281DA2A6E
:101740007E7FE5401E73F90FE26BE598C7DAFB98E0
:101750000830E2FB044023CF5F2198E9E3341C18F2
:10176000DC6FCF4F54F7EE4C73C93605BBC94D82C1
:101770008DD3FC98BEEFD7D9E548FD2E3BFA24C89F
:10178000FD7810948819B30C8539228740086BFFC7
:10179000E4CCD1322E73C9D989D92676C7B3F8984B
:1017A0000B0A6F5698FABCED86125824EBA9130C5D
:1017B000F6AC909D19C6086077DF05CF239EFAA589
:1017C0004973D32C21DE53D6CA2D96BBDF1469EEA4
:1017D00098230822FFAC67B6C816FFDF7BFF3020D6
:1017E000777BFE5536AADD664926B69B95C2C75063
:1017F000FA9841D78BFF57620C7CD9EEE68360F1F3
:10180000A5C919DEE94B98025EFD64BCAE069501E0
:10181000CE1119B366D430DB96303CBE982FCDDFA5
:1018200062D0FD2C772B3004B8B00B60740C4A5B8F
:101830001A4417AA1DC70E3D661936E6093EF8D1AF
:10184000C12E3E04C9CB0B7F129876F4F757CAF825
:1018500084EB2130099C3058049342B31C50E1EBD7
:1018600026C06418110C3B4C40625E927629CDE78D
:10187000F8CE38B9BFC7A685E0987FC760148C80C2
:10188000092869EA98A127B74F01E8F889E03C5C8C
:1018900030F8201EC00378770F6B8D07F14EF3836D
:1018A0001840B9302C7383849DDF7A62FECC4126C8
:1018B000BEC8F598787B9881206BED981820FE982B
:1018C000F688FB8401DC3D37C30CEA9BC0D78D3022
:1018D000B773B8DD5383DECF2E59D92D04E666FCED
:1018E0003079660BAF3DFFB50990FAED8F5A0220B3
:1018F00018031260F6110C0891CDB3604137B32084
:10190000113DD5997E6615CF66C926360A662FB376
:1019100010F6980412FFCDCC30ADFDDC30FE161170
:10192000220043090877C8A101F898C3F3137F9DEB
:1019300098DEF97CD1C6FEFBB11508EAFFF9CB129F
:101940005F812EB3F59804BE4AC8A751F5B866AFBB
:1019500076EF030186ECFDA879D93BECD97E269E73
:10196000E9D1C92E36DFE533B311CADF979DC8A888
:10197000FF7130DE98151EE0BD7F8998FBF5191DBB
:1019800094FED48E8FB43BBA0B2763741CA305C39B
:101990008DE07D982C69E798107652C0D1FE5C30BE
:1019A000DC1608EF9164D8AF89FBB2CDB6B3C8DCC2
:1019B000EE5D23A27BF85C09A3F6C87FE0D7D79839
:1019C00010F998BF7FEF23FB804830095FFA9E58DB
:1019D000E104024CED73BD86C008891336F88CB95A
:1019E000C8F7844C3FF76FA5FE0FD081F07FEB86E0
:1019F000C224C798AF8C81B585F0984D1ED30A5983
:101A0000FC60BD9807FA32201EC400F59864DE9889
:101A10005EB8AFC46DD80F0433C8D8F71127EE02F3
:101A20003D6685A37A01E0E0E91E191059C8B72088
:101A3000CBC8D9D3F8FF57B83049EE323D7D9883F3
:101A400069CBE9089D66973FACCFF8DD21A25EB671
:101A50000423E02023C1983401D35130B3058B26F1
:101A6000B7F010E660140C1401CAF54B30CF6E9835
:101A700095676A73BB5405ECABFA0283B36F2E987B
:101A8000B67768B310F8FBFCF5C8432309EE980855
:101A90003410D3CF4CF5D934DCA4F7EA4051FB7BAA
:101AA0001E2A8DEDDD7A08FD986801FE9828C4EFA6
:101AB000FE26039AB8F8F25A389F7385BEA592FFA6
:101AC0007FFFFF94D56B2A04015FCCCB05A366375B
:101AD00032C820C7C9F698B8FB5FB999C806B39554
:101AE00062F8F2BF6FB2E8FF233BB39EF83ED284A8
:101AF00069ED8595EEEDFB1904BC98B61CDFD09816
:101B0000882578F3CE1638F82883E52239DE55216A
:101B100001EF3FF2CDC24E667BF854D1AB2EBB6CC9
:101B2000D4F68D2B7205FE9846FCDE9846DB9DC7E9
:101B3000CA12FD96CAC8E03D3361E02C06303E4231
:101B400026B3E8015EE579893DC98E01343ADBD6DA
:101B5000F7BF4AC07DFF12C40859C838C02C88ADF1
:101B60007D9813D00204D3FFB9A0FEE0413C90055C
:101B7000AFF45FA502CB303CF930C44D490F027180
:101B80005D3F755015AFEA80024E664D2BB213FCD7
:101B90009840E049260FC6A220B3E630031869C674
:101BA00004D328AEFA3530E6AA0210FFB71FF3E5DA
:101BB0005D7BAF1EE025429E6E15513AA3F3663F52
:101BC0009230030EF6C6B9FBEE693044C2E022CF74
:101BD0006004ED88282064AEB3287BC31C55E3AABB
:101BE000FBF64DA327667F5A9814789833F3025B6F
:101BF0001C7BB368FD09DE4CAD127F5803080C2135
:101C0000A00114B941D4438F08025E98B8942117FB
:101C1000F8B243AF41FBCCA4FBD70CF968D2707487
:101C2000BF7FCF984BEF60ADDB9A90FE2337C801A2
:101C30007973B79698DADEEB155C59DCA3A6EEF063
:101C400050C5AF3A19DE9865B5EF48FB92C8C6BCDF
:101C5000C543B3861084726305E08B34224082450D
:101C6000F39F36E39758C04FF4EE4891BF7ED7AC50
:101C70001B03F130DFAC5E9844ABB9C018F8709C20
:101C800012B0606A42F44884814F72710AD1948123
:101C90004FFC5899A766B9406645DBAFBA65CC1AC8
:101CA000FFF1300DA9E368E5EF95C8A31867C032CE
:101CB000CD108E47679C31FB46C00A582D401DAFA2
:101CC0007A40027E96AE3D15DE98F7D8A2A7DDFCDD
:101CD000E5D7DD98FD32244C8011FF5F34810B7510
:101CE00077B56B90FAEE988805F4B3D502875A0B56
:101CF000EDE4010C3D9802AF19239846B5D89DEE4E
:101D0000EF62806E5EC5A7FBCCF903047E6EC8410E
:101D10003B2AD69819B9C8774AFEF7F3E5D9578414
:101D2000013C6FC79D092FCAC9F459CAE20185F762
:101D300012DDE52A8BC3497F3498FD7703AF37EA7C
:101D400019FBE5C800C0F522411408ABFC01D1B372
:101D500002EE4239B321D4E8DD2B22667B3BC56F0E
:101D60003A53192725C8FF778460207BB3A0FA7700
:101D7000BA98461004E7300A0C4DBB30389CD0822C
:101D80005D48136CFC30BB10BDB9486EF3CEABF0B0
:101D9000EF0FF54E1620BD486B2840ED15BD982875
:101DA0005AD476AF34FC5F5781C7309126B20BFC12
:101DB00093FC98EF7B4B8C1972E6BD4B9CEF1D6337
:101DC000E22366EC5F8EECCCF69840FEBC988E4623
:101DD000E53021E3B36FC071F3F9BB7FBD3EE8F896
:101DE0005A4BDC9DF736B0C147FD7FFC100F400316
:101DF00037D62DF691888F63F7CF78FF244CF826DD
:101E000001A6E2E1112C5C568948E2532E6E73B0B4
:101E10004072F21976E6F49D669D6362EA6610EB05
:101E2000E1B22ED36FF9E2302610FCF8FDB8CA34C7
:101E3000120E1858044567958C08FAEC40FF9F2352
:101E40002084A34CB3FF2AD7DFB76CEEB051FFAEAE
:101E5000D3F8F982981F4360012C80B504F59803EC
:101E6000FFC33F8610FEE0813CF788073200FA98F6
:101E70000FBCAF6B39B19B238358F830E785C85945
:101E800036B9A66614DE9DEB66C201F25C10CB5833
:101E900010D37F5F9818E1983270FE06D724C8DA15
:101EA000A37BFBFCB8949340F37B399A8FDC2834F6
:101EB000B3C795E2BC9D66CDE25DFB52C7D7B95072
:101EC000F973B326029944E00A59169057CAF1A251
:101ED0000818770A50F25D42E7399D7E6273B31CA1
:101EE0001DD9E3E20EB340140C2D51EA9398E5306E
:101EF00001EDB328FAD9C8EB26D104DFC569112555
:101F00002008BB8491829ABB0968446D7B9776292F
:101F1000CD929ECB83EC7C9BFF3FB1DF98600C01A0
:101F2000A0112BDE90288AD65EC8E7DFFCFBEB9879
:101F300080BE49BCDB5FE2EFC5181003616FEEC2E3
:101F4000449DBAF46694086B0F36EFF6988081D3FF
:101F5000963008FE98BFFDCB98C8A5B97DF588805E
:101F60001090330918089220B503FFCCEACA59B97A
:101F700071F891E8CC663BF9D7AB8125D5B3DA6C23
:101F80005E4347D3F4341BFB9AF816C1F6982242FD
:101F90004DD7C1A0A70054A1043D87B905DBDDEEF4
:101FA000F22211FFE49D6762B708CAC8E3FDCF0FB4
:101FB000172EA2BFF7E3F880213002E312C018AE5B
:101FC000D09D42BB6E0246C02C88F7D424800C13EF
:101FD0002EC9BEE9CA855AE9E7CAC26D3573B32670
:101FE000C4F3285810A3024CEE804828FF728104E5
:101FF0004305CF93B010E1FBD7E0019D98EDC502FA
:1020000079DDBBD72C90303016C41FEE982C10070A
:10201000BF931DE9B6E2910C18EE5DE7A26BB30722
:10202000F0D96B0318E0BB64E6A0F306E3F34F5F5F
:1020300098FDE798F1301106771FE3E729F65790EE
:102040009F186E55D5EED04FE75063AF9CB608D1C0
:1020500015895E7815E2663ADB9730B98AB326F6C1
:102060009852609196506504D370B37E40240CEC76
:10207000D39E04D45DF6D2A209B31004EF0B04730F
:10208000B3B39B05B510E09D2D383014FD1636FF17
:102090004FC2BCF7064C73B3936AECEC95046DD356
:1020A00010ADFE171A2CF0F7D93C01A7F3BEC4C43B
:1020B0001C3AE305ECF12EDD2722D8DBD350FE01DC
:1020C0008F3DFF642ADF99CFF8D9F72680638ED63B
:1020D000D0F928C79F66849C7A630173D55D2FB1C0
:1020E000A2C639B0FCC7DE6630578AECE7B3CA1F18
:1020F000BDB8E0F0CADA5532E87FB92071B3E442E6
:10210000A046F1C6E44BF3C0C2DC2023B38F50A03D
:10211000716696C1BCA0C3D99D38D1F8045EDDB804
:102120006DD64DA64447634060EEC0C12FB30E5F2D
:102130008CFBC0244DC8F3B10B1CFB32340EF3539F
:1021400030B50B25D348A3FB207E16A7D8E54DDB81
:102150003A0215F3B27FB3CF9BE6F8F972F5F33785
:102160000F5BFF98FC4E37183092EDB2FF65AC3E26
:1021700008E5E108A10BFFD5671912EAFF6832B341
:102180007E13DCF4C67D1402671BF6B6C1B0F94AB3
:102190007B48CA59E601869A2FFB734025F2FB72F1
:1021A0002301D82D2B71BFEA625FC0B74059EB10F5
:1021B0008719B6E990FE59992CB1808EB1D055B3EC
:1021C00041694ECB8B8256CD0440B6AA19C9B808D6
:1021D000666EFB0161540A18FFA8052D04850110E5
:1021E0007AC9216CDB28F6B3608095B314D3A5B906
:1021F00020A001E165A630AE600A730308D1200279
:10220000FE91948129801F064298AA22D2393BB5BB
:10221000F97FA22AEA622B6222BBFD60E1200C88D2
:10222000D024710940C01574FCAFA0B532DB96C84C
:10223000C9605B4E1730E55301C98BFE32208CF725
:10224000DF9DFEECF988B2C401E3012FF687202D53
:10225000F7C6F43E46FEC0011C1CF8D9E0FF618BB6
:10226000DCAA72AB01D850C2A6FF78FEFFB338BD1E
:10227000598046B8161EB685B2FEFBE42464983435
:10228000B758B1C34C18F965751F9BF5ABF7F384CC
:10229000BD79C39EBF67F3E128FE6EF29A0CD41499
:1022A000F36E2BB69140189919EB9340CCFC2F6C30
:1022B000FF50FBC5B702855C27B3017B0BA0B0FEC6
:1022C000BFEC4C61CF18BCFF6CC5F80CDD0E206272
:1022D0003E3BB62036DC5925FB67C998B26EFFED50
:1022E000C8FE483C61DFAFE3D34AFEC1C616CA044C
:1022F0006FF7D3204064983D70F9BA6784CC5BC017
:102300003018F74CAC4BB1FD3CDFC386FFD8FBEF78
:10231000C6C70361DE9C1E1C7FEC32FEEF58CA105C
:10232000739B7BFF1BF35DFA1FDC83C7F97DFB61A9
:102330007181BA4309D7DBB412806F76AA70FF208F
:1023400017FEDEA0CA5933403C62D820FE97588C55
:102350006A53D988FF9E63615158BF5BB236F6F865
:10236000FF72E30802CB796CD84530EF2CD308B567
:102370008158A7D87F49B6F53CD5DBD8FF18A4A66D
:10238000D86D56E5DB98FDF6BB01D0D82B09BFC34D
:1023900010B3809B08D0FDF9DF4079C0EBAB08F5A6
:1023A000F9809B20F70233B652085AC408C45B8EEA
:1023B00038F8F98C8076597F5E077959AABB045E9C
:1023C000A6ECB602F0B025B6D92E1D0BECC9CF860F
:1023D0001870B3FA68B3353068F2B5E1EDC222C9BE
:1023E000F311E1B5A4DE730440F5B30CA8B3D38AAE
:1023F00080BE1250CC01889825B9CEE40A448D4F96
:10240000E4F0FB80F16E10408A7FF365680980423A
:1024100020F95052048138DD8A789B194410452FE9
:10242000C0AA1160D3FA81C11046B420FE08231659
:10243000010680409C9E1248088B8430EF0470FB9C
:102440005C8A40A65FF947838009787DBC412BDB1D
:102450002D23BFDD217FE5D110A299E9DB0893BFD1
:10246000F8EFFD478D4078E4800288F376C5B4C765
:10247000510A8F1FE0C0B6CAFC22767D77B920FCD6
:10248000309ACA2F7409503910B0614BD018E1242A
:10249000E346B1519CE0A3778CFF985EB758625930
:1024A000ED3138FD923EB70823F44460A4EF11FCEF
:1024B0005BDCFC63AA99F837DF5B1708FEE742F59F
:1024C000FA2CEB790263351ED68DDCFADC285987AD
:1024D0004DF708209FC6293E0606FDC578EA58FE3E
:1024E00061C5BCA7AF9B75ACC00824DB4513FE7665
:1024F000E8FEDFAB3BA86FAADFAF6F318D23601919
:10250000CBEEF6E3BC0396BA05578BE5B3FE2CF091
:10251000A38D423531DF6CD6F0F9BDCB6F02BB8C99
:102520005B7B8C2A57FBF0C8FA8FC6597842A6D33A
:102530002FE6603FE64BAB2441CF22E3B0FEE7C27B
:102540007FBD73FF68B2FE197F6002F6CC1130FBCD
:10255000C0C0B440F064040CA06C34FD3622FEC64A
:1025600023099D90843021FFB19E03FC29844401FE
:10257000C77FEDCC06FE5EBA19D5D1203B5880301E
:102580001D35755AE003AE6F0835192D2BF4EFE0B9
:10259000013CFBA720E070100FEC840131E5B8E0AE
:1025A0002ED60556C583E086624038B5014AB30C85
:1025B000E63D73192668B22421460A11DA224682C2
:1025C0000C9680F57866B5C3ED5520FB06B7343F11
:1025D00066776B88FA4B26DFE8EE19F0D1AE6C19FE
:1025E00001804BD7EF2500864D738041AAC680EF4E
:1025F000266EEA48F9F390D56618F27CDDBEF6BB8C
:10260000A6029E189020010CCEFE316040D3D93135
:10261000C083E0CE01E0E08807123BF365A9D32D2B
:1026200066F9F2F589B6A93168E300D8C90CAFB6EE
:102630009A05024A0C06DBC5AB661B72F5172BB375
:102640000AD9E5B010B315C0B3772C848FEA908017
:1026500044CC7BF889115FE45A676A26B20CCEB38A
:102660006C86E0FAFF5F1746EA9860F3984EC774ED
:10267000908F44244FF881C5D119DBB2017B98615A
:10268000215A3B460EBE98D309019914FC623EB80C
:1026900071D1B8D59D49BAC40C3FF811198145864E
:1026A0000171E09CCFB5035BF8C0F998BFF7020752
:1026B000E47B987110ED0F80810066F7CD4C0CF330
:1026C000A54D5472B305FFDD7F78E998303C6DE786
:1026D000987FCC08FB199C19BB20F4BE22E95959FC
:1026E0007FBDF291C44C0ADF13F681C11085DE98DC
:1026F0009B08FF20725B69B38488F8E37FAC9886FF
:10270000C3197F3498DF7310C4CCB90A4D959B452B
:102710006A907F6598240CDDAA7A90D7DB98E1FF58
:10272000CC26BF321B3C98D0D50EC54CFFFBF4190C
:10273000051060F6C9F319BF0F3C46404FB79880AB
:10274000FE2CE406A56706B78B98465466CC77AF97
:10275000F79116C562EB8941278D434C66E7B316A6
:10276000C84870B36B2C6D023FF1B383EF991444EA
:10277000CBAD4DAFC9652B09300195ED9860FC9745
:10278000C1309DE798727B4196CEA0DB33B4CD6318
:10279000B31848323930693CE980513406FC30774F
:1027A000B631B0F821AB8EC2CFA63DB9EA89DC4C78
:1027B000C4F8C611887828B78EEB8427CE986D515F
:1027C000E8FACBB597300FFE72C2E3E021D390EF69
:1027D00089CCC46311880D966ABE984FE00CE20163
:1027E00008B788E530443BF670FB04272366DE011A
:1027F00060AF82A2E7493C44BB5A660E19660C21C1
:10280000D56740D3A060FC0134B702E3309D105877
:10281000F90491A02E6F4C07E38272CE24DFBDE74E
:1028200098CDCCC93B99CEEDC18409FD9812AF0C6F
:102830006EDB41165AF388FA98D0CBE5300FEAF3F5
:10284000D068860268A4D75B5D08C4FB6490F198E9
:102850004541E69BF130A72C5A07AF6F9890FBF3E8
:10286000E55E6C300C028F32987A9AFE1F7D6619F5
:1028700011C0807F5B6499FFBC30DF38FFE6A59E06
:10288000E5DE222CE044851E6EB3F70898444CBB6D
:102890001290411096B382DC304BFA082F9630A08C
:1028A0004F283068D7EEE02450441C982A08EFE403
:1028B000100277C89044C87B638981F49104851025
:1028C0005869EEA52128049BC140024F5C9825E978
:1028D0009664B359FF88EE559006CDC0E6B38519CE
:1028E0001C454B80F8F8FFBF3FCDF9F97D04727AA3
:1028F000FBFF3463FECC200FB402BEAFDBD6988161
:10290000BD17DA4DC47617502B5CBFC8E8529F6DD7
:1029100042079719447D32FDB1B616DE9D01103392
:1029200080629DD64222B3C98801B4C5405009B225
:1029300045383C8EE2F9D6CE68F37EAC82DBAEEB56
:10294000B1214C2886B3F3A8237D7F11CDCCDD9730
:1029500080196D5F48FD9860CF114626B020126B3C
:10296000A723FF3299FD7F6DBE017BB1607928DE20
:10297000985CC66DCE3010C5CCE7CC811145216383
:10298000BC6E66E080D30B60F93CEF0504E90611EC
:10299000B92019F86479D27A7B82E3C04D37B0FC54
:1029A000739805E7E5F7A91D102F803FB3E9ACB98F
:1029B000302F3E35F3F59871FA6247F6F07DD80670
:1029C0002182B3100166BF047DE45540827AD2149F
:1029D0002BC5B316CBB3466FDC258089B8FB8CD7EB
:1029E0004BFC995D1130E2C15084E3408128760CA4
:1029F000A050A8B3CCE239B3899954BF10D3BC0618
:102A00009066B52C9E34FD57C240E0540D57452CBE
:102A1000CAFCCDCB9680C47E5A26043D639088CCF8
:102A2000C4CD5381C82CCD80A1D3666AF3B401FE16
:102A30003288FEF3B36FF711E0013C7A981E5746D7
:102A4000B68B84819EF8375C446B571989E0511D21
:102A5000423CB3F5260F757375A1939DC888FCDFC2
:102A6000F1B22637930292048219161241BFCA09A5
:102A700047D86F964DCCA790D5110854DB448817E2
:102A800039F40E4102197AFF51D7DB9862FF96B3F1
:102A900046FA19441935D718119B9864C8EE6D454C
:102AA000CC035F10E551C041A01E5273EE24800498
:102AB000E3866DB9386658B7FCF398FE5C509D8A82
:102AC000AF193798C9C86D2FB301ACD1948D0D8F54
:102AD00071C5FC032FD3D9F6D34AC6626DF7B0FB9C
:102AE000B88AFEF7EB888130A5D6041BE24610EECB
:102AF00065D144CC8838B388414408C3D74D357E6E
:102B00007FE0F08D5766E1AFB3143DE096B0A520AD
:102B1000B358DE98AF4CBFE8E35CE844C4D59EF8F8
:102B20001541800803623CF1E2B3DB4216E93BCB7E
:102B3000DEF9B84FDFEF12605E50887848A1282296
:102B40001BA03047EF104CC87E472FCA940CF4FBF3
:102B50009FDE1960212CA4161401D3C698B70DEF7F
:102B6000CBC3F4661E76FF0890459B96D70155DBD4
:102B700063F1C9E273BDD82CF2D60866D38D30D587
:102B8000D9C0F758E9FCDCF240E1975364E6589964
:102B9000AE11AF64DC520419F970100F8001A388E4
:102BA00007D7D4986099DDC8FED7A8F90FBF0C8C61
:102BB000B402EF31444038F5B36E19CCFF4F9C811D
:102BC000D4B88067D1E768337F02FD88BF168B17C2
:102BD000B4FE20D6D733FFF66C1206C753FDA0789B
:102BE00098D9E1401AAFDF19CDEFE51C10C508B741
:102BF00040F298EE4D84904B8255C9EFD4905F32ED
:102C0000BBF88D6A4F19CBC8FD98C0D701485EA4A8
:102C1000543DCA09CD4CCCA811583B942FDE986086
:102C2000010C885BF379982EF7F80066DC668FFC60
:102C300037D6E57D04FEE5B8CC83078095055E9820
:102C40006DC703FDE5BF9E98FFDCA9FDB32CDC58E2
:102C5000B3F557CCFF32F7819140547EBC1623FC6C
:102C60009811008F2009B626FA951B22C9F88D828B
:102C7000BF7F2069E9980878AC23BBEA97230166F7
:102C800096CC3B9EA889904004DFC798B681213B33
:102C9000901480C9831D0DA5A0D60819B30657C48A
:102CA000ACCC8A01FE3F23972CC5BD1989105580F5
:102CB000BF9198B1117BD891D4C41D69D017197EEA
:102CC00098FA401880836077F8413C9025E291663D
:102CD00016C5B7B30448F998FDB15E7D9B42B408B0
:102CE0006CBD7BB3B85C305B7666F8981F420840D9
:102CF00082375F1082EFAF81B97FE309EED1408068
:102D00002248BE656D0A803F1C40800A04F1B35220
:102D1000A4F8B3067B0133D098480BB3BF35810DBF
:102D2000EDB345C8A6767B510457A098200CBC98FB
:102D3000D42F67F544FBF0F844BD46667B9816C077
:102D4000024957F82E23105AB3193DB35110554478
:102D500095E598C503EB980227D79850F8E5066FDC
:102D6000A6E508E321EFEE123020E57D09F9C83D24
:102D7000EB1819DC7DCCBF9A6B1EA9196AEFD2C083
:102D8000F9B311033BDB4B200BBD9805BD31570850
:102D900001EC668118EE668040DBB65EFBB18249CD
:102DA00020097E3F30D7FAFD1EF3ED6EEA9550B94B
:102DB000E0981FE798B76E4C44F37D90542E8A3606
:102DC00008E6300484334CDFBB12E5B1CBA8FD9696
:102DD000F7062FE7982DB3981CB319805454ED676C
:102DE00099FF1C1ED7B8FA4017B607DB735F5798D8
:102DF0001E83983BF8013C4FCBCCCCB3D8AB4011F1
:102E0000D601CFD678200F402DC67D980169FBBF33
:102E100028B37B8566FA9802364220BAC523FCA9FE
:102E2000B508CDBF48E62AB514B2C8D51808E004E5
:102E3000212209027FAD98217F72FA77ED7F0ABFC8
:102E4000BD2CB510E53005B7A99802B3198FCC1089
:102E5000773E759044804809D866B3C8849645D6B5
:102E6000DE9834CB893CA2FB1933AA7830DFD7989F
:102E7000070D66B390D926FB91408408816FCF7F00
:102E800078D3E0013C6FE09888F306ECFE96660884
:102E90007F8DE58622FE98DD9005A3FCB3D0735E9E
:102EA00099440E48E3B313F698804195F8F890776B
:102EB00059EDB30923DE98DA85B06804D3B308CCA2
:102EC000991DF650448404E919402A3B930A107E68
:102ED000263089A8FCC6F419CA4EB319194404C691
:102EE000DCD3E0FF20AFCF1BB05140B40DCE34F3A4
:102EF000F9BCB373F71185EC50C0226DD378B0FDE7
:102F000083327B80B3FEF6FE8908C038D6ECC8FB5E
:102F1000247466B65FD3DE4B09895191C7183950C6
:102F2000FE8C7D66015B977F42FEAF152D59B1A1E6
:102F300066D620FAEEBCCEA0C59EDD18914D04F7F2
:102F4000DC0154506BBB070273E3736695E6D8D679
:102F500064DF97622744FBB1104CB9C4F889E8914B
:102F60001449CBF3D32FEDF7FB7558B1FAEFB33219
:102F7000FCD4C61AD338FF32E316D610EA4C80FBD5
:102F80008E1123051F5FB8CDB5CA26E8F3D0FECC5D
:102F9000E0370CAFB0F2B9FFA8B1FE82E43394D6AB
:102FA000182034B3B370BD4B40783AD8160AE758AE
:102FB0009E9000D919FAEBD512651F04B912FB4295
:102FC00071FC8E2D19B08CB3A5D51291F61116197E
:102FD000FFC519F15DAB1050B009F6020832B3B667
:102FE0000259F8012E8C50FB208BF42FFB2D2E8FD5
:102FF00008885E4300588004AF562FFACC02F3A82D
:1030000024EFD9A3E0B7FA1AB3BB4161F60DA0F8DB
:10301000304006C01F1B60022480621FDB972B48D4
:1030200026C5C0E61088CF6B9BBA90605663E4FE5D
:103030008D73BDAB01F3A181406018C0FC38080559
:1030400043400E3F8141600A6779E6B32E40484E07
:1030500098C0022296BABABEBC8948F0B3FA3CA521
:10306000E288D019EE23494C1CFB41F43E5B78FA10
:103070006FB0B5620571BAB7D7A8F4C841205BC577
:103080002110B388FAFBC8CA2FFBAC3FDBFB1081D1
:10309000256630B420E3C7CBAAAC3F55700162FE71
:1030A00039DCF0FE99679A81ACB6A050B1CFDDFE55
:1030B00002A30DE0FC62BEBC0D841DB467B6D9B896
:1030C000F929DB3704CCF42D6CFF98FBEFB75FFBDD
:1030D000AA0B7A16FEB1FE95CA8084BF7EB6014067
:1030E0007EFE61F9FFBB3518FF631C4763BC7EB3EE
:1030F0000CDBD468F9183135FFB37E94A03819B2CF
:10310000444FBD68BB4002B7C4BE96C77FA070B035
:10311000F89C88F3CD6F315D364781F8C77E43CF89
:10312000F32E1959E9B0BB966E8E6197B64BB8FD78
:10313000321CB002B5B3302CB3121BFF98FF133111
:103140001CFFB13636DAF8FBC4BFA204613FAC9F66
:103150000416DB19040833AB4EF68604EB10025557
:103160007B0118D8F31050F9629D6E612FAC884036
:10317000C3F211E57DC085AD224080B07DB1191F3D
:103180003F4A2CA163EC845BFB7FA0FC153C1CD266
:10319000DFEDD4F49BDFF3BC20E98067774A68FE5B
:1031A000629CFE2D45D67A20AB7E1012DD7C019507
:1031B000FEC7ACFE0AF57340BB1D10016DBBEE04EB
:1031C00015FD4701941EB811AED549F0CBFC8082A5
:1031D000288C67F280AF044277D6CB4721626DB16D
:1031E0002008E4FCE02CFCAE6873C4FC0329F23632
:1031F000EC03AFB430010480CF0650DA20190C7113
:10320000E6DE7909B175E3F79B8077E0C7408AEF86
:10321000DCC9320C49A384FDFC0568FF400630E997
:10322000DAC04955D0734F70089C828F1242FCB9A6
:10323000180803211016514DAFE01C864F3CF74291
:10324000200C9904AD14FC7EF2D52001EF9BE4F034
:10325000FE37F2A308BFD4F88CE84D1A0179E91CB7
:103260002FF70DB7CA00AC5DABF9F68CFB79BC0843
:10327000E840EF4CF50148B5EA371F511A402BE3FF
:103280000314106579C0B6D8E3898288986E47BE6A
:10329000234CFA02C6FA8DC7FB650146A1A05D3B2F
:1032A00068F80415CD08408B2D5E020261B1065A04
:1032B00009F9C656874116B74D88FEE90FBF9871C8
:1032C0008E58D0519DA7B8FC8AFE9910C908A1E379
:1032D0000E350A206239F5D8B0FF9FD9EA3EEB5E81
:1032E0001749EF01FE5FA3098C6AAF02E5B3F88BC3
:1032F000FDECE2D7C0C24F3DE4D9D02C6655FF901B
:10330000DA0440992FA6CB30A2D9A8FEC61D67CB00
:10331000A4612B4CA8755A58B2F9BE65587B76FF4C
:10332000D830FF828D40D74C032759A402397BDC6B
:103330008008BEDA48037D21A3460B61F221018893
:1033400085ABC6CFC2FB8B25E970B7FA5AF50337B8
:10335000A21006A5F3604F8F1965F9E8A580B30C9C
:10336000CBF71C54EF380B069FE903792004E8B132
:10337000015D81491E629AE1B6785A661AAFF83447
:10338000533B40688CA0D845B0AA7118C515E928F0
:10339000972EA6CD582C01D3EBF06BE6CB9A4FCEEF
:1033A000DBFA1FFDCB80929CA5FC2620CB4648C6AD
:1033B000F00C90E719C003780B0960C3802462A663
:1033C0001929BDB8F0F87D8CEDAA0403AAED06DB3F
:1033D000BBB1808117DD8E0489FF7F98FA6AB32D17
:1033E000198DB3BCE56CB30158B358D39BB348FFF8
:1033F0006DE25619D7D59840CACB0470B341848585
:103400006C0A51B31A79209E19D958FBDDED5A1573
:103410006BE29866DFF67F0CFFFD634BFF206F4D7C
:10342000E51CC002A79298F91ED3CB98ECCCDDDB4B
:10343000AE04FAE578C45D1918FE08B24620D7D963
:10344000981604EA7FA498200C562FEDE5600AB187
:10345000A091CB6A52651940B7D67FD7AEE49F885A
:10346000B272FDF3B415CDF5449E6636F4FEDFF27C
:103470006DED98A0042E19C8F698E081C5FC986CF3
:10348000DC1047D198F8EC04F23D3803DD80E7B159
:103490006EB1B14E5BB271EF490503649AB37A988D
:1034A00085C67D9860B1220619E0F8D79B301A4096
:1034B000FB970569CF30402360211CD8B3848A7EF6
:1034C00080C63D98C8B2FEF9F780AF813B98D5DD44
:1034D00083EB98040BB739306DC530EA5801084BBF
:1034E000BC98F7F3782004B1C83ED3B180D91C084A
:1034F000627E98CB20FE80273C44A001340B0697C7
:10350000EE937030D85920A3190201647A9842CA08
:10351000CC2E04DE6202DCBC03AE016E7A66020BC6
:1035200016E530C67DAD2CE7444566F86BCB30021E
:10353000FD98603B0C800488DD19C5793080BB079D
:103540008C304FDB9888FC6E333037BA01631C3007
:10355000A306D3131BE719FE75B30394B3D84360D6
:10356000BF1230B39A963C08E6197E4B2EBD7F15EC
:10357000986DE58BEFE781848534B10612196CEC08
:1035800042084FD69808F9C8647998E85920160877
:103590002E6662C8FFF8EDFD4B8301AF97981D7D45
:1035A000E58BC63022B367F23040C476496DC41053
:1035B000BC98BE05B382115C302C3057967D08470D
:1035C00099983D8EBCEAB3DFEB7F9B381204C0D3E1
:1035D000442262BCCAA5C6DA0489FB98F0FF6FF6E4
:1035E0007F4FBD981E4083187330011562BE98B19D
:1035F000164F6C9840FB53325203E6C5B93006793A
:10360000258973FB71FC46FB7FB3985808B80162AB
:10361000DC30D71601884B3C4C4119E8AFF9B28534
:10362000BC986BBD103CC84420081881F085AC02E2
:1036300053B6178229E0982CF9DF35984BA4823ACB
:10364000BC983B0AF930405DB1BD3C191069EB985C
:1036500030F2C8180BDD98E4812C8B723010C53322
:10366000C8FC367734DA425E984DB326086E69138B
:103670000E124C5863B26782037F1698F44FEB45E5
:10368000FA963001FF7F37243129195861145C30D4
:10369000B13934B201D8DA219FAE9828E5301093C1
:1036A000ED983C88DE98DF4802EB983C1331197F97
:1036B0005D98C0C6305EAF7C10C9C8CE02048CE6EF
:1036C00067D6984020E6D289F9CD02D819F33BBCE1
:1036D000988E35F6983022C486B3B55AC53C980208
:1036E000FD3234DC5D37BD23F8298FBDD04F0C107F
:1036F000602141CB2004991151B326158A67C85423
:10370000FA4666BC5D6A94940493A49D6234844036
:103710008A7C31B19E47E88090FF40B3A807191D0D
:1037200083C7F07B98C040200C4A7968F37E13EB86
:103730001733D6988043E5C5F8716677C98044B5DC
:103740000873B3460804B31359C8034834B10A4E8A
:10375000D964023E9864FEF6B2EEEDB10920BE7F58
:10376000B4FC9719187A9882BB1381624A32C05808
:10377000D3019FA9982A660C0307042FC26B51E05E
:1037800041D798307A9878579D2C23104FC64CE03B
:1037900004C4FD98817F1F7DD4236646659E98A34F
:1037A00004CEBC98C499B30602E0629E98DF09FD7E
:1037B000F612F97B9408871E21392CE5C840205C5D
:1037C0008A7AE59AB5FC04623C3035B384D7177E1B
:1037D000AC20D7C09860C0421CB8622173B531B12B
:1037E0000223B217F59850A6592E7E98438CA460F8
:1037F0005C3071198A18FFA3E8A8FEF1E001388057
:10380000521990236F4B98F4F86F319833CB17E728
:103810003078FF8459D56FC42FB35CED8014EF71FD
:10382000980C044098A1B499E698872FE7D8FD84B6
:103830009B05C086BF7F9373B30930AF0138D9D1E0
:1038400009B1D84880AAB3980313F79818F9E09AF9
:1038500081190707C2036FE2985B3602781D09726F
:103860002308C48CB55FDC9890FA80AE19B217BDFE
:1038700098C0BF20EC73541CF57D0889E7C828FD6B
:10388000D7802119CA1B4925B9B31D19E098B65034
:10389000B02BF87F9A0C4FDA98D8FD2E7D1B30C7DD
:1038A000086F609846D87F58442064210190B18504
:1038B0003E5F30209DC82840AF998D2D3F60FEAA05
:1038C000F708DFC598661F59EB980112F398350089
:1038D000401D93EA82FCEB17BF7F140DB7A6E506E7
:1038E000B31EEF2C98D8C83CB75617DA49ACF2B0E3
:1038F00097E630FE044A26863766F69842C26B91F8
:1039000010D6982C4A7C10C838408B22512D21F8B3
:103910009BDA10F874B3300A2061DC0213DAC04974
:10392000301C04FE09C1C7A801F8DC71DF67E3ECB5
:10393000482046E1BFD8B21817E6E064C8CB1904A6
:10394000DDF649B3D588F50330401EEB9820B3C8A7
:1039500008B704D300756607F9C8B55859BFA02D3C
:103960006688FC69620B30D92B8D30BC98DFF65429
:1039700050C6B37E4BC8F931663002268C848F2046
:1039800098892BCB9835C8B096767ED316B39A20FB
:103990006EBBD980883C7D2C666CFFDCB3C21E01F7
:1039A0007EACAFFE4A5890E2CB888E6AF34B28F388
:1039B000CE35D100E0C4C6D3F3FD030486FFCDFAB3
:1039C000E3AD09CC6671D3BA4566EB4F028CFA259C
:1039D0001780D3ADF92456F14843E632FB647EAE3E
:1039E000095FA0E6E35F9958E0661A01736A660111
:1039F0009266CBE1F9F860DE2F23DEB120D1C48FCF
:103A00006632D33CE5C968E6E9FFCFD0B5C7FECC46
:103A1000C7DB6640FBCCB5F52D08B9FA9F96CC33D1
:103A2000BB7FFF0C3CFEC5DB9810FF105A85209928
:103A3000D6E65034EA7F6F0BFF309A4458FF906C03
:103A400019B128167EB0FDC6D6414035D6037BFF9E
:103A5000C8FA67A0B3025280BB20BCB4C7FEFF8582
:103A6000D6D791CDAF78FE7D7BC5CDB6ACE4AA8428
:103A70001308400E02C47397216A67D802208EF49F
:103A8000E3A8FBE2B920E2907E9CB0B4EB04405284
:103A9000521260B06CE610EF744B300180DA4DBD0D
:103AA0004841A28710598B9F327EED5F02999C0698
:103AB00001D6FE0209A01FF80321B249C4BFCD18E8
:103AC00000E5BE5048B7EB1710218FC0D9FC02FFAC
:103AD000F924DBEC4239C30F5CCE406678A43B800E
:103AE0006FB57FE8339882408C4BAF16FAB5F95F1B
:103AF000DB79BF93FD7FC0FA8876D701C6B616CFB3
:103B0000EBBD08BA64D090C58CE353D669A8095AB6
:103B1000FCD898FF81478F9B2179809E666319C8E6
:103B2000B001C066BAFEC31FD8CA10A2B3FC8C4B4A
:103B3000D5C40686DFCCECD8FB0C9E30DEC79624BD
:103B4000C04BF458FB677A3A043B43370C7F7E98AE
:103B5000B1F89FD8D12067EBE5103CB2C7B4B1C42F
:103B6000FF0A38B5FC30E4AD7440628DE970F98D20
:103B70008B81FD0ABD3FB8B1FD7DB06FBCFFB2C8FF
:103B8000C323C71FCB2E7FB08BE3FBC9F8F904BE5C
:103B900030CAC9680862BFCCB1FD0F5B4E102CCF94
:103BA0000453B6F8012D9D78B0FA2C018047E61237
:103BB000FC0CC2F619B0FFC6963B041636B390FB58
:103BC00032B3B080B38631FFFECB2C7996D3D6AB1F
:103BD000B90415FD6C048B7B238038B1FE85670129
:103BE00085DC22DA88FF81D065AC83842CF5D2088D
:103BF000A7BD3D78FB804092429C801B0802896EE5
:103C000048AC80914EDD189966AE572EDFF9962E9E
:103C10004F7EB1FE20280140E5B410A0D908A010C5
:103C2000443C86DA800EFBEB0C30052513F198DD61
:103C3000020A77964119FE7480E3FB46AEF0FB7EE4
:103C40007F10940204281A279B262120089884E1DB
:103C500050DF13210FC40336F3047726B401D88450
:103C60000414CEF748FD600590EF091AF91D002CE9
:103C7000D038F9A896BC6D6F283D015CC4561C4035
:103C80002FE485E637B3FB91BD6CE8668089A641D9
:103C900040EFD29D82CFF9CC8C45DDF7EE9FD0B6B8
:103CA000505E76D780FC33A579F67B15B6FFFCFA1B
:103CB0007F2C600121ECBB04B17A1DEC49E0FD5D75
:103CC000CF306306B42A91D8A8F89BE984085F0D29
:103CD000B040BB3D21D8FE809BDBFE08D40E0142E4
:103CE000B3A07664C7FB0B80B1FBBFB0E6B466C57A
:103CF00049B3500262BD634DEA4810919B3782215F
:103D0000E660B0FAD73BCF200811FE4DFD20C73842
:103D100010C50C6357F232FC50DCB3D7F7878175BE
:103D20009FAFD87A56FFD85CFEAF68968038C2E65F
:103D3000FFF8FFF3706F96D4BD86B433B69CE636B9
:103D40007F57FF924BF202FDD2EA20BCA045D6D2AB
:103D500006C0EF60050436F334062BEBA66197F836
:103D6000242CFBD096E7A0FFF3E2758D81E660CBB3
:103D70008D30081625C04FFE6FE8FD800108E5CAAA
:103D8000061364B9410C3DF6F02018A3F3813062AC
:103D9000AEC01E080345F923C6BCB303744DF8DC5E
:103DA000FD05646BDC76090480B326185153F3DB00
:103DB0000930B12044B342A3B637D6CFC04F2B8FC2
:103DC000E0B9FE3101EDF402980843E3FE801030C3
:103DD0000440014440A3D2600CE2B1C51EB32818D0
:103DE000040BBFF884B905F2445E066AE7CCD0FE46
:103DF000F63CFECDF0401EC003189EA4413C800757
:103E00004823F3B47AF3D8011C9A19F095E083FBA8
:103E1000D7E0941930A36FDBFEFA54F018DD46604A
:103E2000A6CFA4E3F3630DFF8018C81B0C3641A492
:103E3000F00C6999C8FA0D6EB39C42F74530FE1D2F
:103E4000C42098041362EE6CCA29225385B2E03B69
:103E5000FA8C820555F053ABF898FE769EC2F5EBCE
:103E60000B6140F18C3461820C65EF63CE2DCB3554
:103E7000B9E5246AF8B51256F8219E0E5CD90640C1
:103E80003D2BD1ECFB4E92F04B590423CD25FF3254
:103E90000C6AF8B306BA145BB38FF3A698FA606B9A
:103EA000DEC6C003708EB44EE0300C8003929F607B
:103EB000B3DF6C81CDE0D11E885E78985E6B71C6F1
:103EC000AAE235B87DD5DEA091083B28456D09B33F
:103ED000DE5090C1B1305DD79442AD6B0156552490
:103EE00047FE7F3AFE808930DBED6A3B1542A1C177
:103EF00007699824F505361228B39D98C06111A76B
:103F0000E0F3A4B23D9862F6FAC0013CBE28CE1997
:103F100040E9800C6DBDF0BD9881B12C41B4E0ED5D
:103F2000C403781B85019027D99871FEF06BFEE6DB
:103F3000836020FEB79FF198E662BB817F9BB871DA
:103F4000D691C06A36F9FBEEB3236002EF877E108C
:103F50009DC4D30453A1B38AEC9596E0B3AB9740CC
:103F6000279A2C38FBF5CF80A2016057E7F57280C5
:103F7000C6CD30036336B4A00829C730F898EDDC0D
:103F80002004B922036FA6FC671F30F75F92A3A835
:103F900081C63830B4DBC4749FFF4A9806B82FBE80
:103FA0003F989226E0EEBC984BDE19162FB340984E
:103FB00018BD0FF5B046C6CC66C8FE8C538F73E5AE
:103FC0003010CFB309061440F41044800857EC04B5
:103FD0003220DC8024DFC698FF41F67040246DFD5E
:103FE000905EE248FC8411BA2450E8063733F08032
:103FF00010A6444AB760EF370830220189E7AA18B3
:1040000005FB0360040C026FDB32603FE9FAC0413C
:104010003C88077F65B118907023C14B34C016C827
:10402000FD7A100F60011DBED96F9DA95C03DA797E
:104030001019195E98DBD0F9FCE697932BF25DC25C
:10404000E5F361FD23B3107F9E0164F898B6E06D3F
:104050006603015495FCB322763CB312EFBEB00860
:1040600045F7C002910482D3B6295ABB0AADF809BC
:1040700017F95836E02C02DE98B51378E250FD802F
:10408000851282F9576B78714001A0BF0480260227
:1040900082AE5A3F3036C81129BAE35A16BD93BED4
:1040A00098B7806FE8B8F85B3380123CFC0688391B
:1040B00021EE16B24C6E5E48094BD208332D6B5E72
:1040C0003FB0FEE041BD98C18A80BC986693820CE7
:1040D00008EE3130BF519820B4D9C8BC04BF57C3D3
:1040E0001B307D7FDEC3DF1680EC98110C117C3114
:1040F000028610EBB36188C698B331C4F83062E031
:1041000090A5C021A759643C30D71AFDBF581210A2
:10411000C2441802BB0322F578811012C25558FD23
:10412000BF442C00CC66F94BEE30C0084032D8E4D6
:104130006D7F3298DB08607764FF60AC40BFD53A92
:10414000F51840F5A53CDC30BB0E9E300FE2012C8B
:10415000C4B649B29B5C26A77AA6908DC69EDA901B
:10416000F98041ED0415D72EC853DBC0C303625E4E
:10417000E5462F25EB98C073E7D66618EFF469FF84
:1041800080093DB346C108C0B3FE8C0229300A271E
:10419000C40014DF0113ED981120899119AB2DEEA5
:1041A000407D98182D855A9440FEEC76808AE1FE79
:1041B00047308199099522F2DF9A08C2309AC4FCEF
:1041C000E571FB1A0120686C8D20EE5930489C3057
:1041D000290C7A02470CFA9801D428D001CFF5A512
:1041E000049DCE3030FE40EC822DFE1930E142239A
:1041F0005C306FE698E2CF37C95711C01C10F4DF6E
:104200008841E398F0836AACE978F824DE44BF1172
:10421000DA9814482C71FBC8225850A0F930026C6F
:104220003ED982017F7FD2905083888FD4F3987FCC
:10423000FF71B8FE8421300220DFC008DA51402C23
:1042400055F0D44408093C60042C821B0113F4E5AA
:10425000C02E40088B57DB19EABC30FFA8F9E001FB
:104260003C8805F2AE40433019EB0B6480DE983198
:104270000016C0D38C30537A4BF020EABEFE02E227
:10428000013B339B3020FFBA7EDF25D564C2F38724
:10429000FE31501E3637FA71EDB12065F5E666FF46
:1042A000322FC3E63014C1F7B3248802AD10FD3CB1
:1042B000C4040821236DE37D3199E69FFC7D35A47C
:1042C00003DE45820902D78D305D9598FF200BD61D
:1042D000B28BF43FC88809348A060A82B2C89BCEE2
:1042E000A884141519E59EC8682420333BD6987419
:1042F0006E76C840204FAC58015819CEF58702AAF7
:10430000E9F9BE556F16C0F7981003401C4E200601
:104310003270EE84830990E96ECCB34039301E9C34
:10432000C8FB400FB3E073C875C9F9084ACDDDC0BA
:1043300024EF980401A00535D606C2505FD7CC986B
:10434000538B3023C87D0441021001A66DC88854E8
:10435000E7E219EB310126C0054D0BFD4C7898EED4
:10436000DDC042CFC8204C88B1903219E7309804A4
:1043700013E202214CD940BE98D6C2FC6BD5908185
:10438000303F9A306880CDBBF1F9C80E0FED335243
:10439000576408FB98801E5E983BE0E001373DC8FB
:1043A00031F8847AE506BEF8FF34A5F298FB50B2E6
:1043B000C8C959BBD243AEE01825E0D6662E01CC61
:1043C000CFC889FF80D61131AEEC024FB322C010A6
:1043D000B02016C4BEEAD3963001C621DEDBB40598
:1043E0005DB358EDF22C80FF0164FB4B58F85F6F12
:1043F000AF103F98803063A804E486C6D3F3A5636A
:104400006021F310DA3506ACB390CF53981ABD0291
:104410002CECA48934CF689870FAA4C9FD9B41D9CB
:10442000C8B6805BEF3019F69A5A7E6EC84033E00A
:104430003BE0089AFCEB3CF59820A78898F68B980F
:10444000302018198378905D976CD9DA10049B1985
:10445000E4C8E8D80F88E0FF3698E530187130716D
:1044600066717D799873FA1121FC0A061408586068
:1044700052F6BD98326DDBF0123F34C808825CA062
:104480007FAD98089CE7F88449F7FA460842E65E53
:104490002C49DFAF19BF44B89F0C813B312228BBA8
:1044A000DBF995C048C1D19360B2198E7E98AE6891
:1044B0005A300C7A9803BD9864E0012C905D349DCD
:1044C000F51A207A981CC5383002E53078DC30B314
:1044D0000D3D9890D9FE805E98BD8086206FE6984D
:1044E00079FFBE50C8E08EC6CCE63018F99BB30AFF
:1044F000064DCFE381C029A008F045C402183A2335
:104500006014F6982922C545B3BA2D8684FD98011A
:104510006AB359C8F0B09022111773646140EB0878
:10452000ED34A2267D982CECA4013443774734E681
:10453000C850BF2F2D7F7BA38010027666E0F9CC98
:10454000F5B9402D0C04F95330B320B4AFCCEB5780
:10455000B8CAC9F69880FFBD9808EB064420BE177C
:1045600078100C625FC0EA98C82EF33F50CC6BBD48
:104570002DF5234219F5DC048048FE5B3018FB98CA
:1045800098FE76D14974E9822CF31B048634D15805
:10459000F13DEC822930B27610DD73309501B3E441
:1045A00098B39788D3E6C818DFBEBD42FD80816509
:1045B000FA26B1A6F8BC8401909A1202F39844C579
:1045C0001106DDFEB7012611B3224002F95F2ABFB2
:1045D00011FB3218217CDFC8F8ED98B0402190190A
:1045E000F50FE0419BC8304F789803E4012C360565
:1045F000BEBEB6026FB33C20F398BB91C27EDC49CD
:10460000D36CFFAFFBDFE608EA9883729F8201104C
:1046100073FE4030605C501280D518586AB3B60CF7
:10462000C9C85FB740CDC808B7F232A9FAED61A397
:10463000A6BF9A30444C47A602FFC42898001364D2
:10464000018C38AD1120AD4D6E52B304BE81893F4F
:1046500052488086F2A735C660E2F8F931A3FF2FF1
:104660002C7B7DFFF8AEFBB8C449B4E2BCC8CE33A6
:10467000F396AC2236D396B866090EFF98FF24C68F
:104680008C93E3D11C6239FAF958086A78B340F385
:104690005B702519A29BB61FFF9162A666FD646C34
:1046A000F36A665B49671E51B16AF362866D41D356
:1046B000B1F3B6607BFD30DBE5CCFF9CD3DB88FC3F
:1046C0001ED823662EF34033C17A15FEB761CBE3C3
:1046D00033FBF2C0FB3C3A8CB8356DFFB8FD0D5191
:1046E000CF8A0676C346B338F9CCFA3836AF333DB5
:1046F000FE33C7DB3E48F81B5EDB10A26FB1E5D985
:10470000797467B6C7A8FD67D952A7F8AD5E02569F
:10471000490122B8B28099F290FFDC6EE9792784D2
:104720007DEFB7042E8EB5F85732010BCAF15F3515
:10473000BFF1C5F8B2210C7E55A6084E8540042273
:104740002B40A728B5F5ADD86962C965985C44DDF2
:10475000EDC064308E14DC7FCFFC29030D06A06E03
:104760006F0ABD5501B978C6A0DC1A06B31B0880D4
:104770004A6EFF647722020967A75E02E12880E59E
:10478000204011DC6C03ECE64506456920782AEEF2
:104790008588056B1D9B90768D058EE8E4FA02DB1B
:1047A000CC36CF96CCED3EFF78DB5657FB00F88039
:1047B000406FB6F9FD7A01A9AF2CE60863F17F10CE
:1047C0001FF9D6406F15B34EC4FD610798744FCDE5
:1047D0000F30FF8CACE3202EEB64CFB3E3B8C5C23F
:1047E00024BA6120F3E66EB0F9895EE0A3F9DB6DCF
:1047F000B3C33E85C3024DEBB1F6D2CCED23029F8D
:10480000FBD00428BEE33A3C80FD31FC2D31D5E3DA
:1048100066FAC2CF2EB3B2B1568D81FD42B160C2ED
:104820000FDB59127616C0FF0A60EFB00FE1FFA050
:10483000B3FDFC70C2F5BCC0B2F7585F19A62733B0
:10484000D7CF98079E990DDFA0D8C8F899BD868D5F
:104850005BC8FBB8A3DBC520E91E7D7388FEC208D8
:10486000CEF59A109849D828FE8F9B757517B0EA37
:10487000511EC763FF63D890FD43E6A8E6773BDB94
:104880000240D66602E416CF6498A25DFBCCF963C1
:104890002E1F3170FE9618BA57197DEBA80C0B1B12
:1048A0006618FB356B0461AF9E46B3B1FF0530015E
:1048B000AA2B20B48CC2BEEC9CCCFBF5ED0AAA213D
:1048C000018C952436BB5E236866619FD68186AFD6
:1048D00066EE96FAD4CC58E854FF7ED918FFA6DECF
:1048E000C8FA8A65F89307984662FFDBF8F9F94140
:1048F000BF6DBB05CCED49AD08631B6EEB08FA48F4
:10490000E39637F103EF62FC27B70422C1FACB83A9
:10491000B4E9CCDE9098FF9BBB20025E68CF048098
:10492000B2C8D6174110C574FF88DC85F2DBCD2EE6
:1049300044C7D033F294F9340490A066E00526E130
:10494000412177D820A080B338FB2005ED562740C1
:10495000DE8678F7D3D502B46082E1012D0C7DC0EC
:1049600090960050E4B3D0C0D0FCE3213080E80141
:1049700060C3261004041187B18AF560392803FD4D
:10498000BD0121B71A18FA3310D0F239C1FC4240E8
:10499000280C1202F1F406C06A2D823E521A5119F7
:1049A000FB8D28F740D7018E6BF4A71163C6FFDE9D
:1049B000E601939E9848FC205FB8E712EA428251D4
:1049C00041F8E31CD482B340BED4DCF65B927E5146
:1049D00001CAF64BFF808F0C59FF0568C8B012144E
:1049E0004FC47B0F08633C10ECF0FF104BDB2080C2
:1049F0000153E9BE00D0A1C21EFB121CFD400524DC
:104A00008BD97588610ED890877B7FB8FC20383CA5
:104A1000DDB82163A6777F76ED60FDC6F423A65A44
:104A20002661633B19D878FBDFDB0298F547AD4E72
:104A3000C8FF90516EE7811104BC085DC70C20FFD0
:104A4000ED1428FA7861C4963F01869B26C5B11003
:104A5000164920FCDCC8DFAC3C7DFF22448C41675A
:104A6000B75F50FBA87104BBC2A6FF8840DFC50337
:104A7000B4BF76FAD0FF415A8FFAA460CCF3F13D6F
:104A8000D338B0FD817920623F472C7145F3E84B64
:104A9000B334D69A08E6E79C306299765BC0C006CC
:104AA000D0F1184003287D20A25034FA5B18B94D8C
:104AB0009030CB41E8190B17FF01E5459FF634FF15
:104AC0007FB930F71E79F1AAF314EFD8E00E8BB559
:104AD000E001F8301006C240BC000361D0FD80F355
:104AE0002BF0973E7020A338EDA0FA7B7B1A652E41
:104AF000B30858B30D89B32BC002E2372DA43FCBC6
:104B00000903F7C07AD004E7100A80FE4BDE1025B7
:104B1000523077AEC00C07E410625EEC3086203C69
:104B200028800410C3D08CBB01D81E44400D79BE30
:104B300001AFA0D1CC3CF7AF5ABFAEF312FDE90FE5
:104B400089FBE33C80D607F1F0058348FE0F200186
:104B50003C0885360C7D6FCD7E20707CCCBC06B2C7
:104B6000D466DB42396C0C024FEB7FE9CCF9039B36
:104B700021C380CBC6651B9CE3C6F7F946FA53D325
:104B800030026DBBD98C13E543B0249648290B2025
:104B90008EB314190E4F11CEC64058FE8CFAAF409A
:104BA000988069B35CF90D8620D7ACD8B393C73E23
:104BB000702822F82CA24830061518F8456399820F
:104BC0000CE91B06F4B8FE91C4F9020C6EF3642DD7
:104BD000F406FAF3C85B981834EC80E019B23CBCD8
:104BE00098F7F314C003A318AFCCCFDE5E790CD3D3
:104BF000AF80FCD90382013D905AC06F130319F7AF
:104C00006B0895FC30E034993E98BD34C4408A036B
:104C1000C5B7630A72D340BEE969E209DEC0A104E8
:104C2000F5D3AF818B9572BBFAECFCAF5E98222A6C
:104C30003EE141408820C5F758031E44875946206D
:104C400046D30284ED61807BC132FC7799DFFE9808
:104C5000278E4601606E1966FDC27B9803483FAF00
:104C600020010C800798F06FC8B078D2360C2E2146
:104C7000F8CDFB7FFC8BEFAF12B1058E4A6F04B607
:104C8000E9F2D30A06652D18B61CD31FDB29FB7E7B
:104C9000E505CBE964469B11B32116E1C92B40B36E
:104CA000D7914B5C7F320B61022C9DCB0AC0FAAAD4
:104CB000C01ACA4CCF12B3284C01A03158B6976E17
:104CC000869830E0442782B31002FD400368228DAD
:104CD000017FD7E0FF6BDBBE1833365B8037B64011
:104CE000FE9801B7EE420807F4FD5F8C6797D497F2
:104CF000986CD18244675B86FA980C1E810867190C
:104D000032790483BF60BA3708C8F54B849FD5FE5B
:104D1000E298AF268005C45BB2B0105F6098820C49
:104D20005711979C1D70FB7F2CF37BFC6DD6C0FE4A
:104D3000AB6BE898206547892F1E21F69843409E6B
:104D40008D0130041022FC3213DCB38CBEB6B0F3FC
:104D5000982F9690169E98B18115B43C95E598C908
:104D60002330C6F8C08378100F497E407698AF8F05
:104D7000CB7FDD3C69CBD30FBC98FF2DE5953AF78F
:104D8000F7CC2DCA90BD9818678BCFE012F598B07C
:104D9000A79C6BB3A281B3FB3D9D19048C02CBA4ED
:104DA000FD6CB2D5FCB8BCC5B62DC4BE325AE06BA2
:104DB000AF282102A435341D88C70373302030EC9E
:104DC0004144FA553260631E9B282639DC97DC7615
:104DD000576599E59FCCDA38087DEC3619800125B6
:104DE000B396B9202FD3E330F4FCBBB1844EC30E8D
:104DF000E20174C69DFFAE6576D834F29AFA09EBEB
:104E000037126819B0A02AB5FA404ACA906F6DC02F
:104E100044F40021FB860402B2FD5CD9C8189F52FD
:104E20003380826685627E98FC46C48480080BC10C
:104E3000BE2C782023C623CC6021A411E8CD62FECD
:104E400030C83609EAA4D949E4B1E025663CDC3D26
:104E5000981AE049790FE0F3370EF0F898FD0CE866
:104E6000010D208918B397A816834358469F9D9833
:104E7000C58AE698D9C82FD8E130D3ED302059B48F
:104E8000158D19F27B92FF138F58E0A79198B31BF1
:104E9000C065C8E3A6B34CE08101326C58F8DF3539
:104EA00098E5AC808AF99867C840D002422603286A
:104EB000B4FEB582208008BD9864064021E6D94141
:104EC000C0FE986FC7BD18199E91ADC22D8020F607
:104ED0008ADDFFA86CB3D918089F7FCE7240394194
:104EE0003CC4B5AF01ACC0E7020361E0E001C530EE
:104EF0009098F0C6C8BD701003785E1A78CBC8438E
:104F0000792B2BC8F399683182D809308A68899146
:104F100043988F28010CA432678289F332915C0494
:104F2000F138FB199E98DA3011F24A04B82B582E4A
:104F30008FF932260420CF28B31870F90A466B4443
:104F4000B11702EE2C6C0BB8F853D398824601ECE3
:104F5000E0410C43CFCBCFD512C08387480FD76831
:104F600080A58B32C67B6B400FAD08E8E928FB7348
:104F7000C92CCDB5F5D42F10D84E8197AB7E20CB60
:104F8000E5F4CC21284AC6063F5FCE98F69E78F815
:104F9000CDF598B0A2F94398198005CC4B26C8C02E
:104FA0004846B35E9824F8E0BFF3D7988135B31133
:104FB00080CBCA9412E6302814586393B40480C09E
:104FC00006D0A60AE0810D50F31D7810E5F3DC3021
:104FD0005E98D88CFDA751B1468A76B101C9148D6F
:104FE000F3C6215BDA03B4E4D0F85844EDFB6F97C5
:104FF000E88EB39E0C68C43377E0AF01FED9C2409F
:1050000018080361E2F3F1EDD09514D3C530FE45E5
:105010000888FE68EF34928C2DD5B304198CE5B363
:10502000D7317141DEE58384A195010CF96F0AD374
:10503000415CD3CF13F94BC0092BD698229DAB5DB1
:10504000170284C4101A88322120BCB4B9864AF9E8
:10505000B00446C1A48C0260899EAFE95EE5B12C24
:105060001F019819EC100160474FE6E53020DE98EB
:105070005FA9F8803CA007311316D37ADD2003ED39
:1050800098F8FFB131981946412BA5B1F6CCBE98DE
:1050900009D9C8286CC2BD98024AF371FD32A088B4
:1050A000F030072C194441B58096B0B2BE98232643
:1050B00022B3FDBF0229B38CC641D7F8FCAC9808D7
:1050C00043DF9880281408040D8A7030FDC00A015F
:1050D000202802DE98F582065048E26B39FCD6C8DB
:1050E000F0D8968181C2B1A9C4F930014488E42185
:1050F000F8BFCE9807D40364F23010CB1B19FDF033
:10510000F830070A6040B13C0F5B980C64C8AF737D
:105110001E9819C2801C368310B4A2B3C8D0A5FF54
:105120001C11CB720475B3C0DF99E648110431300D
:10513000C43C9835881C83243D4AA20104CA3F1A06
:1051400021080FF31B22FA6765C879987F87092029
:10515000F2110601842ECFF398F462778223417115
:105160003070EA0590BB0BD8F2C8B8CACCF398F8F7
:10517000B4B93058020BBF0F1067F9987230F2B90A
:10518000300369CD309007FA522F63C8C899FA04EA
:105190009F6709CD489A2F9431087E0230FE123065
:1051A000B6D8E09C7A0C88EE9719FB8CE1AFA27F11
:1051B000D713DA69B10846AB78AFDB3E0126B340BE
:1051C0007A3152FDDD050762014C3019313688FD18
:1051D000BEA5B550F55314A6C4A1C00842B12427FA
:1051E000673084065E98E550032829DA82AFC09FB5
:1051F00074FF61204090FB213041E8FD332BD13713
:10520000AA06FD498D75ACC6269D250197EB981021
:105210006D5BFC1637EF90077D7FDC5DD8800196D3
:105220004DC89322DB56B461E023A60C1C65D378ED
:10523000F07898DAB7FC816D65EDB577DE120D7701
:105240001B431B9DA44080E4E6F39002280A2DA294
:1052500065C87BB81A40E92302123B04E80950FDF7
:1052600056E5B74CB3C90903D7C044F77F402123A3
:10527000BE02B7379D73A840C148E6A07E4DC8C6A0
:1052800026DE980965C83BD20190FC5CEDC814107D
:10529000B3E804A6F0A00319EE76500C1004ABBEE0
:1052A000026366F2C8FF0A98FCBFC8CB9830C86496
:1052B0003D0D20B0FE1FD1A6E946AE80C0DB49C53A
:1052C000757FAAB350DCB3BD98C265E6C840D7D994
:1052D000340131DAA3F9792884114C79B36E610273
:1052E000311971B3B75BDF686EB5E0E5304464C86F
:1052F00080AD378360143EB311B010F0BA64C68C31
:10530000FFA3B31F65FFBCFF9D6DFBDD554B9001F7
:1053100038F3CE31D1C6D398FF030481FFB3B02850
:10532000486D66A3FC4CD9DDA310DC0C1A66B1FDF8
:10533000EB8181A05E48A06EE72CF571C708622E54
:10534000ECB8F9045E447562663779D0B824162249
:1053500017DA79FD82EF65FDF918C963FDCC58FDB8
:10536000BF98AF46FFB202F3F0016DC66DABF8FC1B
:105370001831C7BFD8CA608BECF8FB6FF6AF3EFFA1
:1053800063E53FB4E3FB6119B88CAD8A011600B048
:105390001BF7FE091079A595FDEF98FD8C2CD10126
:1053A00061EB40623E16810418B2FF4CC92BF50A2E
:1053B00010C770E4F17793C6F4D8F9B3803FF504D1
:1053C0009688DB33DAFF2043D8812B6D58F5042211
:1053D0004C955128D984BCF8C58DA540A0DFA5E423
:1053E0003EE31169B0882BFF05681EB607426B01CA
:1053F0008368A14161F904080AC8932AD0F15CA22C
:10540000F95923B8A52FF50381D65325FDCC316476
:10541000E8F9A83FA01FF40121E490508071F07DCD
:10542000C240082614D25035FB8A78E8B1B3D5FFC4
:1054300020DA941199DDFEB0FD9DE6C5EDF304027E
:1054400088ADBD404EC0571622DFE1DE6B02211051
:10545000FFC927451957626786180F5AFFB1586E62
:10546000D8644051D6FFFF2DDB18FA18C35A7A6270
:105470005FFCD8D8FB56CF7BEA40105C401036BBAF
:1054800023B2013BF6986181B318C4A7175159B1F3
:10549000DFEC65AC0D1055B808671EF3FFD8D8FADD
:1054A000BF184EF72F640132D44C842ACB7B3D9336
:1054B0000267378FC8F898F96DFB359033F0FCFC24
:1054C000182436FF89FE35E04D58A79F49FAD2408F
:1054D000335F5AE020FA32CD8F05E1804F7A3744AE
:1054E000C6FDEB046775EC71309BFBF9080E3EBFFF
:1054F000B8CAC2F1C33262D9A6B4B830B3D8AEC20A
:1055000065B3088EAC2480433B1C58FB14EB821D12
:105510003269CC9430FBCC1B6F3F2480F6F250FCF8
:10552000C5F2E95880A91E6D4DA641965C7D64BB0D
:105530003604B0FF0B7CF2C696D19017761788DD43
:10554000F622466F624130C3EFDDCC40C673DC30DB
:10555000B0FEB5C3106691F863FA0E7FD8FF5C19F0
:10556000B604FD65407D77760C30C9F7B1A4FE0224
:105570000211C28D5BFD40A86D08F3CEDB67FDE52F
:10558000206F9D3F8040A0BC16AB340838B3ECC2FE
:105590002E419408D7CF08B4C7E57180662A829956
:1055A000E2ACFAE89108F42501A9FE2537E380A9C9
:1055B000B35AFB86EC280425FECDCD65B214CFDDB1
:1055C00052112948CC4004D00654549A0AC928687C
:1055D000E2F8FA4E885467F45F3C0D5414328A8323
:1055E00001D63F41822267BC18E9325AA00912D481
:1055F000914262E121713152C0261876421F09287A
:10560000209D01BDC0FA923C6569858B64CDB106D1
:105610008D6D42C8FB7EBADF554908B473F34B5910
:105620000238D385E1261297E48125101B3401F35B
:1056300034F3801EC0A0FA61875EC85D67FC0CF27F
:10564000A644FD107BCB31DBF316733A3FFBE00C35
:10565000F81413011468C0617F2C71FC5B65785DE0
:1056600085EBFF183FAD177AD3C20EB25BCB14CBDC
:105670008E56FCF8E6F13DF6E32DEBED24667E4018
:10568000C8BC98C573490262A6B47F9D73BB4C0227
:105690009B34D0FB0A7433DDEA02667AC202D5F786
:1056A000B85C7D61FAFF80BA27EE6C6FE0FF35DDF4
:1056B000E30888F35530FC61CA6E04CCEED3805801
:1056C000C556660C39D1B719CAB201F8B3DAF0FC85
:1056D0006FFAA0065E5468E05FFFEF4418116CB0EB
:1056E00010324D7210CE4458136208D8BA7AC641AF
:1056F000280CEF1034107079191BB399087D1767C7
:10570000FC2EB3E0FBE4186FDE3A20F8605A7DAF60
:10571000B07818D3F6C1171C26F60FE63CC4D0B3F8
:1057200040321EC0D313D40D01B3F7C8036140B794
:10573000E668FA9AD02F19121E38DE8402059BF70C
:10574000412415F697C0880461B249BEBCEE271A01
:1057500001F8FB80F90531024001A0B503FFB0124A
:10576000C0806BDD66903189765D11FCDA3803A963
:105770001316AB8128C073BBCCD0C4FFC0D2389005
:10578000EA1E8E50F4BC34CD46901608C254E6C4CE
:1057900077E134459BFD5A0312A26A077CFC1A503C
:1057A00002482C03600F3D1018FA2BC3E8D9B6E36A
:1057B00058C40620B9F3BA0C40E618A7E8CC18C3C1
:1057C000FFBDE1C680D20220D341B79AF96EB36F14
:1057D000B4C8D377F2602C84E6C4F69293E005B3A4
:1057E000016CB37EB3F82C90FB04DBB8FD7A79042E
:1057F000EFFFACA0011481065004D98220BE986D41
:10580000F3742384766B65598FD939BAFD8AF71002
:10581000402808E63F1CCCD9E3592554936D4DB779
:105820009998BDEF9B06EE1018DE7CF0FBF1DC983A
:10583000BD1E16C03826A0076883CDF59808BFAFF7
:105840000010F598C8F9216BEE98C0026184F2D37C
:10585000CB28FBE0D6C49AAF1920820681BF10C0C6
:105860002CD604581987E77F408E4202657FB450DA
:1058700008EE01408001979B88FDD7F5B903F4EE4F
:10588000282D74DB39900911F39840E057237DEC03
:105890007A25C680762F3F98FB1871F88DEA7E1C1A
:1058A000E7462480079B94F304FD9841623E98B537
:1058B00024F2981764E0FB9812405E987319105018
:1058C000B7F9E1F1B6BC400ED9710C5EE5B1102D0F
:1058D000BFE3CF98FB52D57C08E7988266DA79FD62
:1058E000FAD258BB64027BD3204136A7059E4B8277
:1058F000B0C51BB3582028B3100D15B302F332F610
:10590000887E503DDAFFF45014A2425110029604F2
:10591000A62DCA3012FBDBF830DB53610AC5285FC5
:10592000BAC344348EF8C4B23996D76029C730FD63
:105930007F88F5EBEBA748F830FFC5828072EA302C
:105940006F43C1FDBF20DE98628719F230205EDD13
:10595000EF7FAF9840770C10F90829BD02B30869B2
:105960009E191040808E09F598307DC4887A981170
:1059700004C0DE18505B6AA1D02101C0095110FC9F
:105980002AFC8091300677B4246021A92BDE833075
:105990002466442C9089B3F17BFE116DED980B04C5
:1059A0001CDA956DE498F1354BFAC730FA98C41DAE
:1059B0007AFE985C30790989F23008DFC898115175
:1059C000E025B7B998E0010DEFAFFB35B2FD83607C
:1059D000C70FFCECB5D2E33065BB12B69A2EFB982C
:1059E00004036BD0679B789834E4B681D9E377DC05
:1059F0002368384BD341DC22080C81D9E642DEE72C
:105A00006AB39B01B31471B3B972B30975F7D8FEC9
:105A1000FBFA84DDEB0B60023ED21480405088B26A
:105A2000C8CCF398FEABFE8E71EFDB2F59F99826A8
:105A3000FD0AA22816212207340A68647230835FA7
:105A4000A9E74819DDDE98B2223C983B3BCF983F4E
:105A5000D8FBA2B0FFFC98EEDF4903E9C53010592E
:105A6000C8BB10D6986421ED98E481BF99987C302A
:105A7000DC200CC6DBB8FB7BCE40032E1C13F538B4
:105A800017027F12307C10CE577B047C04C0820248
:105A900050DBF6213FEC9010014004885F54EB216D
:105AA000DAFFE37F3FEBED6628C241FF5298408961
:105AB0004265DA01DA91D6BBE70FFB9813025EA7C5
:105AC000AC4580C8D3D99884817BFB0198FDC04147
:105AD000F2C89ABC1040F5D224A658C8AFAC98447E
