:100000000C94BA4F0C94D94F0C94D94F0C94D94FEF
:100010000C94D94F0C94E4530C9444540C94A45471
:100020000C94B7540C94D94F0C9415530C94D94F8D
:100030000C94D94F0C94D94F0C94D94F0C94D94FA0
:100040000C94D94F0C94D94F0C94D94F0C94D94F90
:100050000C94D94F0C94D94F0C94D94F0C94D94F80
:100060000C94D94F0C94D94F0C94D94F0C94D94F70
:100070000C94D94F0C94D94F0C94D94F0C94D94F60
:100080000C94D94F0C94D94F0C94D94F155B335B1A
:100090003D5B405B435B465B495B505B995D505EFB
:1000A000A75D505EB55D505EC35DEC5DC35DE75D11
:1000B0007F7F7F7F7F7F7F7F7F7F7F7F7F7F7F7F50
:1000C0007F7F7F7F7F7F7F7F7F7F7F7F7F7F7F7F40
:1000D0007F7F7F7F7F7F7F7F7F7F7F7F7F7F7F7F30
:1000E0007F7F7F7F7F7F7F7F7F7F7F7F7F7F7F7F20
:1000F0007F7F7F7F7F7F7F7F7F7F7F7F7F7F7F7F10
:100100007F7F7F7F7F7F7F7F7F7F7F7F7F7F7F7FFF
:100110007F7F7F7F7F7F7F7F7F7F7F7F7F7F7F7FEF
:100120007F7F7F7F7F7F7F7F7F7F7F7F7F7F7F7FDF
:100130007F7F7F7F7F7F7F7F7F7F7F7F7F7F7F7FCF
:100140007F7F7F7F08277F7F7F7F7F7F7F7F7F7F8E
:100150007F7F7F7F7F7F7F7F7F7F7F7F7F7F7F7FAF
:100160007F7F7F7F017F7F7F7F7F7F7F7F7F7F7F1D
:100170007F7F7F7F7F7F7F7F7F7F7F7F7F7F7F7F8F
:100180007F7F08157F7F072408057F7F7F7F7F7F24
:10019000080D070B07237F7F0713071B7A7F7F7FDD
:1001A0007F7F7F7F071C7F7F7F7F07147F7F7F7F1D
:1001B0007F7F7F7F7F7F7F7F7F7F7F7F7F7F7F7F4F
:1001C0007F7F7F7F7F7F7F7F7F7F070007047F7F29
:1001D0007F7F7F7F077F7F7F7F7F057F047F7F7F9C
:1001E0007F7F7F7F0F7F0E7F067F0D7F0C7F7F7F5E
:1001F0007F7F1F7F177F167F157F1C7F147F7F7F78
:100200007F7F007F277F1E7F257F1D7F247F7F7F4D
:100210007F7F187F207F217F267F227F237F7F7F24
:100220007F7F7F7F107F197F1A7F1B7F137F7F7FE8
:100230007F7F0818117F127F0A7F037F0B7F7F7FEC
:100240007F7F0810081F097F080F027F08197F7F32
:100250007F7F7F7F08027F7F081308117F7F7F7F6A
:10026000070C087F017F080B7F7F08077F7F7F7F58
:100270007F7F08077F7F7F7F7F7F7F7F07037F7F71
:100280007F7F047F7F7F1C7F1B7F7F7F7F7F7F7FC0
:10029000037F08100C7F247F237F137F7A7F7F7F6B
:1002A0007F7F0811147F081908200B7F7F7F7F7FD5
:1002B000FF1F627FC23C006088FFFFA008900132F0
:1002C0004006C8C60019FF03050A4414812241CF25
:1002D000068AF3200365E5A00C94EC9AFF3FED81BC
:1002E000325006CAEE54193069E09899C6888200E7
:1002F00079D364800CB907F800F014C00258FF0BE2
:1003000060012C80040C080A790270F3A640F30502
:10031000A043E6019CB39912E050DB81C0280DA2F6
:10032000E050E4D334C0D3B09C16B998FC262CFF1F
:100330008110028C40CF40EA408008467DDA04807C
:100340002CE008A6E4D8F9030486FF98FF60FC209F
:100350006804824DD47A01FF42FB8B78360405A8ED
:10036000CCF5CFA0CFD6D0120A41A40116B06B14A1
:100370004751200804888165E4F8BC05B946EEC2FF
:100380004EEBFFCED609F80680232021D8F79D1F1B
:100390001240010FF0CA248010A0181208F5936FC4
:1003A00040E7FE84A05EB5D2D10308B7AA6250D45C
:1003B000A5CF796810348212C0B91AF4857BDDD0DC
:1003C0004833FC88FD2CF9A001B4207819B6815877
:1003D000D66043FFE94130100436691842EFC0D7B8
:1003E000DCCD840130E9ABFDE0770168B3B6404273
:1003F000F606D8031098B4CC3C302C20BCB310D4F3
:10040000B3F6B00F809EB398FD2041DBE8D48DDFBA
:10041000DBA7100914786691B02014ED1BB34004DB
:10042000C0B3B42766B310C8FE0A44967601C61A54
:100430008A6F5858F2019B6630B00322C05E9671F5
:1004400083A1667ECF0B87B31C3022E9C8F86070A9
:10045000077B5068404716B0DE1EC8767A4024B34A
:100460003FD33C8805F12094066BBD7FA9B4F09E74
:100470000333BD0E753C0F08F87FDEDCD6B762494A
:10048000CC18DFE3626166D7EDCCC27CDC3B6FDC6D
:100490007F03665FB2C068FBB851B3DFD798028BA9
:1004A000B3F3157AB30998402632C01BD0A08267F7
:1004B000B3A82088D1FDA019A7B56A2824EB20B4E1
:1004C0004F5E9803D5B7A4F35657F8A20434FA82C6
:1004D00020C4081BF8CC310D839E2485D0088ABA2D
:1004E00051EEFDF734025CFA80B7EE32826BBA400F
:1004F00030EDA8004637FB9BCD873DCC81D3301033
:100500002618086AEC44F3B568E43BE660F9BE6679
:10051000D3F34661E8E05ED26DE698E6B34F6E95A0
:10052000844BE0F2B394B90E7946B3FF929E30DA71
:10053000FD88458F192EC7888E8FA023F319CCE034
:10054000E6FF21B060D9D0695810A10DD38009E031
:10055000C082FA18020860241CE5E67BF81950F8FE
:10056000BC8682931040862277FB7F090360FFD907
:100570000167FC320C4210D7DA98B4DB2180E14BE2
:100580008D42971811B89789FB600DBD984872C2CB
:100590003CFF7798C00379361E1C087F9798A415F6
:1005A00032E0CFE87843E2011C734316C80A5AD3FD
:1005B000FEA898FC0440DBD798209F66E6E5DFF9AB
:1005C0006711B372E9E010A97F40F042FBD3B68512
:1005D000F6C0B1FE5A5BB7B3222137D328408BB3A4
:1005E000D314FFCC05A2405EF05F37A268D3DA06D1
:1005F00077CE580403EE21207023FDA0CEEF10D15A
:10060000FF4A9844EFF3D2FD8BA1B1684E7C305184
:10061000148142120D1A01DAAEBF1080307D024300
:10062000030884DE98E506F0FF5C7A09C0DF68AF56
:1006300046C6CBFF685F461ADB562F8F307739905E
:10064000FFE0FD77FFA26FF5CCFBFA79122EAB57D6
:100650005D104B1AB3FE9FD7AB64A537F2EEB3E83B
:10066000FA24EF38EEC61A2E930203D3C35AB2FD12
:10067000EA026DD9A988DC8014BC988B668F84E669
:100680003050203BC7A82CA8FEDC84446F48D2A081
:100690004E35F7FC2621B2EE85B329AB4F0411CDC0
:1006A0004002E6813B664484104E7D3050081002C3
:1006B00001CEB322E0FAEE1B3023206F5A980CFED5
:1006C000F610CB5A1914AEF8EAC915304B16585E1D
:1006D000C041F0A20E162E196C3068FD8FBFF0CD10
:1006E00098FA71C53ECC6EE908F85248D98F0416C5
:1006F000896783F69C38BBFE95304490AE34132056
:10070000D36CB4B482E8B10CD7A6080531F7014424
:10071000C18836F14148AAD6182E7CAE7C4730F805
:10072000DCA030907F9D98F85C942DF2BB96FF4240
:1007300077BF9811148402D08229ABFE810E809F6E
:10074000C6D0840A41A1A2282EF65E68F9C9EB330F
:10075000821832F83003379A30848159E1C247E673
:100760002D0C02793090DBFEE072E383FF35982E8A
:100770002F3C30BCCD6EFF8101E38AB51B60861033
:100780002BB906C171C1E383E6F8ACFFDAC8807FFC
:10079000E8402177DACC37B2130AF9A9887B4B22DB
:1007A00041E310C202A6B30408E4E226CEA618F183
:1007B0006144FE6B30ABF927C8ED012471B3EB66E1
:1007C00022D6CA8B9D17B5065ABB0AA7F885E00842
:1007D000C01E183D0337D58482332FC48880093A60
:1007E000A70C02EE1E41FCFCB8C8430D49CB4E2CB1
:1007F0004FEEF603782E5E332335F4E0CC412C63C4
:10080000F0081ECB9D300BE0810FC6F316C00287A7
:10081000580E5FEC37E2FEEE0CC0E0D28C8FB6CC07
:10082000E37D3BBDB1890111CBDF18530C4EC06491
:1008300004EE60100C6FC0F1F9CDC8C02FD290F15A
:1008400098B07AD743C53930C0418EBAA80419741C
:10085000932248A1B3F086A082187D0B62040C0D90
:10086000B452FBEFBD10040240EE63280CE3304F9E
:100870006B988908DBAB01043BBF64A411B4880604
:10088000BDD1F00C77819859C8C1024331FC2C13BB
:10089000C688F86FFBEB03CCBAD57301B69E1DF981
:1008A000377781F1D7B1E2B8F33D0C043739A8FDB1
:1008B000BACDA02004F0986C8E3430D49031B38D32
:1008C0003AB1B8EDBEECBCCD81EEDB6073300361B4
:1008D000CA400FF6EFB6FC084071197AC51351B63D
:1008E000F6AAB3028737D13001B4055BF144670A39
:1008F0000102912059C3721748D37AE38210DA8932
:10090000FACC6EC6BAFA75D7168124E6C59C306A51
:1009100074B860CFDC33DB7CD50408829B877358C6
:10092000B56224D08085EEFEAC90200842840C860F
:100930004AC2FDFCC3C870B51EF6980C08D1437AB4
:100940004CD0803CB502D3E57F7DCF3C9007B220F0
:10095000DE980F0BE27EDDEDCB3038FD9808DDB080
:10096000FAFCA40680B606E33073C97FB281D3F6E1
:100970001145406B97F512C67608B8233BFB3A79D0
:1009800085FF507672C82218DBEF37DBEB7B4F59BF
:10099000980ABE985991E21124823DB308B8A0B3D9
:1009A0008679F6625E69CBF5F8A00402F47F90DFE9
:1009B0008128BB9921442968F8E5A2013012ACAC2A
:1009C000BF36DF85800610420A088BE085BF0888A5
:1009D000F7C65163F97B982CFA641F3EF67E5A786D
:1009E0003059D6DCCA7039A38466BA7FCD5AD34851
:1009F0007130FA530C8CB6DF46AF3903BB17806CED
:100A00009968AB7EAB85066809B351CEC011F71962
:100A1000B6B7FC78F8F330D02834F090EC6EC335DC
:100A2000D311EBF73573492FD54B44E9A560C9774E
:100A30009E0BB3B5086E6693FBE73046C002EF9895
:100A40000410FC32B036BB49F5142C0408A62C6FF8
:100A5000E63208F64024442A11F578801A709AB3D9
:100A6000ADE139393031AF205C9839CBDA3C2072B6
:100A7000307A0F0F6080B30CB56272E9403C909001
:100A8000167F8B98FBD8D31ED0141AF85E98DFA07F
:100A9000F9C030D7D712DB38F56417660B5DA56552
:100AA0006E8297AB0A20BFCC40714BFFCC36EE6113
:100AB00080E56FFAE030190218DA7F9B9809B339A4
:100AC000B346F0AD198802BFDC4CEBDD4010F244B8
:100AD0009718AE01B302B460DF14E8FCA042E2292B
:100AE000B9300915BEF2611A408CB8B5362422CD52
:100AF000DC96280904D337298A7A9805946984F307
:100B0000F74244082A3CABB41098F817F25D20C8AD
:100B1000F395277269105ECCFD7F02A7193D3E98C0
:100B2000B7C01DC95438FCFE980DFE336FDB641C42
:100B30005C86C8DBF68752FC7DD630085FD5E4982A
:100B4000CD01FC3023C1DE20B3EFB0FF24F2986862
:100B50008C200173D41968B3089D59E2DAAFFE8086
:100B600091300246C048FF519888B1EBB3055D7BD8
:100B70008210A0FB84B2C872B65804C3DC6656B4B7
:100B8000574EE3C88033751503818406F7200204AD
:100B9000087A2E844D49594612997D21E7B322D017
:100BA000F969E598C6304FEBE4068630C768BC9813
:100BB000CD75FFE0013C9D9B2016DEEF5FB168F331
:100BC00081C85819F99B06F8F3C36F968C665F25A8
:100BD0007D3183891EFF4FA24004EBA4FC935C3956
:100BE000662BBCCD984BB365AAD9BECA58B3D18F7A
:100BF0002E673EB905B2082681BC9891B4481A2BDD
:100C0000B3908E307CD8A82058FAA0ADBFEF29044D
:100C10001AF2EBFB7B4E5A5D887590BE5BC7FFC432
:100C20001481035028497368E04EB44220D47EFCFE
:100C3000049308240DB93002CB54FBEBF87CB44F7D
:100C4000E5864099F64177666408B110D04159466F
:100C50005E982E39FE3290F9FF7698F0200657C83C
:100C6000CCF3161286C46BA481018F1006A2404FEC
:100C700040B30E4ABD01F7E58003622FF3CDC8FFF4
:100C8000A71C30D66FE698EBB804396688C045A03B
:100C9000F71684220237B30D2075A426B3447C8254
:100CA0009E19B020C3FEFE213019CF6FE798FA7865
:100CB0000457875B37724C01D53288FD10212040E4
:100CC0004898DA59E68C8085E0C6FCE522420C5C47
:100CD0006B2291FA7FAB98F08C6A95191ED9C85D8A
:100CE000FB8B3C0768BBB590EF5CE8012C32D3B2BC
:100CF000E04F56830FE201DF3CA0E698B9C807D861
:100D0000FB7FCDDCBA1893D7FEE5E8FFACDE8005AB
:100D1000F036D902A76677F44480B618EA5726C69B
:100D2000678320FD051599647A9808C8EAFE4B0C84
:100D300061E0B61C235FB5BE7EB38449204216C075
:100D4000B803E23AD3EF4F7298136044B39899A86E
:100D5000FF4C6DFF04629ED57F198BDA9245B3F785
:100D60006CE57BFBF06719F3CBAC2263E0CCB5E616
:100D7000D310FB030487FF98FF2863466671D18E6A
:100D80002C3990DFB7CCF24AD3461B367A3517EBB5
:100D9000A5DBF7E0F96FBCEFA0F5B11097B6EE79DF
:100DA00066E6D3E4EE667F5CD16606FA238DA0CFBB
:100DB000BEDB32CC4454B1DC91F3BE7FBD15396843
:100DC000B1F95F84F9C28F82CCDBF6CC584FEDCC01
:100DD00008CF3F31FA3DBC9A991D24DE550248DB0D
:100DE000761744ADCCD0FC85DF00B14084E5D8B2A5
:100DF00066CC65FDD9EC80FDED4614A60073E54098
:100E0000FC2C4B235B6F20F8C6B11650E31B7CFD16
:100E100075EE068B9AB7979019A8E2C00AC96C7351
:100E2000C8FD541C58C8CF99E4CBAD105ED917FE4D
:100E3000BFA5B50431B45FAD82B40006BEC9354963
:100E4000CF072050FC47BC90A3C04C0828B2EE7ED0
:100E50009F8CEEE3B394E581FB6C37AE023FD4D4B4
:100E60009B0251DAB8FAB37A0244EA40D60128E983
:100E7000CDC0BE9079968835196080BACF342D8563
:100E8000D2C068C8888BA9535219BC0A3DFD1018FE
:100E9000F927B406BF118038D94508790320D40159
:100EA0002E9D50CE220103CF39B36F842FE6419699
:100EB00021C7100124C8ED4CC260902D13CC48F915
:100EC000079B1B8B00DB14F30318F27DFD3209A78F
:100ED000FAE758FC801791ACAB9310C288323F26DA
:100EE0008262BED8B301BC9D771C100436A15CFAA7
:100EF00028CEB10125F110A7D7B9D894A3FF28FEB9
:100F000067199AE93240307A3420F369163F90F637
:100F100061FD14F61C08CD3C5324F37A46F950FCCD
:100F2000DFE5B6E484ABAC047EB35A79B924625AE7
:100F3000626BC6102EB362DC6BDA38FE1858C799A4
:100F4000FD8A1D40DB9C17EE53C0FCC5099BE004E5
:100F50006799B1E2BDECC9573410F6CC0801E642FE
:100F60001F36FFD0FA33B6713BC61F7F76D6B9FA6B
:100F70001F8B70A6661238FDC8F5772097F6402DB6
:100F8000967633DD44B8FE9BF66CAB9A041F1BAA21
:100F9000DD0863C866CAF8FD58DB23ADFFB8F41559
:100FA000C27531018BA5D188B38243FF98FF63E6F8
:100FB0006A666CA70265D7A8B0FCAD84407A192098
:100FC000C57D69B86147AD9801BF1301677D18B24F
:100FD0006228D819C7FA17F61E80203F1004406710
:100FE0001B52ACD4F873CCB0F7EE210C84B520DBE7
:100FF000E977E28040087A9028D8B3B627C25E37F6
:1010000040595620DCB1ECB0FB2067C8A99FC6D67A
:10101000ED0863F1FCFA634A7904584E108FEC7ABC
:1010200002A2A50BDF407AD381C4FF321467A9A6C0
:1010300004B908678B3FEA2DA4D0B6FC25E2FB205B
:10104000E7468BE1C42FECE2E341C12238E8826C31
:1010500088F410052DF0FFBEDE83DF64A2F3011BD0
:10106000D30810F3D5F492139E8F28402080F418F3
:1010700001BDF1AAC8CDFA20FA30EDBB0102E0664D
:10108000DA31AE4301CCE60456993815E652436B8B
:1010900006903CFC0A012C090DF3A024221309D868
:1010A0004286806ED6FE207CCFC6BF023614018FEA
:1010B0002D72C88188ADF4362154D3D6CA408092AF
:1010C00060284E21E184808362D240D23198D4C01E
:1010D000989E12E8401067D40CDF60FCB1803FD8C6
:1010E00035814DD49BB06DFE0D08C0FAC9FA5D3252
:1010F00062BDBC202FA335A2E8C033021180727CF0
:10110000418862E3BEF985CBFC030647D1F2CA10E1
:10111000C7CB832D23179380FCFE2679E1B37C6433
:10112000FA629BBC79E1DF0D1199CD3601048CEE9A
:1011300079F0C1075615205698FC4D96793FAEEFD1
:10114000C8FB40DDB4806118C1B3DA96D810CD7900
:1011500088FB8FACC204C0306CF51C08B7B6FC78B5
:10116000F9339B092108D655244219FCC4F831C42F
:10117000CC0E7F7B6D28FE3FECB47F42EC88C43EF2
:1011800078C5737B0464F62B08C21FCD3D105E400A
:1011900029FE80D1B8B0FBB82FDFF40230F4667FAF
:1011A0005CE8FD66AC9080E32B75B510BAC940FCD5
:1011B000DC7402EC666E3DFFBB310648F5984DCEFF
:1011C000B0EB4193BB30FE12621ED7B44276616829
:1011D0001201AF6F82100801DD2140BB707065669F
:1011E00018897EE430C617056019ADBEFBE540FFE7
:1011F000E0CDDF98B91CF2037A94F094FC83F336C7
:10120000FD3C20BBBD0CFAC0FB0370200C6255ED09
:1012100090FB344CE6A0FD6D0120CB091A23F69615
:10122000D0FFFAB1341EDEF0097CEC036802836F54
:101230004E005B72B3FB80B33337F75688AB692C33
:10124000960A1021FB260AD3F983740C2DC61FC7FA
:10125000096360448C5F22FD1018FBE0811CCD19EE
:101260000604CB190227FE0C0F64800CC416661806
:10127000AF19784001E078B4A1C6F3D332BC3CCAC0
:10128000966611E480056425120C198C7A8C03840F
:10129000F8C606AAF36026D37C80FA3609B0CDFBE7
:1012A000A2CEE033F38F1B5E4941F9E843400819B1
:1012B000D47ED9B3E0F6FF201001866C778098D9F0
:1012C000A001FCFCB708FFA32811016C07AF02B80E
:1012D000804F25C88DF5B19E4DB1064DA569B4046A
:1012E000CDECF98092D9800FC9F1984A59C3669123
:1012F0006ECDAFE57F209FAFB6E31E80DE98FB701A
:10130000FB08100275190DBFAE9810581911B1578E
:1013100078986B8266641A44DBDD9819FD801BCDDA
:101320007764800864F99818AECF47B2DB010C3EB1
:10133000A7201360042C61C130FBE1FFE080435320
:10134000FE3CCBE5A4608C6E90C00618408D73BD4A
:101350009879D7200F4F845FF9048067F61720C271
:101360002D375C5B4918FB98D0FA0204C93CB39254
:101370005AEEAC5C8463EB32E841ECD7EDDF98B316
:10138000F0F98D39309AA644FB8122DBCC985D5F61
:1013900030B402F7E74880016BE878924FF1988605
:1013A0001035D6B1E266EAC7B2C45BB619213DB1C9
:1013B000B604F598B069AFFC30BD18B744657898AD
:1013C000B1431F5B983C78987D0C82AAB388EF5399
:1013D000984016F0FD138020686682508D57BD98A6
:1013E0000862CD19B408A7BB98600220642C41168E
:1013F000BDB0E3B2FB04DCA1E010A2E1DCF38B7F23
:101400001B9839453FE820E98FBE4B4A82766DBB79
:101410002A9E308009301234FDDFE91CEB98C0951C
:10142000D4E4C610FE98B2E03A17DB53A709331094
:101430006BE298AAD7FBF90EC8B930E8CE813C8D93
:10144000F904FC975EE3F7A08401648B783912FB02
:10145000327D37AFF398FCE54ED3E661FD0648B028
:10146000FF01D20B6EC0A3025C1419B3EEB08B7FE8
:101470003B6140410C65B301B3B370FFE0A0901431
:1014800036D6AF8124FFB67FF59804BABB22DFFBC6
:101490003224115D1DAFCA8005A79E4BFA77B49820
:1014A000F4F9CBBC08D8C9EB8755194088F6FE1073
:1014B000DF6656E041D76DC6BD9818C0FF80BF39C2
:1014C000ECCCCE160D192AFFB530F48D70AF9FB756
:1014D0005FE330FD98E091FEACDA6D83CBB4217D03
:1014E000BC58D71B3B764902FEDBF6688480888DAA
:1014F000E11A45B7B39803FAF612B8022C50AD0FB3
:101500002B91FD100167723002DFB6F680C9F70239
:1015100076B590E330FF7F118D3019F7FE60012C16
:1015200022CB1634F39827B017609B9ABA897B3A7E
:10153000CA69DAFE80CDC860B73E308378100FE20A
:10154000BD98609BF95E11D69510FEA5B1C0AE475F
:1015500037106F96C8FC306DEDE569FD1D23FB1D4E
:1015600050D67F84C7B392193901C57D4B0359C842
:1015700065F1300EB3F6FD20BE7F8F264B302190F3
:10158000551991FDF7963428DF706DFBD5A44119EC
:101590002DDA0489BFB3924841082481AD01E5B634
:1015A00038FF2588F148E6A4BF697AC302C4345FD6
:1015B000E3D3337AFBB8F915AF75B691A7DE0219FC
:1015C00034FD01C29B60E910349BF33BD0197025B8
:1015D00008BAB6E6A9621942E785FC0848B7346D37
:1015E0007540244FCD4D7620B382AA6E42D4190B9C
:1015F0005D9D49C86804B7BF1F5008234042487723
:10160000F3DF2AFFC501900876ED583F0E011D1A41
:101610006697A45B84FD3C9DE99803DEB6046210E6
:101620000410F111288252A9F96B333C7D56401EFB
:101630000895EB98C0F93041DC3C08AB65F7F41C29
:101640002078BF8123076F9CC882380D07E034796A
:1016500018FE9F4266F7CCE53D02A0F356C68223F2
:10166000CB30046052F583D7187BABE1FD0281BE1D
:10167000F9D5B308B282BC4BBDC511621D17B50ABE
:10168000E5CA21B0B3F5C60B6008E49820F7F8A0CE
:101690004194371E0A03AC3340AC8EC86DB002567D
:1016A0006601EBB3014556687CD476BAAFB610F349
:1016B000B7BAFEDB2CC8FDB1A82E5B75201B1991B3
:1016C00003742B1880BEBFFCE04138DFB2640FDD2D
:1016D000F219CBE83325C87AB3F638086819A36144
:1016E000165FEB6D0483AEBF7DF328F9200504DBA4
:1016F000CE7FADE50D765BB669FE316F2CB6C85B6B
:10170000728220065A4B12F2D5F3A2A2AF0DD8195D
:10171000B91002786680B7D3CD104DCECDA987EE33
:1017200069222CED8011013930A2EB60048CCB6B67
:10173000D698E0BC30B904DDE0657B986080623CFF
:10174000CA7E4AC8BF76830FE201BE9801DC304EE4
:1017500021F8F9803D1091DB81842CC38CB3FEDB32
:101760001730F5EBFEF2782C08610F60F329FE5775
:10177000111A30AD4180F7E3886BDBBB093467B2E7
:10178000C8DB488FC0CBE230E6CAF8A01D05CB8786
:101790001A82E637E0301668BEFB670B66545E259A
:1017A000308204EB411897C6257BE048F901A95324
:1017B0001EE6A06132FF408CFD9C94C8AB4A99FBA9
:1017C000FB38BD46B3E7DDF898AE46D817818FD118
:1017D000327EED197110796BFFBCDC1E8434431628
:1017E000CAF8F7045134411E66DABF02F7EE247AD4
:1017F0009841CADDBC0AB1B5BEED3868BC6B061AAB
:101800004092E90C8A9918FF84F61A4642DDBC2002
:101810007F5BF77A9842B4AFC47A9FD7B50403963A
:10182000C89F52FC1040202360013C8009E75CD037
:10183000FAF73D80B607CEC86440DBD798781846E3
:101840008AFF38036E2C30A5D5F6F0A67CC80BE2D3
:10185000413C3E28F880944306FC65E5469EB6620E
:101860003C306A666B9AC882D715E8FE809441FACC
:10187000B3B8581F6D15505D199060227AFA02C5F1
:10188000CBB39B300C81CDB33D988C7677C8C8FB29
:10189000E4C806BE9884A0DBCF98F38B12EB175CEC
:1018A000E2C8280257042F88C26D3228143F6AFF0D
:1018B0008E80D7CC98BDBD49F340632219C6CCE2D7
:1018C00007E13066A3FCE02365E30691CA300CD340
:1018D000333B27637A3C2068197F285A30E66EC66E
:1018E00080FB03FF9CF85EF0BB05B69E08FD6428F4
:1018F000E5D6FDB1C20D3F156F49F8AC03A5D01078
:1019000035905850F772B5EAC3FC95C8F680DE985A
:10191000B750F3984F028BD74DCB56010CC4A2930E
:10192000BB8CE3F7D202F40B79D92C8049F7EE6136
:10193000FA6037DEF0980C8E68300F6889D73BE389
:1019400090036366C41946E870100F0CE7361EC09A
:10195000832FF3E62318FBF3C23FCF985BC640E723
:101960002BD8026C66B710D3AFCE7C2F4234E5E49F
:1019700023B9D7B348DABFFA982C5AFD9219EC4C28
:101980005BC7FD86B64D26F1A0B7A9980AB330B85B
:1019900020C697F30481B3B1FA5F3316FE39C2163D
:1019A000FFF8FBFD2D0D15542CA69C71F39DFB3209
:1019B000281B60D380FE30486CFF98FF6C93CE31BB
:1019C000D1C63990FFC2E581068CFECCF9D8F6E08D
:1019D000A00D3A9C5B93ED9A9E6601E673DF61660B
:1019E000670C10F8B6042351FF4CB61931B13E35DF
:1019F000C816ED24A6D3501768FC8C2CF8CC0C65C7
:101A0000D3D8A3FFFB1A51FF8242B7111ECB8DB66C
:101A1000FF50F8127E8904C78FB6EBBA09BE32CBED
:101A2000CB1F156C5A18FDCD3036EDFF88D9FE80DE
:101A30002B8E050E17B7047693F8C47B3C8061AB00
:101A4000AF90FD620B9E201D597E80A689FA82C050
:101A5000F0FB09BFEF9E101BEAEF20FFA201B1804F
:101A60002FE99A1080FD088450D4C05BA3F54C7315
:101A700021FE08C605017784DCAD06A4A6C180BF9F
:101A8000ECB5F00AE678785BDC970CE0F95250513F
:101A90004201E388285E8EB34C6F48C5D6F3188B9D
:101AA000AFC895B302A66D9F31A581B502CBEB619E
:101AB000105E0F28748940429D02A92001A35402A0
:101AC000204C72C20ECBA368193D33046E7962FFBD
:101AD000C6B302FDB88849FCEC196BE27CBD2B4211
:101AE000DBFBCC81D62CB1BA1EA3962696DD80FCFA
:101AF000CD2DC9DBDAF1FE1FDA005B37011982FF59
:101B0000BD6676EBFBC596B508321A018A7BC0B07C
:101B1000F971E78E75AE8F766C64D76BFEACFE12F2
:101B2000F4AFC63BB640623DA9637C02B1D06FD929
:101B3000CC80DFA0610BA710FB635953A302DF1613
:101B4000FCD520767FFBBAA8FC801EF35E173745D4
:101B5000365FFD49C07A9844C203CD278CF2518488
:101B60000473D689FC6097F632189922FD9D7E5148
:101B7000FEB39666B2100C49B22900D6DBE196B3EB
:101B8000CDDDFD13D8B1FDDFD90720E798FD95E63F
:101B9000707EEDC7FE8CF725591914EB3A2875E4D1
:101BA0004883AFD97FE6FF7B2C98FE66FD5C8719E2
:101BB0006CAC08B07B8B964D20117EA7186DD9FDBB
:101BC0007D342263663E3E1D7B3AE8FB6E8367AC44
:101BD000D88025FBCEB3E6027ED996A6193FF2C87F
:101BE00038C47B52082FD95817FD4A37B3097DAA4C
:101BF000406E94B70458A851FF8B98D35FD9110257
:101C0000DFF0B202D4F7019F91FAD3CBF718D5C316
:101C100004922EB120D68970F8CE3730594102FF98
:101C2000E046A3ECEF2010B3987A06BF7F807AF2EB
:101C3000201936A240BD2DACE56F0284F88C2F75BB
:101C4000142393CF29B7204CC571FD239E0639E19B
:101C50009402E8B90AB3A44EEB8002D081D998D29D
:101C6000044C9D5AF70128C405B3B9CA50816124B8
:101C7000E50508285C215F8A9AE4A07DB078F940E8
:101C80000221E0D046FFC00C080181822E04318E73
:101C900090BF43B010885420D92152CA6A21D8601D
:101CA000E9AE42F0100306963B280102BFFE88F819
:101CB00050090401451D06B0FCE68B7E704E0110F4
:101CC00018F7C41EBB02EDA7454BFE36AA68F9DB28
:101CD000BF920259624A9FDCE00B0582EB21091397
:101CE000D520127D7F1BE2908729D3F081F2C0F9C5
:101CF000B2107E4DCE31722F5AE904254608BEA699
:101D0000996D3988D844FA8F2DD80256A90156D832
:101D100014CE5B539B89F6FE50CF352D30C1A3DD29
:101D20004AD8F84093FB820A0CF795406FEA4BFCC7
:101D3000332FCC6D356BFFB0FFEFE0F36B0CB7E3E7
:101D40002047DEAF6720FEA418FED954027AC304F0
:101D5000C275B5109DF868801BA0F92FCC7470C8AF
:101D6000FDD88530C3A0E0FA63C67E517F8EB449AA
:101D7000A8FDD86E6B2C13EED8A802BE9F27F6E6FE
:101D800067B64A10FB10FC066612784A0DF8F98F08
:101D900018DEFE4EAA9C06C0B2CB9B9588FCBFA75E
:101DA000065CFD5AD4B5444011889D41F3108089EA
:101DB000E6B23486BAC509ED466FA04F1A50044208
:101DC000487AF3306FE668591906D9DC9604CD7964
:101DD000299FFD0C8801C677CF5E01201038BDFF1A
:101DE000B3F00A1E8DF97F06F04DA38378CBB43C87
:101DF0001069B60C10BD1C77A1180BA7B507C04021
:101E0000F418C80378F64DC6F8FCA3664218771A92
:101E1000BD2FB3D0FE5324018C2C40B3F53C820B74
:101E2000DF5FFEDF3269F90360F529ED2008283510
:101E300062C09604EBA466F8F84898080350348C06
:101E400065B11215B486EEF860840A00ABF17944EE
:101E5000FC48040B605F4090881002F0FFFA7F019D
:101E6000F22006F9A9017A2630640C40AF0A0F313E
:101E70002C16199007843668EE26092040C6F0F922
:101E800016C0037A2063CD013C05FDEB19C4FFA900
:101E90002072660889F80C5046B628FF708999DBD5
:101EA000260AB649F2420FFC040362400C80737CA0
:101EB000B8BDFAE0C0DA0281FA6A30ED1D2EB30334
:101EC00020EBB30427BDC6040815CAF9924CB31A17
:101ED000DB68B9F0B340E1C084984F23198C8809BE
:101EE000E830220866B3E050E7400811BC22016BDD
:101EF000FC0C5A40AFF38A4AF3F07EFB22C415CDA6
:101F000018FC98ECE2D76021B83786867911537AAD
:101F1000D30621DFACFEE13BD99AB4B218C5F2D6A4
:101F2000EF5A0267D5FFBC065D45C79601CEE6CDE8
:101F3000ED8CC8FDEEB3C4401CBC583D03EAECF088
:101F4000EEE38358BE0FD9B3117BC80777CC5DEFA2
:101F5000DB3C9FF8B81EC00372020BFF514BF0F33D
:101F600033C90F604210DE58FAA0A3C06474FFD0DA
:101F7000CCB305A724B6395EEF69FAF40377B7EF5F
:101F80000FA692E9400466A10AFC28D32ECC69BEB4
:101F900081043F934766FE6D14BF3B027ED791AE2E
:101FA0009880F6984C04DB574F51BDFA8E477CCF92
:101FB000DE98A4161F83B5D7FC32C00D988417F3A2
:101FC000FD719010A1FAFE98EBB44012E1D6BC1955
:101FD0004B83D0FD9860666B814A84DFF40DEA98EC
:101FE0000475E0021820E7980019971EF3F6FB2C01
:101FF00017A0FF047FE5CB80661A65F8A50285EF80
:1020000016989C5AB308FEAFA2A64AF59002BC9857
:10201000D3BDC4801888C066F18110F789FBBBC2AC
:1020200080040896AD0CB93CBF40DB98805173B377
:102030008695CD1903FA71608190700168415A1735
:1020400019806B41EAF71130F07DCBF640C0BE4DF0
:10205000DF97A402F9982C392297660E2319E666B9
:10206000A948DC4670AA18499B7A98D0759B211024
:10207000E398B31611A711CAF48D6824B9B3C85CEC
:102080003DB3770801B69D63E6985F17FF373028A8
:10209000FBBBE6F08014F6F0CAF7980FE4016BCBB7
:1020A0003058DCFA4D771B6CE181D78E073D30C08C
:1020B000027220A79698EE4E84FF7FE4413037529B
:1020C000FEF16978C916E29546BDC520E3248180FA
:1020D00035E53060FD4AFD416F51FF06086CA5E211
:1020E000BC8202640804C7509DC243A00A7EE380FC
:1020F00009200438F92B9D66C02014AEDFE3EA986E
:1021000040F2981B579412556608CFB3E70BFF8037
:102110008C30D02BC8F6984448E4668CF6A3101196
:10212000889E98A1F1C9506FDB2A06FD98E8DB0173
:102130000C7DCCFEF9F307090F65ED90156A714827
:10214000C8F298F38B9C19E0013D2AB0D3FCD60667
:10215000146EAD3A50BE3AC957F8099AFE7030066F
:10216000478B984AFC98656F103EEFB311C4420844
:1021700065EA2705BD982C848259503CE8BB02D5FE
:102180003305C330F71AE2200168B5F298E0300851
:10219000190F093221BFA89D30425240DE98466E89
:1021A000BEC5F603230A10FA3B42B3BCB5F0AB8CB4
:1021B000E0B49CCBF1985732701BFCFE7B3032426E
:1021C000B4FF3022F346CCFABCDDC814CEF27760FF
:1021D000BB408E629E987BFFB8FD7AF9C26CD10439
:1021E00097EA08D0039258D139CAD8981E2977A9FE
:1021F000FBED359CF298E53081D9C877D7BF203008
:1022000064753C2048D7FE6F36100A657ECC403D91
:10221000A07030BCB364D97D5DE977A6FFA1924C74
:102220002D82204D0812A643C89788E169F4DAC2CE
:10223000DE8BFE1FD904085E985F48AE0337CA5F85
:102240000830DF9759672BCF4BBF122BCB9821C893
:102250005C40F333FB4535D9699DC8B040B79F98C2
:10226000BDC406C0DE98CBE201E655ED64CF958D86
:10227000A20D025CB465799803C6DF1E50DFB10180
:102280000C1098B2FD7F9D20647D7FC766991E5F0C
:1022900073BD22F9060D95E89840ED79300197302D
:1022A00011BBB321884496CA01E9B311A74A7C4106
:1022B000CBFBD8CF0244CE5395286B80909946F53E
:1022C0005AC8DA68247A98C4415C7F173037B0F86E
:1022D000FFF7185040AF101498B25E5A373B861182
:1022E00020BD9840A394E3D7B3103F0203A82390E6
:1022F00091045F8C6FEC9814880EC8080B32F69826
:102300000D207BBB4260F9332FC836154B2501EAFF
:10231000279F300813A8BB067119BF999827D3FED1
:10232000ECF8D3347BC06E68DEB930191EAEC43F02
:10233000D6EFD95C197092034913F2AA33C0010396
:10234000EF7798D0027A73303C08CD06F25990FDB1
:102350006441B037F8043B85C4140AF68F89B3F0A2
:1023600024D71A411230F311FD20507DC9D05FFDF2
:10237000038D832084B068AFA52FD60264C423D90F
:10238000C0BC42C986D4FA5AFE5730469E98533193
:10239000C910CA665628235BC8AF05B07DD24B432F
:1023A0008A481078654B027F1A98A712E0CBEE009E
:1023B000EF0D3071CAAFAB9816F9A9200FFBBB3CEB
:1023C0005DF506C4837A9862050D1BD8EBDD420FDC
:1023D000FC8A0460803C90B7A6F7982C8005DA321E
:1023E00040723062920CD8B3DF35C86092C8B652E2
:1023F00071A904D3C59885E7E2172BD7C197A68B9F
:10240000FFED7E223039DC5C08B5F3EED821F8FF11
:10241000620C8008A4B302A2C0395F195894C8C1E5
:102420007F4D620A22DF7781822A07A009B9025B09
:102430009AF510016884EF98A00046C1EE0258108A
:10244000E8A93229B31DFFAE52C8CA28D7267CA8F6
:102450001A02F298CFA815880068B329DF2462FD1C
:102460006ABBA050344173300A455E3F6998C8503A
:1024700046D312675B45993142B45CE9B19A677102
:1024800064AEDEA5A12FB565C9372A86A1BE223963
:102490004234FA603DC7DB080D1EE91902F45F887B
:1024A000EB16085EDDB1C4CE30E041108F21D3F0D1
:1024B000BF9C27EB33AAFF5DC91007047B78027A23
:1024C0007F1230D380BB64784CAB413C3D90FDE53E
:1024D00096E7C6F55CA26D886B0803D898A005CD79
:1024E0003DE3687BFA0F73C830FFA397827C7EAD13
:1024F0001CB8355FBA42BB64605D4D0B3005DECB66
:10250000FE38CBC224D972B41866B4511E4C0248AE
:1025100090088F3D663355E0277ABF5730932B2CB8
:102520008302DF200CC330C5445C302E74D04937A1
:10253000F10DB3EAF0FA3F36BC0486589C30329075
:102540002C9DF2942DDE784E02300B60153CC73086
:1025500066D5581B6CF4C81ED002C6FDE2010D10F2
:1025600020FDAA731859C95AFB2B72967D81FD175D
:102570007E97018AB67FCA5E4EE19066400AD8E433
:10258000D7A664E669FF7A4B25C844187684412CA7
:1025900004DBE3281FB38F840619F419030C1340DE
:1025A000F9AE30C01608E202015B6466C8189FE00D
:1025B00024208209B2DF08E899C81231AF1A6D9859
:1025C000220D7C98BDEB4A0B21A8C141046DC4913A
:1025D000C8FE43DD53678091345AD3F130359530CE
:1025E00092F9E40AF34FE0A0811408DA38F8FA9877
:1025F00018FEB217F2BB43866DEA8F4074B3475F93
:1026000013399B30D40140EC0CACDCC80CD3DE9801
:10261000FFE65C6A499040B36A19771330391110AC
:102620007A1912D3DFC8551B77C001D9318039C858
:102630008738069AC2C9D0E058B588DE4A38FE0409
:10264000D3CC98A7662280405C301B84056BDBE806
:102650006AFDAE09FD5517E72908807423878301B9
:10266000D7084005308E20FD1F82FD8C8011A1030C
:1026700048FD69FA8C08F97F84DB4C027A980BBD1F
:102680000A88B50951B3122B3B19D50B7FBFE2C2A3
:102690006567C8C2C0F9448808130179FB84041037
:1026A00011A8FF7F05F4F2201E0816880FDBD598CD
:1026B00083CEC7E0010DDFE97FFF13FF1D0B07602D
:1026C000800C90056BC9300BE348F3F07A16C02FED
:1026D00066426B3DDF98F9FC80C480B2BDFC98B8BF
:1026E00030FF325646B3CD0B8BED6D9732C8EF56A7
:1026F000983089C2D4E609DAFF3BBF68FCF903C011
:102700007AD0415AF7F83EAFE05773819FB2C6E7DF
:10271000DBDE3DC1A01130D951AC1A93C8BBA6B4C1
:10272000F81026C184587423DC3E1A3021A8F9FE23
:10273000463054D78208235D85175BFF7140A19A0C
:1027400008A524FB75256620E2010BEF2FD21C1291
:10275000AA4062D3144F20C092161271883FD3A2B0
:1027600009052148FE6889781AB6EA16F3E261FF86
:10277000FCABDD154AE7B8849143EEBD8146F3E436
:10278000DD2BDA60FBE5C8A7119ADE1C19FA81611E
:1027900007306F3C1E0894326ACBFA0AC55BAB84E3
:1027A000EA17F5981E64C895D3ECEA98C16ED00379
:1027B00078EE3730100DFCEE3EC204013241BD0D03
:1027C0007B95204034C660AF59DD69F771BD4886FE
:1027D000CD6CEF796575F2FC302019F3910422D1AC
:1027E000885F655CA08E086FEB3A5746C6DEB2ABD9
:1027F0003A7330212F66DD2460AAB0B2CB83CB665A
:1028000047CCEB8D1BE6AE0830E5C2D78330B94923
:10281000129340FFB361990CC0880494D019D9F287
:1028200003B04006C5BCC5DB39C8D08046CB0B60C1
:10283000F36FAFEC130A96A60A8268EF3F988B30CD
:10284000D3A501F307A1B2D319599BCD012C7AF876
:10285000A1D2A06704666BFB7160B3B330BC88B3D0
:102860006FEA58E5C7037DE507A869C8300C090C75
:10287000063E67181003621504DFF5DF21F9CC1E50
:102880008402A5F1CB48DE784519FF29640A288027
:10289000ED0530024E661511DDF443F05E987F08B9
:1028A00030767E341046C4BD6B23D76004BCE13162
:1028B0004250FD2634FF6FF70535B3EE40A6159E56
:1028C000E5478099358DD318FE79781C44885F7070
:1028D000661BF3B7B522107E5AEF6CB30883B5F2CE
:1028E000BDCC60D3A0FA3081FF507F7DF7C46F6A02
:1028F000DF8E3BD8D8FA2408176628BDB344E758C2
:10290000FD8E013988FAC21366FD92CEECEFFAFF14
:1029100071D8807993FF2E6DB6062CD5F6062E5809
:102920000FDFD97F5189C69BF77F9E93DE44B1DECE
:10293000667DAA94D55C3901A131B0E0066B17C859
:10294000FB637FF9671862E1D3FA62468F9E08B78E
:102950002032CD7236CA5CAD403AB80A65C49BFFDE
:1029600060FD7E337216C60871D68AACBE4096E111
:1029700008FBF3B5D6BD307AD609C7FF170265ACA0
:10298000A7FC7884CFFBCACD48CC6DBD5E79F9A099
:102990006C1809B75C28F7EF81201431E363AA3D76
:1029A000AFF0B2FB4CBB4494DCF6C656D910DC3C0D
:1029B00012FFC5428B3163C43FF27E08B350FDB6AF
:1029C000EDCE48F817EE201C9E9DD30508430282E9
:1029D00077C32867695ABE8447BC50E08FFBFDF07F
:1029E00080AA0D38F7B30210805EECBBC8F9FD6514
:1029F00020D00302544C440568B3EC784F9B9404F8
:102A0000269AD050804A4828FC2DC9F99BE01A30FC
:102A100018F58B0978B8FF9CD54F0CDE8002015E5B
:102A20002A5934CB5816F111FAFD25B87A5338617A
:102A300001416015D4DF6E0405AD11070321FB20B1
:102A40000640F80213F5C90190F3631E5509A3CCA3
:102A5000040159E4736FF8F96E66258B6EB7EEBF0B
:102A600008EBAD15FB45D79B81FDCCC63DBF0EFCE9
:102A700082401008A1FB06172CFF01953A1097DD44
:102A8000ACA8F9FFDA1DE6FA59D18D7A8602C4FBAB
:102A9000C940D890F9EFAD6B40969910E6B129D6B0
:102AA0005BFDFE6675E6AF00067EDB7D1FB4A6719A
:102AB00036B03BCB68FE4555808B192AAB4C0430B1
:102AC00072CCDE4440FAC639D02063BF79B3049B90
:102AD0005908F80B3F3A201D9E9941B3515B38705D
:102AE00098FE0A2C7B76AC102DBBF080359538B162
:102AF000FFFDDAF30199C7FF1A15B7DB5BEAFCF8B3
:102B0000C26DDA9D10987FB1597E76D9D866C6F429
:102B1000AF587C47FB60380A3BB10864AC5A029559
:102B2000B244BB5148F9633F426169FF7C320618E9
:102B300075168BF6FBFFC7F61CCAFDDD80FF8C7A8D
:102B4000EC01C43F483C633FCC618219FFD889CF78
:102B5000FD9902842FC1800110206C3F810C30B19F
:102B6000FDCFDAE21087F76DEB950423CC01FE5B15
:102B7000E3487D7F85DD176E4064ACD9B86066CFD1
:102B80003316B9534067378E78F89E4EA09608D614
:102B900062BB80C48C06B59A089639DADCFBA8E4DF
:102BA00008F059D74BDC040ABC4AF578B0AEECE328
:102BB00022FF32A1D611015ECA4198CBF58CEADD25
:102BC000EC8250FA7B8CCBF59D0199C4F29E15AE38
:102BD000BBDDC0F80813ED2C8184299F04D8A480A4
:102BE000A50280FCD19EB8A5FFC510AE40B04D8EA9
:102BF00009081797D14DDD88FAE380D90281711950
:102C0000A79EE6C6064283ADD2F8ADA0D515404BCF
:102C1000C00598E386C21503FA7105FBE433A3608F
:102C2000F628010588EF0AF8040C4766C102140F64
:102C30009000504B0628787920B8FA706152F11054
:102C400087FEE4811443A5811030F4C13C1884212F
:102C500023B3B1BD380CFC2809019049032377A1A7
:102C6000FC248129600A94F0A92C06A23247425D17
:102C70001F0850FE629E179B8103041DDDDC04FECD
:102C8000650CCA16048227F2F3D0FB205FDD699140
:102C90005300791128330238BEF959E6E4AFE97AD6
:102CA00082819DFC82401011B6BB1EC2E6C4C0FDED
:102CB000612759B2E6AB61DB0E50857CFACF22CE9C
:102CC0008637E7332DFB28086EDE47409E10CC5C2C
:102CD000BADC38FBF561127E80C6B82989B3FD598C
:102CE000B2FB75C4106C76B70416697632B3B24085
:102CF000C792D0E8F86AB862868E6FAC990893E5FF
:102D00003B4B3CD64BB87E98154BA69FC63CDDECA2
:102D1000A6026F78FAC6BFF020B1049DB790F87C88
:102D20000D969B783DA615FBB20D966AD90820E357
:102D30009A87B0B4FD31A9E52F08845FFED818FF4B
:102D4000C2D502FFAEA0359C16DD85E70BF1D79FFB
:102D5000F7FDFDCCC6CB3FE597A6DEFE52B602DB03
:102D60002628C6763738FC72C904DC69CFFBD72F1A
:102D7000765A0157D77B430F68665CB947C3A9C52C
:102D800030E10637D1032CDD2D4559A0A501B490C3
:102D900070537801BF200484001179B669BD78DCD6
:102DA000ECF390FC5FF6030C775B4AE62580CC37AA
:102DB000586D15F0FC57211839FD038041D6DE0708
:102DC00030DD2CB344B452E079C0E279E282196C70
:102DD000D320F3A5C0F303CC5F58FD078D11F70492
:102DE000E4D39CA046442C5466B63697B30897C5E6
:102DF0000E3AF30610DB298BF368B5FF2766FA60FD
:102E0000048CA7026A16C108DF4004B6D422668F7C
:102E100030093FFA4498104360319381F3B040A6E3
:102E200004FF18026360014C9009EB31227097CACD
:102E30002C2BCA1EFE73200FE0019019F02E0658AD
:102E4000C70F8867CCE03CFB70EFD3C0034CD33C8A
:102E500036F2572EF3401BF372FE23888693861FAB
:102E600046C1D7ECA547C635C3308E19FAA233D375
:102E7000D5F358F07F9FF27F26E5ED057DCC29E064
:102E800011EE4866FB4904989B02B32996D320E3D0
:102E9000C0E4C464A4B39019102D20BAADEFE6D4F9
:102EA0009116C901FF0276DFE803D79E7C2382FEDC
:102EB0003884F8CCCAE0029FF198C8871102DD443B
:102EC00080B3002C883BA718FD10CB0A3BFB3A8847
:102ED00081FDD947C0D4425FB359A067F480BDF3E8
:102EE00086E8D9FC401D992B50C6EFCF22D3D68857
:102EF00002EDB31101C8DDEF5C8AD0844A0C5B4C53
:102F000080F998FEE0B680F798A0F92879B8B1C5A5
:102F1000BF91EDD8B35688677AF82917330C80B97A
:102F20008910046EB86EABD30D22B9F2FF5FC6B83C
:102F30004076E4B28CFBFB300442C190F5606D2C0E
:102F4000D766D1F7BB3FB0CCE870C9B1673FD309B2
:102F50004360024C8421C6DDC6EC982360BBE0DFF1
:102F600098B0FCE0013D72CE1ED7DFA53C8005F095
:102F700020770B64F36F01E5407B54FE03DF2807E5
:102F8000E29883D7DFA5813CA007F077B1987A401B
:102F900050E6D12CFAA0AF5F64D771F9C5C666FDC3
:102FA0006481144071677677A80B45E04091EBF29D
:102FB000065F0598824EF3C9FD80CE6DB310C11631
:102FC000B30D7FEB1824AE17E05B2CF1B36B73F3FA
:102FD000C8FF5927BBA0ED7FBE842D42AF2E300124
:102FE0003CEF6606880A99F85D44B3BB25D7E51225
:102FF000FF1621400A845FF3BFE42029144973F7C8
:1030000098F9621B0567EC3DB9B3CB8E03E411015F
:103010009DE2A5D2DBCBA5FA2798FE34F3EBB16F86
:1030200068980721F3D3827DB5FDCA22CF489D134E
:10303000A6EC28332359269E9806836EF20C76F36D
:10304000D0F8248B9E586526801E14F7B62C1D845C
:10305000FE221220F8D978F6468801E9DE28667843
:1030600098C4FE60BB8CDF98B8F98411307FEED035
:10307000091E73DD300A057786410403AA5E8B685A
:1030800066B98AFA0BFFA8A6100108310926FB824F
:1030900088981003B93001F5B04006C2FA7F92FD5E
:1030A00073847B51E0F81B413C2C90AF609804F096
:1030B0005B061BF37996DF7FFA51196601E5E53D62
:1030C00007DC30AE832F303B989C031EC40180295F
:1030D0008BB9ED7F7CE5237F16E566EBF030333767
:1030E0006C26B6ED064077A8E581F3EF6D9840FFBA
:1030F000BD98056CB3A502B311AF5AA4E5A1AF7D8D
:103100004615408245CBC08835B30BEF601440E5CF
:1031100030FC7AB541D780CEFC20B001801088C544
:10312000952702E6799E98FA04444054217BF8459D
:1031300055959DDAA2920269A10A42F606FFA120E6
:10314000144882508108AF107B5D061268FB11CBDA
:10315000E435F044D1C054ED7302D540BF127688F7
:1031600080BEA565659BFC30B2F9F930C09A811626
:1031700005217943256B90C53B445254BFFC3CED7F
:1031800010DD34BC98378360105EE0FA300806C169
:1031900020F66B6110B28E46F3D9FB203C309301D0
:1031A00053892211985FFB12444C540DBD9883F053
:1031B000D70386811F93C81A40AF014098A0EB1433
:1031C000800266E6F34110B3A0D6FBDF8049E898A1
:1031D000186FF55890DE984E558B6004BD4BB06A61
:1031E000667B190E30ADDDC006318716405EA5291D
:1031F0000E5C20E309248160500493F3A7453AF361
:1032000050F8E57708BF3730E4017898AEE65750BC
:103210001037303C90FFFE401473DE49018CC59E90
:10322000E088077200BDA5383FD3E2411C80039CB3
:10323000709BC08281F3E8021CBAFECFE37DFC984C
:10324000BE05F5F304A79CE5ED9607839E98ADC0F7
:103250006E150122F5E510FA63240A6580F376F312
:10326000E9FB6AB3315A29AEB30D00C6F6B30208C2
:10327000F4AB613D885109B314D3EE236042F0985A
:10328000DA26C02FF3EBEC8082753CB8907B6D4161
:103290007ECD6BCA24C150FED0828A040802C9DDEB
:1032A000E340EFAD92F7E1DD5E881567C803217654
:1032B000652328C6DAC2B90A974DA5A0F55088FA49
:1032C00098C1FE230CC875B301DE3FF799A4E14411
:1032D00019F279C85C777F90FA83F2CA48FE604A97
:1032E0008D30383DBCD2BD98C15F0F4509C43081D7
:1032F0007F824A777E1753ACF3C485FC95C8E3B54B
:103300009CDB7141F8785C56F3A608B9A8FBD79707
:103310003098B5988005E3989213BB51EDBF858432
:1033200037EFAD83BCD55CEE841105F52E91DE162A
:10333000371A09F330184149F38C898306FAF5FDF1
:10334000848530FB5242F9302C2B5DD29840DCBF93
:103350009F102F8AE22C07D601A7605A91E5D1AFC2
:10336000E4539801A15004C11364D78801790A4637
:10337000C882C2D31360F304303BA1F8C0B3F5F0A8
:103380006BEB98E2BD98B0F92006C80379F372564A
:1033900002E2B327A9F803A5D1AF1F136B9B830EDD
:1033A00077BA7807E000F18BC6F516C4037ABFD36D
:1033B000413C08807F909846B681F1E5375D9E2CB0
:1033C000E3FECA050664FBD0F3C80843C3DC8846A5
:1033D000D3F9C873B9C9FB68B36BED988009723033
:1033E000A05CCDE0DB4C02744D8CF1F4AC25DFCD5C
:1033F000119BC89894E08CF37AB30597F3407B7ED9
:10340000B0FD2F11E330C1D1C8A47CDE44D0181A1E
:10341000B8308E6021C84DE9BB105CB866DDE56D43
:10342000A0052DF1903487DBCFE8DDF585CDED9C4F
:10343000FAB23508D5F810BF022F2E23BA1F43B3B6
:10344000B9D333E5A8A520F5A9D39990C8E820A35E
:103450007B9BE0FF602F97300179987D31B01E375C
:103460002FE6547B6627EAE522F6E9CECEC8C08077
:1034700043F373F3D1FB0193C3302504AF01769876
:10348000081A51D9BBA208E63966F46FEB2EB522B3
:103490002FFBE3302F39C8400BF3BB883FC872F8CD
:1034A0008009B001B72F304CE63040026BDC93CD81
:1034B0008BBC4BD56635EBDAAF42F41211EEFB193B
:1034C00001636004BF7F02EB46C018C411F3773577
:1034D000F31AFBA4028164FB9805B0AF402298F375
:1034E00023E911C36627B3478DA5DD04609AB57043
:1034F000E230F298E230F498F1C5F3D0F479100B91
:10350000E8B9D9B0FCDC306BE698DAFF6FD4263925
:10351000B4E5CAB5E3303341153BC98BF351621CA6
:10352000302B4EE9B2B30D6FF07FDFFEBF032025D5
:103530006FFB8433D355B350D7B13EF338F9A009AC
:10354000348933D423D6014056C89FDBD1BB49C050
:10355000FD5F595E0679683E199B6499A04957F84A
:103560002E300BE949D69D885B0201BF7CDC140834
:10357000E8F80E413020D7CC8551FF067166FCFA81
:10358000B825106CD342AF0298D7E527A37A5DF82F
:103590009760903BE6C00318BD980D42E64603CE07
:1035A0000CF27117B3DBBE866384ACA480E2233FC8
:1035B000ADC0EDBB979624F9E013ACB4E0FDDE049A
:1035C000441AAD02B764F0C557117AD8018F845FF1
:1035D000662ABF852B99751BAF012E7FEE171860E9
:1035E00066718009E046D7C2435724FC6548FB84D6
:1035F000107C0106C6C858E3A0600CFE0490302180
:1036000006C2B9398B4B3010F2C8F366FF32C8C41A
:1036100040E05E9837D3107010292CBC95B0E5AF10
:10362000AF011361201F82113FEBA8FA60412CC04B
:10363000880777A1D2786B0FE0DF9807F02006C0EB
:1036400049590BFD5E7E647FCC5F0DCA411F6E57EA
:10365000E0302B3D83D59862EE9805F120BC8B4578
:10366000C69EE0B90840FAEFDFBE06E7E5E5D5FF04
:10367000127F9D98E6ABFD4A6FF45FE04B1904FDA5
:10368000E541B3303930589DFD56280292B37F1F73
:1036900010ED988804C6B3FE465FDCBF11D29806D1
:1036A000305E26B3AD11DA49C1F98B67C80AE09DD7
:1036B000F9AC34A0BF9D1AA99406EEA21ABFCBE5BF
:1036C00073B5FB17C0C03E50B9A0F7529F22D2A1DC
:1036D0002814859802110ABB5028D7DB4934FBA077
:1036E000FA4665F130BF8A5B203CBAB3302EDFC1A9
:1036F0004FE211918861EC20B1D3E47FB08B40049C
:1037000029801DFA9B60B3207F1B7E060CD761C009
:10371000F9B82E090174D1241009E1FACC3B507D8F
:1037200084CBA88FD3DCEB48A3FAC6B9037834EE78
:1037300048ACC138F86DC7E497B39FB8E7981A91C1
:103740008F84354A1011767E7522A502880198D3A0
:10375000C0100B5C22044C20D179828920A968A476
:10376000F304FBACFD841191BF325879C767C804DC
:103770004690C1E1E693D32CBF7F0ABC02665DB3DD
:10378000CF7D52FC5088F484300946D32B946BA42F
:10379000204E631602AF2E98983A99B27CD8FCE07E
:1037A0002E2C80076FF21EF3667F3B988B50C898D3
:1037B00091FF8ECC9FABC427A505E872E0B4BDA5F0
:1037C0008287580BFCE2412C9007B0F0F3C8031835
:1037D000C5767AAEB8FF803F8BCDE50B18F705C2F2
:1037E0007998A7AD8B807D9B587F207A245F8CE6EB
:1037F00098FEF26CF305A72B70A83B7BA02071B359
:10380000463AED26C035C723B366F930087A11234E
:10381000068429E4C022FAD3A360148C4DC00AF3B5
:1038200028CDB32008CCA6C8FE562AFF6FA44BAB08
:10383000BB22FE60C2016299031B76FFBCF9206EB9
:103840009B479DF3B742EC81CAF122ED7BF1402307
:103850001128163DD3F310B1FBB394CBB3CEEB7B61
:10386000F824852AB11C76D621F820349378B3BD8C
:103870001AB3E4EC2BD71B71D3EABFFFB6B2802595
:10388000F6CC6B662C50D82651E36622FF630BE41E
:103890002065B302FDE1E3CA05E53DED1062CDCF41
:1038A000B0F8A9319E446EB1B70CED2D24E2EDD3F2
:1038B000C5981759FC0C6BECF9F3531B6ED3B8FF8A
:1038C000357DF3028CFC90382CC311D6FF42C5F72E
:1038D000C61C7BE218F90184E2FFA3DC0F8C8A4747
:1038E000FB4AA8FD73A31DFB7673B218FE0728FCE4
:1038F000D5F310B304CCDE48A9CB5972026AE48038
:10390000EB64D6E14022C7B10465781288AF062186
:103910005E81FC056FBB96401A6CAB40014CE2DD4A
:1039200075885D17672D99824C194C65BEF1CFFEE5
:10393000F9802069B1426C609BFFF50854B5409452
:10394000D7B8A4144702B862DF8E5A78660C99F093
:10395000228FEE2049F7FAAB8E05D1B318F94C014E
:10396000284064F6F432800214440CB3CDC764EAF4
:1039700008907799587F8181435BF521014CB0AB6A
:1039800094FBC07DD688A74DC8F8030745BFE571F5
:103990009AF61858B6248FCB307C2FFE4EA0213AD1
:1039A000023C20C80C15CB9D28F80A89F8F1ADE53A
:1039B00030BC8CFF5B543AC91068FB23C7665F5B61
:1039C0006482B6B0201029FACC10D3F1CD9286B41F
:1039D00035028FF460FBB8F830E9FF407189BB0D08
:1039E00098F96191BE9BE690EBB3FA3FC86523F16D
:1039F000D33167F5E49FEB2D8029A920DCC0FBC201
:103A0000638676DFDB63FCADE088FD20315EDB6240
:103A1000207E2102F3471FE1A492B018C3EB7FEC94
:103A20008E55E7D8B8FD89DC56467768F6B1446212
:103A300005DB5E72382FF33F50AF15D844DBF90435
:103A400012334EBE41DC072B7185DB67F32AF8FA8F
:103A50004BEB400D369ACF6CFFE8FC7FECDE5F6CE1
:103A600088F63380FDC47F1D0246C4359691DA186E
:103A70006736E9E0F95F8BE9F60896FFA06FA67B51
:103A800001A530FD5815FB63E6E527A700F94B8C2F
:103A9000FDFA9ECF96407729AB941053B30B166A6C
:103AA0008434E3B090C019FFB1D6110302B2B85606
:103AB0006608127DCF8C765A30C716198059BB8F95
:103AC0007B4030FE627F5762BDB1659999FF545AC1
:103AD000621992DBA3048919337FCBE9500B60375D
:103AE0000C8020BFC04118B068B3F632A0594F9C7B
:103AF00059D1B4FFAB8CFD92856DFF30F98B183036
:103B000097D8ECEFF65988FFBE31099FABA7021793
:103B100037B3021ECD76ABFC4A407ADB2094C1411C
:103B2000F9DA8004ADAA1054AD08D61197E8578091
:103B3000E880F47C41E0DBC0FD10CD6E0206BA12D5
:103B400000FCD8D30B750304B993C6AB5A8808DBC5
:103B50004E9378C61080E0FF7E8505A0A171D050FD
:103B6000473E420128480525203CD8508060193046
:103B7000A1413CA719D8B590526658BE15F2BB7F3B
:103B8000DB8401050C90D42234C51AF2F02A48A82F
:103B9000AD44E7FAA021A5208124F7672C0C80D73B
:103BA000E0305735A8CD61CE8E3A008B40D16C7392
:103BB0001B043002095EE154DC21A0690F2008E2F9
:103BC0002F8075690414F4C0B8F951F1073B797876
:103BD000E62656ACAD1057ADB4460221042D20A305
:103BE000C978FDD18040DF28D282D782FB5A081FD6
:103BF00073FD3D11049DA6AB7F5117741EC1B432F5
:103C000066F8A7CB4B9020BB09797C0867ACEEF433
:103C1000CE96171F3CBA28DF4CF1B58867F5CF96D2
:103C2000B3B322347DF325654A8092767F9FBFAB84
:103C3000601037ACB1F54FC092B4B1024D4C481092
:103C4000F128B45F36B1610D010440FB6167596929
:103C5000E4F3646C60B88819C21FB1C9E6DA0206E1
:103C60009BFBB8F92D7A10D920807910627CDE6236
:103C7000FF10D898FC4479B580332E8CB8D6A7189D
:103C8000FED858C91042C45B88D9F40F47CC4067AE
:103C900099BEED0ED8F897E6F26F2B2F04AD497F51
:103CA0003880646D098BFFA450FE661830499B7DF7
:103CB000204F2FD437E3397978A8B1F855B8809FD1
:103CC000E6A3FE505A7264F0E8D7AF409D92C02F31
:103CD000BD08F8A00129E804DA2381684D01A0B7E6
:103CE000C5E7083EDAA009140AC43E7535400BCF7B
:103CF000B14FD21341FA8AD1E684EC8020B88619FC
:103D00000362050C98C7D90121A6B53B9CB628FED5
:103D1000A3CDCAD6B360ABB330FEA4ECD9A311DDFA
:103D200034B6605A9803190E1F76CFE081C3A0F80D
:103D300080B541FED113610D2CAFDF5EAEEC808803
:103D40000958338E5CB719111FB3F6C6FED77FC86A
:103D5000D219A6F916E4F1231D1484EF4EC02418DD
:103D6000032BF78F0E33D4140605B77AAA049DF3FC
:103D7000493002E65F8130FD0970F9E0221907261B
:103D8000BD03191D0FE8E9F01A1EC02591092D9DEC
:103D90009A60E06D39010478A76EC63C5E18061380
:103DA00030D33C7268F8E28FF0FACC3C027468D6EB
:103DB0001844FDB32185B3B6B1F7EBF3302F803251
:103DC00068F8F9E0F0B317A279CAB2B302E5360594
:103DD000FFCCED08302B7D67157AB304F3EB72B39B
:103DE000F3B7D8FA09323E70FE2048D7D35F03DF1D
:103DF000056BCE239A4420074101A0DF1036FF8FC8
:103E0000462AFF3177FD6A919510187CB832183533
:103E100050A6561F7E3914840A4403D7DB98F4FB5E
:103E200023CC989EB201BB344EF7EE2AFE0D3DF72F
:103E30007715EE069FBBDB4025F1104119DAFA98A1
:103E400018BECCDDB3105BC72EAE7D561E66BBFF21
:103E500009EEB3DD2E64070C88076BEDED0260DD23
:103E6000B36CB2CEC081F389FB5BB67A98095BC1B3
:103E700032660510F3B2A6FFFBCC12666FDE9EF829
:103E8000C27635729BF981065E3BC7EEC1C94221FD
:103E9000BF50C7989ECAFC727C06E7D3936012B6E7
:103EA00080F7A6110860770BE5D89E666778FF015A
:103EB000E78457BC063F86B00840C418B998D82C90
:103EC000F980413012268CA340A8FC980772FA6052
:103ED000AF813998D40385780B68B55E98F2807805
:103EE00040032CFFFBD59C07E81EFF5E84F974019C
:103EF000E0413CB07793786D0FE2CC013CC634DAF8
:103F000076C8FB9810B85B496DEB98602366DB526E
:103F100061C9ED3869FFAC810AB477A5F208107E5B
:103F2000AC83BA448FF335C6F16BF3C039F8B551A1
:103F30004DB340B328A1197D027FA28C08B591E54D
:103F4000EF32AAA93905812EC920F57813B8B3201C
:103F50005FB0D46405F30BF8D4C314B4FB9108012B
:103F600025205E4030449D687EA004FC30FBFE6747
:103F7000324422BE6A1F39EE08C68004F506D0829C
:103F800000F58DF7FC6EDAD4070242896BED98706C
:103F9000F9BEDF9DC6F95F2F93817BF6BCEE3267D9
:103FA00094F852B3BB12EFECEA673666CB0177FFA9
:103FB000E8F960710CE7ED6512FF68357B10B6D645
:103FC000DD77FABEEE36DD057CF842663DBB40A0EB
:103FD000E3B3468C03BC98B830E0C66D783001E49A
:103FE000BBF885B4A0FFD7E222208835F54B08DB6B
:103FF0006EDC090221FB96FEA2DD0DBF5F6EEE7145
:10400000BB2111B3B9CAF3237E8382C623B14F7299
:1040100098A8FC84CD1546126AFD246EFB447E46AA
:10402000224008102012B612FFF9FEB6FF16759C4A
:104030004F76562DEF84814912E64044249363BEA7
:104040009BBC9893C6848C2069E098BBB0FEC0B935
:1040500030317203196D906439301635F359FDC94A
:10406000010CDF32FB860A1316209EB307290EE5EA
:1040700057EDBA48001E480B66E8E5013C88C61BB0
:10408000097B98E0FA7F0B7D695CDBA740FEAC10F2
:10409000ECBF33246A73BFB7723429EDB8D5973CAF
:1040A00018B7DE88017DBF93EA9858D3AF6F1B988D
:1040B000C0485FCD5F10AB502FE90938DA2F8D5E15
:1040C00049C006A001E8B380EF03B3408E20D79823
:1040D00023E0FE0B8B1EDFD21A48080201DE81A20C
:1040E000C286827E39680401A011F7BFAEBAC1DC76
:1040F0003B01558763EB2B68FE8CD0020A44DB80C2
:10410000307D1422025161DACF9D84FCA8FA91C45B
:104110003D6F64EA2B20DBDE98B4BB41A3E6665416
:10412000661FEE1180724640DB8C3FECC612FE72B9
:104130009BE0BEF91D102DD841BC447BB30C8841D7
:10414000DEDD58BA53EBBECC7D7A7618FE60CD30FA
:10415000C240FBB6AC0C9B98CB404F5D98029DC80B
:1041600088FE137E460418E6094008B9A2EF2E62C5
:104170001550EDE1B91A3D19BABF4CAFCFF80D7625
:1041800006FEA002D348A0B83D8FB6E43010D1FCA3
:104190005071D9C8FA2AF8800902FFB9049808C6F4
:1041A00020621784096BAFAF082114402FB3DFFBE7
:1041B000B8FA57DDAB0ABFC3461AEE9030930965D3
:1041C0004499C066EB81B0242628248561B74CACA5
:1041D000EFC868FDF698F120BDA5702BDD2BE8DC5B
:1041E00098801EC8BB83C8B841B5A21ACA450BD176
:1041F000EFB107020FE7E4410CD3B000AF16B809E6
:10420000D3BD983469EBE20FB3C8C8B7FFF398F990
:104210003D40686679BAAEEB2F0AB7E94AF898D7FD
:10422000FE810A30D3EB44FE0BD38F7DFD270CDEDD
:1042300098D111F813CCA390087960D27F4D64F324
:104240001A28AA820CFE9A7CA05039C8C2280A8A71
:104250009EC046814018FD3F35CB98D41808763370
:104260004F11F3D8AFFDAFB97C98184A4408090B39
:104270004DFCE378C5024010A1AF5DC405FF7D6C25
:1042800026507643F8601ACB2823BFF335406FC31E
:1042900030C318A21A322ED45F30A0C430FC794744
:1042A0001953BEC54CA31AA6D3B3010A4C59DF2833
:1042B000BB96342EFFE530FA40BD706A99A6FB121A
:1042C000C50037FB98180401E6A39DFEF7A75466C6
:1042D000123C66113ABB450A3822E023D5FC0EFC9D
:1042E0003097E0F7F123D9C8EFD0FE24E130662BF8
:1042F000F4D798B0F5C8DEE5B80AB8F7ADAEA61A9F
:10430000B967E945E61106BBD334D3C27824192135
:10431000A0832E854ADC23772B30D89F30320816B5
:10432000C004F94810206041A97F9D98CBC460FE6D
:10433000C2ECFEB7AA96149761029F6610DA7B80E2
:1043400091CD3009E018FF7FFC4C82053001066DED
:104350000880D928818C309DB0EDFAE0DA02D7F1DF
:1043600040A6987ADDE2FF7098201ED0737910B0D5
:1043700080D30CA0BB8EDEF414384001B3074A078B
:1043800034D338E05C30779FA5ED983080BFBB9880
:1043900008E0F94E2DB785A4626FE29840FD2EAF7C
:1043A0003F30F66A14BF74BF8A8F30F3787F2F983E
:1043B000BCBEDBED5AC5B0B0B30218578D987F1064
:1043C000E8B3585788EA9820350201BBBF548B01E7
:1043D000A884B3F2E03719CAC8FBC8BA57EDF53C58
:1043E00070FCA0EF182604021AA644E00528D08D20
:1043F000EF06B8B7FB0277BEC9A8EFD4FE41F0B410
:10440000F3BB7A34A592A11BE395F3B4E6A006189A
:10441000D744E3E3BD98E4A3F9F7885393BE2EE3B2
:10442000DD39FFA2E86E54EFF97880572ADF05CE18
:10443000FC036BC7301D66F627AAF188D849E6ED64
:10444000E271E008034D8D84B66B7403C50C46EC35
:10445000A47AE6A2B35EFE202A997D6E3808063063
:10446000C719FF8C3010D206C0A20345DA773D3061
:1044700099F8880529A3D0E013AF09DA8180F230DA
:1044800008575B9ED88FF73EEFE1EE3CF80B1036F5
:10449000D9C8FAA48604D85B90FE8CEF1B998711CB
:1044A0008E64EF1DC2FF809A11F922F0987A936012
:1044B000ED6D88DF9F59E8DF2062F7853866BAEE38
:1044C000F4CE789C53213ABD1F49100126C0219695
:1044D000DF03A3AFAD123489407C7F0530EB1AF9BE
:1044E000E0F57F05CF30D00370101660D32BC89A4B
:1044F000307840CBC8DC66AA0EE062FA9D330AB081
:104500000B7A9888EE2F03BB8CD36B2C2931ED806E
:1045100006C8BD9870DEFB84CDA32029CDB6B83087
:104520005BF374FEAFE63FCC758CB0EFE510080688
:10453000C46AD82DF37A0ADBDD9831FA806B7C15DA
:10454000021F1882A443CC04BF3A8530D7FF032F43
:10455000BDDDC624FC87A0022C0BCB85DD0E5404E8
:10456000033E8082012802452604811D40DE989189
:1045700045B3AEFDD6AF26D0178A4403AE08DA5154
:104580004566C8619FFB0D208404114F66CEFFA7CE
:10459000FA77BC4343AC1322C975B029D0815A22A3
:1045A000319A8D7308B4C6D200DAC621E7C850FA32
:1045B0007FAE9884FDFC61C6735E6FED20CF3ABE7E
:1045C00025FEB901E037CB12BBE84D864982EF22C8
:1045D000F3F3E5273BC090FCD3B3E2C9105E98BF6C
:1045E0000C46AF5004EE3B23EEDFD7F5C6BAB6B9A2
:1045F000EE9B23EB331B7BCF98E510C833E80F62AB
:10460000D620DE06C2B969EE9840FB04F0AC75987E
:10461000FE52402024F26621BD881A8A29EDFB5102
:1046200016AB2CEE9FE94B6636E6047F0B30CA8F43
:10463000A3F77A10C048D640085F79E998C0B3A5BF
:1046400020C34277511360D710401264EC22BE326F
:1046500088F341EFFB3BE8AA17FE9FAB43870B2E85
:10466000818091648DC4C29F4BE644824910F3114E
:10467000220184DB2059C8097330D0FF2B46DF9814
:10468000F02016C4829D1063E441B7A79879F368BF
:1046900001BF2C7D963A143EEF362A0A02E0A201B1
:1046A000B85CD3D01994E0E0C66B9AC862F69878EB
:1046B000F9FE57AA41401720735B84E6C86288164A
:1046C0003AFE5AFA96AD040BB87DFFEF570482E329
:1046D0002323CB983A048051D8BB7F029810036102
:1046E0004BDE115CC9C8204F019745CCAFBB1716F4
:1046F000D0DA81B31687CF205B5D48EC8BA4C02253
:10470000CCFF539849B3FFA0BB4447E9C04011F721
:1047100060010D24FC1A92A5F353BEACBE92BFC239
:104720003BDC94FAABF305D10AFFEDB073E00A0865
:104730002FB9E0EA3C105448DFC609C430F3B7FA99
:10474000F0A8A6190CF3B46FA32F469EF056AA97B3
:10475000EEE7F185DD0BB5FFEDBE10B8DDB7CA1C85
:10476000F6FF78FD0769A2F984BF702F7BF398F9F3
:104770000080CA8130D978DDBBB5EE492E7EB35AB0
:10478000FF84013808EDED0A800332C801C614DA4F
:10479000FA81FB98E8FDCA801119FAF0E46A69AF62
:1047A000B53CCE968F9E3966FB68F79BDBDE10BE6C
:1047B000B347FF880104320D684849B30DAB47C6C3
:1047C0002DFE223A0A06EAF89BCD2046B86A11AEC1
:1047D00020B53F2BC8307B61DB2635EE66EFBA0093
:1047E00070B3CD1A08751509E0787A022004CEC896
:1047F00085300646402988BF10C798F3C8FFD660A9
:104800004175C83240C86A11DD0B6480A665C8C412
:104810002364C8868380ADF01B860C13AB0508E0CB
:10482000030F68BF2BC82F9BF298CEC8B180C8F584
:104830009890A686156FF686FE987B199004706393
:10484000DDFB58B488F6970CED78A54220DB37C81D
:10485000401A1DFB98F1F834B331B35B0A4EFC28C3
:104860001020C9DFE3809130A301B385C728E40E8F
:10487000AF6B94A8D8B540C941E7BB08D59851ABF8
:1048800098F811D3237D3D42C284EEDF83DCE7300C
:1048900022AA418477C6CEFFE330FC4BB6D1BCDD03
:1048A000FFA35FB563F3F930DFDD81DCDCE7C2AA8B
:1048B0003DFF2896D36689F3356663CFFF88DDD741
:1048C000FCB901B36BD8295FE3D628FEB124B393BA
:1048D000DBB3B1DF9FB346C7147520636CD302FD11
:1048E0004B0975A60C9DF7CCBDFF98DFF7DDEE6692
:1048F0008FB977EE31BB866658FAD7C5EAA0AF1EEE
:10490000A7F146F3EF669C7FB01D73F8220ADB58CF
:10491000079BC8691BE6C6CDF3A0FC6D2C94BE4670
:10492000FCC6F3FF2FB5B2ECF31906402416E417CA
:10493000FF6AF3D979F81F3209887DF99C375EA1A7
:10494000633FCCDA70FF7DDB927664F17A9EB26EC3
:10495000537F198264F22BD9F0FB42E99EC3B6FF64
:1049600098FF85B5ABBF012065ACE20153A6E7F81F
:1049700028F3F83946B0B2FA4C45FFB3DE16E6012B
:104980003C6697E8B3F53CFBA1B22016198652DBD2
:1049900080CC2ECC3605335D1B9D50FB2DCC08689A
:1049A000D21DB96D96035ABA637FA9D188FBA4E5DD
:1049B000CACBB6408862B4238DF24CBDE16BDF6791
:1049C0001E5760B808B9DB4662DD84B423B5DE0447
:1049D0006599D3FFBA5EB1DA0281AD612046309E9F
:1049E0000A2E0824141041A5F9F216ABA0BFD0FA84
:1049F000DA20040CD7D9C03040B850ED14052BA0F4
:104A0000392B600166C734974C0A93B3E08082E784
:104A1000884A0AB30328FAB0052030FF4EA722695E
:104A200015C09DC1A80C081D0DD5D6AE7C44899437
:104A3000066120CE7366017104E928DC5003B3AC33
:104A400081E3590480E81A6ACE9F829006F0FE083E
:104A50006CCF6DF7A26C0977F55C8B7903A8CE1645
:104A60006796656DFEFC3FA7807AF1040232FB4534
:104A7000C9F49C663AED0802234246FE8EBECFF38F
:104A800039DCA60868FEB67F309FA4FFCFE936BAAE
:104A90004DB118F989ACD31068BBCDF5E102BBA6C6
:104AA00008FD715F9DD0AD1196C1DD1B9EC1DA710D
:104AB000BD8D73EDD0F946A571E1E6ED228501B912
:104AC000478A17D7ECCC0169920866924CF701C56A
:104AD000FFA238B4FF59F841BD2C0184FF7FB2100A
:104AE00074AFD776E30150E6279E6CCD66FDCB9E72
:104AF00022B6805CB4014BDBF882993F269CBD0551
:104B0000676EDB80CD23F0962B5B3050FE2D460484
:104B1000662C39802CDE3358FFD875C3CF3D4CFF4F
:104B2000D87AB3105848B79BE7EDABB91FBF8AD40A
:104B3000F3D316F688B6F9BC386C19FCA5D31499D2
:104B4000B1546C60488059BDE696CBBCFD18343337
:104B500031CBDED991845DFEB1FA55D10894C5639D
:104B60007FD459316D95C8E69825963419AFFFFC6E
:104B700058B30466C467FFC8B8F965B64F40011A58
:104B80009EADC8B248FECCC6960D013E670398FEA6
:104B9000796DBA1640C958DB01BFEC280853FBA257
:104BA00028FD8DF0CCB7BD9600B0676C1702FDBF35
:104BB000BA36855047ACE5FF85E0119C3DB1A26F48
:104BC000B1DF6EEC64FC40A5DA04B27A48C24FD97A
:104BD00088808B02FC08B6F4FD3327D6DA02AB2DB1
:104BE000907EEC17FD20714180613860E81DE8FB84
:104BF000A0F6B010028C9B9FB159A359CFFBD8E807
:104C0000EF5CD520AF830528B6FBDA9DFD4240C09E
:104C10009C1A2FB92231E000B6EDD699049B4919B0
:104C2000FC3F150579CEA8F961043079EC21509844
:104C3000A7E6400224EDA0E7DD02612B071820D98A
:104C40004505DC2CF1200501809CDF980AFC81E001
:104C50004F68BB968250A058E71F48800820F0811B
:104C6000F8091A26B9B70820D963480A38CD785F01
:104C7000A4858168943410467EE89D214F9BE90607
:104C8000409CB2020485C8F232AD9F0D04417530DC
:104C9000ED0708FF968A04568DDAF302EBEB201A33
:104CA000E33129E30427CAEB88FFBF80AD1F4CAF77
:104CB0009EB18C5F2565DD01DD954AB04201C621BC
:104CC00079A631B72008F0F8FB1E73612F2C2F4016
:104CD000B3F33BD6C4E4DC7D671E2F50616EED2E2E
:104CE000F83C4BC516AE0467582A9AB801C96C3B0C
:104CF000C8FC6BBBBA111063D508F7CBA8D8FD0868
:104D0000BE997FEB1A2014DBC276D8C0F9C616888C
:104D10004071BC9FCB268033FB5438FA5378144B38
:104D2000AE08E763F6089618FF5A4E82C53F5280D8
:104D3000657854262FEDC3B0FD8E64A8B3F7C8A2E2
:104D4000B23314FDB8A096662CDAF5A830AAF8188C
:104D5000C4B9741066AC66FCAFEC90022093F3B853
:104D6000A8C7F2D5CC5A75FBFB6C0802611FD89D11
:104D7000DFF371FCFF7314890802FE421A4003003E
:104D8000240D7FF334801614221A76E0FD059698E0
:104D900071D1FBAD33E9812028A411F80601ABD411
:104DA000B38A13FC2DA620D3B8FA8DE2FFEC0C7F5A
:104DB000EDDC407FC480610EF40006C0DBCB030154
:104DC000C69A8858FDD9C6FDA530A80320B060401A
:104DD0003CFD0780201CC082DD6C2CE9FED01F4109
:104DE000C08A7BF55B603AF007C0405CB3507948FD
:104DF0007AFE1A453025782983E2DE1927010482DC
:104E000019253B8C358829B309B31228D389F4F0CE
:104E100091A4666D53D7C94CCD71D0FC673701069C
:104E2000CFC11869086042F740844130E8A8776B29
:104E30004C8408D830428FBDD620C40818DA3635E5
:104E4000DA05F22E3C86EEEA840F01B010FF08FB73
:104E5000E0402C8807F0F9001ED0037AE48DE03C96
:104E60002746631E504FD20B60403C670AB4E04AAD
:104E700026F0E0FDE04031F30D906BB1B92002491E
:104E8000D3E6E0813C66FA737A300853009918142F
:104E900062065FC2403CB00884DDF372D010625EEF
:104EA000A247D38B19D362EBFDB68234C648F8C053
:104EB000B802B3097678B35FA4A0021228CCB30974
:104EC00039625FCCDE26C1B3A410B32086BA21FDBF
:104ED0002518B8CF79C8F8A005D73411BEC19250B3
:104EE00008282284BD1CE6712802F70A619124DAA1
:104EF0001499845CC43AE0D002F6980824BEC9959F
:104F000040D0A96821D3932DE6F76CE9FE8081B5E6
:104F1000026FD734F99823CB20B2BD160C6DE7A9E8
:104F2000EDFC94545EE56CDFD2808819318903462C
:104F30000343EDC33C27CF4618C4C782408A0CCF39
:104F4000EAC12682AFC4202A2319FD65A601FE9876
:104F50003CDC69FE84A21B3BFE8B0B622D400A19D0
:104F6000D3CD36417BD0882236F22127E80B02E9E7
:104F700041816A66AF149DFBD9280430975AFF819E
:104F8000E72022466548105B7229A0C0268F429018
:104F9000F980022012284F79769FDF60448218033F
:104FA0002BB3D1DB111AF27630E0D77E0112FFE08D
:104FB000272D80077A905950DF169EF3E50E4402A4
:104FC0004009ECE2010D4B2ECDF26BD910312EC60B
:104FD000E33C90164A270B533C10E488FE80742B68
:104FE00006D6D961A43901CC88029104B1666CD18E
:104FF00029186095EB9840C0666019FE650908C0E5
:105000003EE6100260110CF7B38244188F01403065
:105010000C88B620226FEE7F016EE0A124F5982265
:10502000E2B3ABBDB92281210AA704B378FDA0EF9A
:10503000499410F1E3CEF30C018051F9C693104965
:10504000E56A017323302266AF6B28F4981043DDC4
:105050006877FD2486800650DC3089488DFCB0815D
:105060003401C0F9B4A03CB5FB51F386FEB85DF144
:10507000656949945E6AE07FCB732CB97D217F6EB0
:10508000C408E53010FE980177DE0CE8775C37D075
:10509000CA8218E0FBAC3B4F97E630C040EF069861
:1050A00092B010F30B5E7F3084813010F8FB80BF2C
:1050B00085D29818EB34044BA087663318088C11FE
:1050C000EED9EEB4BB147B462682DF0802E4402E04
:1050D000AF423F6B8430FA8D66A090FAA14BC0BFFF
:1050E000B5635F8C45DDF539F9A402E15D426E21BF
:1050F000B6063B5E913004E258A206EA0AE1EEDB16
:105100007F0530CF8210FE78FDE0EE010C88F79825
:10511000D0033825A943FB3CBB16D9980F68436CD4
:1051200066B5124AF8E98AF578207A98785194C6DB
:105130007474AFF51E5E1660013C1E50F9B4C9BE12
:10514000B9908B035BFA1C188F6631A95D5B01185F
:105150002C0C089D404B108EF80511FADF270CA38C
:10516000210C6BFD4C180477B60C84C1213066F11C
:10517000CA74BE8B4902AF19DC7F20B34A5748F48A
:105180005D42E2B10829F31150FBEBB472A61A6537
:105190007668D66B0280401C588A38026ABA8D281D
:1051A000CBE7356DA24DC20610703094D344D35E68
:1051B0008B15723002B3C8099B048DFBF7D70264CC
:1051C000F4B109424E3766609941FCCE77C7397F0A
:1051D0009A98F210C0D44583A86138F8C44144526B
:1051E000E8DD8360F98F31CFD6F14064C870F34DAC
:1051F0000110B2B20ADB6EF5F0C58E3CAC93BC98E0
:10520000B6E388C1C699A7D9FAF5DF048ADE540A45
:105210006084BA4FB9B210C50802C01168AF8CB330
:10522000ECB749259A88FC162245B32DA03FFF2BE9
:10523000C8C6A3D38170F71AFC2645CD1656AA908E
:10524000FAA0F9A1310A24A1FAE29002607D2C8033
:1052500049000999D7B1A60722B318949B24B42317
:10526000B3E8C182B372B88402792FDAFFE0EE00AE
:105270003CA0F798C80178AF40F9D63C80039083F2
:10528000E1C00278EB0FE8CDB856BC50ABB2E4BD3C
:105290009832021E65C258F3FA327F043059C8F9B9
:1052A000403C08A0FEA14706F3A12240687A97A2DD
:1052B000667998FF980D9A667AF440BC98FF20783A
:1052C000018D7FA982C04130BBB994CA05B335C1F5
:1052D00003D0B1A689264679D9121102B98D0820CA
:1052E000B680D5AC8ABFCF77BFA68008A11825DECF
:1052F0002FD3D2C42D07810A1139B3A0F979E90659
:105300000220A640FA03681401A01339E5A7404C17
:10531000C98522B7AF006DC9F6155082563393BECA
:105320004916A0BB1231C80B125F111F42B0F87FA3
:10533000E95402E6036B9B0E0424C359C646F85A8F
:10534000F320D1FCC4771C7DEB1C8D66FA21F34A57
:1053500088BDD62103612E0C629EE907B4401C6F04
:105360009610CB6E61AB0D68F8BB84D8984220AF25
:105370002EB81830DAC20D5FB3413010F0FFB824F8
:10538000E8FEE85760019ABB9650C4081A0845E247
:105390002BB3CEDB95B7292668F5BD22661059C818
:1053A0002EB37F9509200298FE8431E4A00846F2CE
:1053B0004901C1CA440C00EDB2A024FA10EFF6E393
:1053C00004B290ABBB486CBF2E983002190D3B0A5B
:1053D00012BF0AD10013527D44438FF0F9E0011C43
:1053E000DFEC98037ABBE8F8C90591181ED01019B4
:1053F000EE0BF38B53BB6FDF2AE0C230E0FD9C66FF
:10540000F32C805BB2B83097636066C8FA4DF00643
:1054100006BFE955812EA077F57B6140A615FA1CE1
:105420006565257D46BF1B30FD6E7821EB25C8F8EC
:1054300072FD02B3BD5C038E4152ED8644674F1A84
:10544000AC60043389410D026CBF6AC9204A4D46E5
:10545000911829D024B3A88F20228408EE6BF92C50
:1054600084BFF4F8FBA01196FE8806D04882401352
:10547000BE54EF5D9802EF98A048040D77590C06D2
:1054800070E94346EB764FC819A008B41612FC9A8F
:10549000C8EA4505D3ACBFFE2EC8EB5333B4CC40AD
:1054A000EA7FD90A872E9B5A7DBE75BE11D7DBAE27
:1054B000F340C8FBD8380306E0A520ED11716ACB94
:1054C00030B0BD9862020EB830DC66CCCB6FF2C84B
:1054D000EF62A590013FC54B697CD2FFAEFD880904
:1054E000852046115A25A1134FFA4AD652F198D376
:1054F000D71121EC6502456624E8014802B35C3609
:105500002C19F9C83AFD28886BB37BFDF9E7201602
:10551000FB8540232DE035C8A026D96D644240D9D3
:105520000522E4693E2B9E84CAB325FB3B91B61B42
:10553000F5EB44DDD1FF21FAE0012D8007F41706D9
:10554000C0D70379003069E898C03A7810E5302C6C
:105550009DA715F64130B830FC93C8E01932778F1B
:1055600098480B68809F3C6BF98400113426408F6B
:1055700069A5BCB71FFA982188FC5BD42159A36B9D
:1055800011186CB7D5699A0402BE79AEFCF9AB224A
:10559000068214E6D60A6AD349BE4641025A9FD310
:1055A000224801400815B6DB4896B3F7EF824279EE
:1055B00098D9C8EE2105A4CDC80869FC703B303CE1
:1055C000FAA04104C5C612E01A4203EB41052BD5EF
:1055D000CB31D298031FEC88BBDBADB17CC9EF4463
:1055E0007826AF04DC696871F0360106D4DF99C80B
:1055F0000DB6F6354130FD8646494E93E5A0A61519
:1056000036FF9530E0A615EDFF88F97898D7FDE0D4
:10561000F25F031095B850B830E4E0780A0E371402
:10562000EBB96CBBC8AD44939E60B380AF07BFB20B
:1056300035C864FF3218FC8801C1B6A08DD098E847
:10564000042309CB953916D7DE29D64D531279CAD2
:1056500091DA1022FEAC1411F5B6223E9530901668
:10566000C214D329C85940C91AFEF592F01608840D
:10567000587D0B6042043AED0210A0F8AD716261F2
:1056800040EC0490DD97E4457B98C218725741BB0B
:105690000A30704744E13AA780857F37FBE0013C40
:1056A0009007F05EA55C30036040C33C88AC92A4D8
:1056B0000B190FD9F30CDFCC29D343F037E008796D
:1056C000E2C7C6F130DF9C9FE8F31038F884AD8064
:1056D0001A60AB18E120877EEE9CA14CD661F68261
:1056E000B14D34FFC0A3E009BCE5B28ED8EBEDE0CC
:1056F000E9D9F82D270F76880803A061B345EA7A27
:105700003E1857197BA48009A03FA5172B0019BC90
:1057100098064FC0144621847E43C8305CA037C829
:10572000F8BC6852280241FB6F240DA045FC982D5F
:10573000437A980DBC98DC87037F1D98935024DC36
:10574000304CF30804C37B50E102406313D3E614EA
:10575000E80AB8FCDDD78B30EC1FDF3398C8FFA315
:10576000BCC0FFA5324B41FE30B71866D398FE2B64
:1057700038DFBD8E02C041FE989206E0F3B63CDDF4
:105780001A0464FB9806C17F1F30F5CCB1D7EF1E19
:1057900039B3BC48C0FA28D7B4A0B5388002A14FAD
:1057A000B62009BE984519B729753197DBE02886E0
:1057B000A7D503D3907D45579CC4D35D6F5CC0FFD4
:1057C0001028F88011002146D30122D060420D67D5
:1057D000C30A2090A45C2790F32C80920537CDD08B
:1057E0004BD7AEF6F7D4224202A258B3F0985F81AD
:1057F00020160418BB0C25C8203EF188FFE0013DAF
:105800000E07B0BF2F829A789DE0D65F0790B2C88E
:10581000EF4998E8F30C78BCB57EFCE9E8A1C9D360
:10582000262875B06EC60CCDBB12F9C8FCE4812CDD
:105830000860FBAF33973019E7B80C889680E39E79
:105840009847F32D940517BBD81A5EFD5EDEC56F31
:10585000DB4F0623FDFD3008206862218EB3045023
:1058600036A360BB9E05F630892640ACB304088899
:10587000D1D7AD6444B3F1F785A68082723014604D
:10588000B329E11106E148085C9244FB213002D0C3
:10589000FA3FE501CF95B6BEFD63610BFFFCFE5EEE
:1058A000655B805A007E5A0796B59A5919F3DF3224
:1058B0006CD379E09AF304B71923A8BE0F5BFFD825
:1058C000FB1B3393F416C6D8D3A3FC0CFE234C2A3F
:1058D000091676016B97D9FF616136FA8F6BF6ACCA
:1058E000CB884067A8D0FF04795191F78AF9C0B1FD
:1058F0004488997359D066BBB1D9F920048FECCC98
:1059000098FFD23A1587E1E65A69BA9DA659DA9707
:1059100065FFA248FD6EF5622BBE8038EDCECB9DB3
:105920007F8A45FE5BF1FE72A502D438CF16A6E64B
:10593000AAEF015EED05DC09BF8026657FA950FB5B
:10594000622B854135F040659A52F558EB85087514
:10595000910A7FF7D8FF6BF13A5B7D92B891B184E1
:10596000AF3F8FF4C342B9B701328DDA66204032BF
:105970009CCCD37CFF5B8637FB01047E7F408D800F
:1059800008A263F54621C4E4F162897084D10A0457
:1059900064D741E073FD206EAB7332D0FC4BF7A0AF
:1059A000C4F1585467BC040966D0209E22CFF198F8
:1059B000E51DC43ED47E5760361102018786B3FAD6
:1059C000F0FAE004CAB015DFFFE11840028B880C42
:1059D0000314B2810190FD000A400328059EB39391
:1059E00060CD9BB0F941864A501387F0844009B0DE
:1059F000F40514837E7E6D610870FC20EED3902147
:105A0000A382E0CCA011EC30C3584A41F3301248D5
:105A10007B056004391940354C46972B6BAD0CA1C2
:105A2000FD2F4406041020DF98AE14FDF44408C88E
:105A3000FB12BFA820219F51D811E73EFDF19E190E
:105A4000240185B5D30C29DFD2C810B397FBE86DCC
:105A5000497DD4FFD66BEB4A016F917F2DD8A711FA
:105A600087E86A79488ECD374557DB9998E5FFACD2
:105A7000F31063C294B2B9FB386FB6E330CF6EF760
:105A8000B320BD9F017A97C0DBBB78F0FE5F111297
:105A90004D99FE6F652FBF103CC3E9C5DB8798F8B1
:105AA00027D6B3017970E6BDC6AE7F99D8D9FFDAA3
:105AB00068FEACC620A5CC40ABEB040863FDB16525
:105AC00034F530FFBD6173FF2002628D5298FD9264
:105AD000266790781A56787DB1D61E3D60D85096CC
